{"abi":[{"type":"constructor","inputs":[],"stateMutability":"nonpayable"},{"type":"function","name":"approve","inputs":[{"name":"to","type":"address","internalType":"address"},{"name":"tokenId","type":"uint256","internalType":"uint256"}],"outputs":[],"stateMutability":"nonpayable"},{"type":"function","name":"balanceOf","inputs":[{"name":"owner","type":"address","internalType":"address"}],"outputs":[{"name":"","type":"uint256","internalType":"uint256"}],"stateMutability":"view"},{"type":"function","name":"getApproved","inputs":[{"name":"tokenId","type":"uint256","internalType":"uint256"}],"outputs":[{"name":"","type":"address","internalType":"address"}],"stateMutability":"view"},{"type":"function","name":"getTenantInfo","inputs":[{"name":"tokenId","type":"uint256","internalType":"uint256"}],"outputs":[{"name":"","type":"tuple","internalType":"struct TenantPassport.TenantInfo","components":[{"name":"reputation","type":"uint256","internalType":"uint256"},{"name":"paymentsMade","type":"uint256","internalType":"uint256"},{"name":"paymentsMissed","type":"uint256","internalType":"uint256"},{"name":"outstandingBalance","type":"uint256","internalType":"uint256"},{"name":"propertiesOwned","type":"uint256","internalType":"uint256"}]}],"stateMutability":"view"},{"type":"function","name":"incrementPropertiesOwned","inputs":[{"name":"tokenId","type":"uint256","internalType":"uint256"}],"outputs":[],"stateMutability":"nonpayable"},{"type":"function","name":"isApprovedForAll","inputs":[{"name":"owner","type":"address","internalType":"address"},{"name":"operator","type":"address","internalType":"address"}],"outputs":[{"name":"","type":"bool","internalType":"bool"}],"stateMutability":"view"},{"type":"function","name":"mint","inputs":[{"name":"to","type":"address","internalType":"address"},{"name":"tokenId","type":"uint256","internalType":"uint256"}],"outputs":[],"stateMutability":"nonpayable"},{"type":"function","name":"mintForSelf","inputs":[],"outputs":[],"stateMutability":"nonpayable"},{"type":"function","name":"name","inputs":[],"outputs":[{"name":"","type":"string","internalType":"string"}],"stateMutability":"view"},{"type":"function","name":"owner","inputs":[],"outputs":[{"name":"","type":"address","internalType":"address"}],"stateMutability":"view"},{"type":"function","name":"ownerOf","inputs":[{"name":"tokenId","type":"uint256","internalType":"uint256"}],"outputs":[{"name":"","type":"address","internalType":"address"}],"stateMutability":"view"},{"type":"function","name":"propertyInterestPoolAddress","inputs":[],"outputs":[{"name":"","type":"address","internalType":"address"}],"stateMutability":"view"},{"type":"function","name":"renounceOwnership","inputs":[],"outputs":[],"stateMutability":"nonpayable"},{"type":"function","name":"rentalAgreementAddress","inputs":[],"outputs":[{"name":"","type":"address","internalType":"address"}],"stateMutability":"view"},{"type":"function","name":"safeTransferFrom","inputs":[{"name":"from","type":"address","internalType":"address"},{"name":"to","type":"address","internalType":"address"},{"name":"tokenId","type":"uint256","internalType":"uint256"}],"outputs":[],"stateMutability":"nonpayable"},{"type":"function","name":"safeTransferFrom","inputs":[{"name":"from","type":"address","internalType":"address"},{"name":"to","type":"address","internalType":"address"},{"name":"tokenId","type":"uint256","internalType":"uint256"},{"name":"data","type":"bytes","internalType":"bytes"}],"outputs":[],"stateMutability":"nonpayable"},{"type":"function","name":"setApprovalForAll","inputs":[{"name":"operator","type":"address","internalType":"address"},{"name":"approved","type":"bool","internalType":"bool"}],"outputs":[],"stateMutability":"nonpayable"},{"type":"function","name":"setPropertyInterestPoolAddress","inputs":[{"name":"_poolAddress","type":"address","internalType":"address"}],"outputs":[],"stateMutability":"nonpayable"},{"type":"function","name":"setRentalAgreementAddress","inputs":[{"name":"_rentalAgreementAddress","type":"address","internalType":"address"}],"outputs":[],"stateMutability":"nonpayable"},{"type":"function","name":"supportsInterface","inputs":[{"name":"interfaceId","type":"bytes4","internalType":"bytes4"}],"outputs":[{"name":"","type":"bool","internalType":"bool"}],"stateMutability":"view"},{"type":"function","name":"symbol","inputs":[],"outputs":[{"name":"","type":"string","internalType":"string"}],"stateMutability":"view"},{"type":"function","name":"tenantInfo","inputs":[{"name":"","type":"uint256","internalType":"uint256"}],"outputs":[{"name":"reputation","type":"uint256","internalType":"uint256"},{"name":"paymentsMade","type":"uint256","internalType":"uint256"},{"name":"paymentsMissed","type":"uint256","internalType":"uint256"},{"name":"outstandingBalance","type":"uint256","internalType":"uint256"},{"name":"propertiesOwned","type":"uint256","internalType":"uint256"}],"stateMutability":"view"},{"type":"function","name":"tokenByIndex","inputs":[{"name":"index","type":"uint256","internalType":"uint256"}],"outputs":[{"name":"","type":"uint256","internalType":"uint256"}],"stateMutability":"view"},{"type":"function","name":"tokenOfOwnerByIndex","inputs":[{"name":"owner","type":"address","internalType":"address"},{"name":"index","type":"uint256","internalType":"uint256"}],"outputs":[{"name":"","type":"uint256","internalType":"uint256"}],"stateMutability":"view"},{"type":"function","name":"tokenURI","inputs":[{"name":"tokenId","type":"uint256","internalType":"uint256"}],"outputs":[{"name":"","type":"string","internalType":"string"}],"stateMutability":"view"},{"type":"function","name":"totalSupply","inputs":[],"outputs":[{"name":"","type":"uint256","internalType":"uint256"}],"stateMutability":"view"},{"type":"function","name":"transferFrom","inputs":[{"name":"from","type":"address","internalType":"address"},{"name":"to","type":"address","internalType":"address"},{"name":"tokenId","type":"uint256","internalType":"uint256"}],"outputs":[],"stateMutability":"nonpayable"},{"type":"function","name":"transferOwnership","inputs":[{"name":"newOwner","type":"address","internalType":"address"}],"outputs":[],"stateMutability":"nonpayable"},{"type":"function","name":"updateTenantInfo","inputs":[{"name":"tokenId","type":"uint256","internalType":"uint256"},{"name":"newReputation","type":"uint256","internalType":"uint256"},{"name":"paymentsMade","type":"uint256","internalType":"uint256"},{"name":"paymentsMissed","type":"uint256","internalType":"uint256"},{"name":"outstandingBalance","type":"uint256","internalType":"uint256"}],"outputs":[],"stateMutability":"nonpayable"},{"type":"event","name":"Approval","inputs":[{"name":"owner","type":"address","indexed":true,"internalType":"address"},{"name":"approved","type":"address","indexed":true,"internalType":"address"},{"name":"tokenId","type":"uint256","indexed":true,"internalType":"uint256"}],"anonymous":false},{"type":"event","name":"ApprovalForAll","inputs":[{"name":"owner","type":"address","indexed":true,"internalType":"address"},{"name":"operator","type":"address","indexed":true,"internalType":"address"},{"name":"approved","type":"bool","indexed":false,"internalType":"bool"}],"anonymous":false},{"type":"event","name":"OwnershipTransferred","inputs":[{"name":"previousOwner","type":"address","indexed":true,"internalType":"address"},{"name":"newOwner","type":"address","indexed":true,"internalType":"address"}],"anonymous":false},{"type":"event","name":"Transfer","inputs":[{"name":"from","type":"address","indexed":true,"internalType":"address"},{"name":"to","type":"address","indexed":true,"internalType":"address"},{"name":"tokenId","type":"uint256","indexed":true,"internalType":"uint256"}],"anonymous":false},{"type":"error","name":"ERC721EnumerableForbiddenBatchMint","inputs":[]},{"type":"error","name":"ERC721IncorrectOwner","inputs":[{"name":"sender","type":"address","internalType":"address"},{"name":"tokenId","type":"uint256","internalType":"uint256"},{"name":"owner","type":"address","internalType":"address"}]},{"type":"error","name":"ERC721InsufficientApproval","inputs":[{"name":"operator","type":"address","internalType":"address"},{"name":"tokenId","type":"uint256","internalType":"uint256"}]},{"type":"error","name":"ERC721InvalidApprover","inputs":[{"name":"approver","type":"address","internalType":"address"}]},{"type":"error","name":"ERC721InvalidOperator","inputs":[{"name":"operator","type":"address","internalType":"address"}]},{"type":"error","name":"ERC721InvalidOwner","inputs":[{"name":"owner","type":"address","internalType":"address"}]},{"type":"error","name":"ERC721InvalidReceiver","inputs":[{"name":"receiver","type":"address","internalType":"address"}]},{"type":"error","name":"ERC721InvalidSender","inputs":[{"name":"sender","type":"address","internalType":"address"}]},{"type":"error","name":"ERC721NonexistentToken","inputs":[{"name":"tokenId","type":"uint256","internalType":"uint256"}]},{"type":"error","name":"ERC721OutOfBoundsIndex","inputs":[{"name":"owner","type":"address","internalType":"address"},{"name":"index","type":"uint256","internalType":"uint256"}]},{"type":"error","name":"OwnableInvalidOwner","inputs":[{"name":"owner","type":"address","internalType":"address"}]},{"type":"error","name":"OwnableUnauthorizedAccount","inputs":[{"name":"account","type":"address","internalType":"address"}]}],"bytecode":{"object":"0x60806040523461036f57604080519081016001600160401b03811182821017610285576040908152600f82526e15195b985b9d0814185cdcdc1bdc9d608a1b602083015280519081016001600160401b03811182821017610285576040526002815261054560f41b602082015281516001600160401b038111610285575f54600181811c91168015610365575b602082101461026757601f8111610303575b50602092601f82116001146102a457928192935f92610299575b50508160011b915f199060031b1c1916175f555b80516001600160401b03811161028557600154600181811c9116801561027b575b602082101461026757601f8111610204575b50602091601f82116001146101a4579181925f92610199575b50508160011b915f199060031b1c1916176001555b331561018657600a8054336001600160a01b03198216811790925560405191906001600160a01b03167f8be0079c531659141344cd1fd0a4f28419497f9722a3daafe3b4186f6b6457e05f80a361157f90816103748239f35b631e4fbdf760e01b5f525f60045260245ffd5b015190505f80610118565b601f1982169260015f52805f20915f5b8581106101ec575083600195106101d4575b505050811b0160015561012d565b01515f1960f88460031b161c191690555f80806101c6565b919260206001819286850151815501940192016101b4565b60015f527fb10e2d527612073b26eecdfd717e6a320cf44b4afac2b0732d9fcbe2b7fa0cf6601f830160051c8101916020841061025d575b601f0160051c01905b81811061025257506100ff565b5f8155600101610245565b909150819061023c565b634e487b7160e01b5f52602260045260245ffd5b90607f16906100ed565b634e487b7160e01b5f52604160045260245ffd5b015190505f806100b8565b601f198216935f8052805f20915f5b8681106102eb57508360019596106102d3575b505050811b015f556100cc565b01515f1960f88460031b161c191690555f80806102c6565b919260206001819286850151815501940192016102b3565b5f80527f290decd9548b62a8d60345a988386fc84ba6bc95484008f6362f93160ef3e563601f830160051c8101916020841061035b575b601f0160051c01905b818110610350575061009e565b5f8155600101610343565b909150819061033a565b90607f169061008c565b5f80fdfe6080806040526004361015610012575f80fd5b5f905f3560e01c90816301ba169a14610d5c5750806301ffc9a714610cd457806306fdde0314610c1c578063081812fc14610be0578063095ea7b314610af657806318160ddd14610ad95780631d96e07714610a8d57806323b872dd14610a76578063289c93b514610a2a5780632f745c59146109b857806340c10f191461093057806342842e0e146109075780634f6ccce7146108b9578063547ebecb146108915780636352211e1461086157806370a0823114610836578063715018a6146107db57806382e13bf8146107925780638da5cb5b1461076a57806395d89b4114610662578063a22cb465146105c7578063b88d4fde1461053d578063c87b56dd146104e0578063c97336f3146103f5578063d405706d1461039e578063d9ec55ab146102e9578063e985e9c514610291578063f2fde38b146102085763fc23c5dc1461015d575f80fd5b346102055760203660031901126102055760408160a0926080835161018181610e09565b828152826020820152828582015282606082015201526004358152600b602052206040516101ae81610e09565b81549182825260018101546020830190815260028201549060408401918252608060046003850154946060870195865201549401938452604051948552516020850152516040840152516060830152516080820152f35b80fd5b503461020557602036600319011261020557610222610da3565b61022a611348565b6001600160a01b0316801561027d57600a80546001600160a01b0319811683179091556001600160a01b03167f8be0079c531659141344cd1fd0a4f28419497f9722a3daafe3b4186f6b6457e05f80a380f35b631e4fbdf760e01b82526004829052602482fd5b50346102055760403660031901126102055760406102ad610da3565b916102b6610db9565b9260018060a01b031681526005602052209060018060a01b03165f52602052602060ff60405f2054166040519015158152f35b503461020557602036600319011261020557600d546001600160a01b0316330361034357600480358252600b602052604082200180545f19811461032f57600101905580f35b634e487b7160e01b83526011600452602483fd5b60405162461bcd60e51b815260206004820152602d60248201527f4f6e6c79207468652050726f706572747920496e74657265737420506f6f6c2060448201526c63616e2063616c6c207468697360981b6064820152608490fd5b503461020557602036600319011261020557604060a0916004358152600b60205220805490600181015490600281015460046003830154920154926040519485526020850152604084015260608301526080820152f35b5034610205578060031936011261020557338152600260205260408120546001600160a01b03166104835761042a333361136f565b60405161043681610e09565b606481526004602082018381526040830184815260608401908582526080850192868452338752600b60205260408720955186555160018601555160028501555160038401555191015580f35b60405162461bcd60e51b815260206004820152602f60248201527f54656e616e742050617373706f727420616c726561647920657869737473206660448201526e6f722074686973206164647265737360881b6064820152608490fd5b34610539576020366003190112610539576104fc600435611314565b505f60405161050c602082610e39565b5261053560405161051e602082610e39565b5f8152604051918291602083526020830190610d7f565b0390f35b5f80fd5b3461053957608036600319011261053957610556610da3565b61055e610db9565b6064359167ffffffffffffffff831161053957366023840112156105395782600401359161058b83610e5b565b926105996040519485610e39565b8084523660248287010111610539576020815f9260246105c598018388013785010152604435916111d4565b005b34610539576040366003190112610539576105e0610da3565b60243590811515809203610539576001600160a01b031690811561064f57335f52600560205260405f20825f5260205260405f2060ff1981541660ff83161790556040519081527f17307eab39ab6107e8899845ad3d59bd9653f200f220920489ca2b5937696c3160203392a3005b50630b61174360e31b5f5260045260245ffd5b34610539575f366003190112610539576040515f6001548060011c90600181168015610760575b60208310811461074c5782855290811561072857506001146106ca575b610535836106b681850382610e39565b604051918291602083526020830190610d7f565b91905060015f527fb10e2d527612073b26eecdfd717e6a320cf44b4afac2b0732d9fcbe2b7fa0cf6915f905b80821061070e575090915081016020016106b66106a6565b9192600181602092548385880101520191019092916106f6565b60ff191660208086019190915291151560051b840190910191506106b690506106a6565b634e487b7160e01b5f52602260045260245ffd5b91607f1691610689565b34610539575f36600319011261053957600a546040516001600160a01b039091168152602090f35b346105395760a0366003190112610539576004356107ae611348565b5f908152600b60205260409020602435815560443560018201556064356002820155608435600390910155005b34610539575f366003190112610539576107f3611348565b600a80546001600160a01b031981169091555f906001600160a01b03167f8be0079c531659141344cd1fd0a4f28419497f9722a3daafe3b4186f6b6457e08280a3005b34610539576020366003190112610539576020610859610854610da3565b6111a3565b604051908152f35b3461053957602036600319011261053957602061087f600435611314565b6040516001600160a01b039091168152f35b34610539575f36600319011261053957600c546040516001600160a01b039091168152602090f35b34610539576020366003190112610539576004356008548110156108f1576108e2602091611177565b90549060031b1c604051908152f35b63295f44f760e21b5f525f60045260245260445ffd5b34610539576105c561091836610dcf565b9060405192610928602085610e39565b5f84526111d4565b3461053957604036600319011261053957610949610da3565b61095e6024358092610959611348565b61136f565b60046040519161096d83610e09565b60648352602083015f8152604084015f815260608501915f835260808601935f85525f52600b60205260405f2095518655516001860155516002850155516003840155519101555f80f35b34610539576040366003190112610539576109d1610da3565b602435906109de816111a3565b821015610a0d5760018060a01b03165f52600660205260405f20905f52602052602060405f2054604051908152f35b63295f44f760e21b5f5260018060a01b031660045260245260445ffd5b3461053957602036600319011261053957610a43610da3565b610a4b611348565b6001600160a01b0316610a5f811515610e77565b6001600160601b0360a01b600c541617600c555f80f35b34610539576105c5610a8736610dcf565b91610eb5565b3461053957602036600319011261053957610aa6610da3565b610aae611348565b6001600160a01b0316610ac2811515610e77565b6001600160601b0360a01b600d541617600d555f80f35b34610539575f366003190112610539576020600854604051908152f35b3461053957604036600319011261053957610b0f610da3565b602435610b1b81611314565b33151580610bcd575b80610ba0575b610b8d5781906001600160a01b0384811691167f8c5be1e5ebec7d5bd14f71427d1e84f3dd0314c0f7b2291e5b200ac8c7c3b9255f80a45f90815260046020526040902080546001600160a01b0319166001600160a01b03909216919091179055005b63a9fbf51f60e01b5f523360045260245ffd5b506001600160a01b0381165f90815260056020908152604080832033845290915290205460ff1615610b2a565b506001600160a01b038116331415610b24565b3461053957602036600319011261053957600435610bfd81611314565b505f526004602052602060018060a01b0360405f205416604051908152f35b34610539575f366003190112610539576040515f5f548060011c90600181168015610cca575b60208310811461074c578285529081156107285750600114610c6e57610535836106b681850382610e39565b5f8080527f290decd9548b62a8d60345a988386fc84ba6bc95484008f6362f93160ef3e563939250905b808210610cb0575090915081016020016106b66106a6565b919260018160209254838588010152019101909291610c98565b91607f1691610c42565b346105395760203660031901126105395760043563ffffffff60e01b81168091036105395760209063780e9d6360e01b8114908115610d19575b506040519015158152f35b6380ac58cd60e01b811491508115610d4b575b8115610d3a575b5082610d0e565b6301ffc9a760e01b14905082610d33565b635b5e139f60e01b81149150610d2c565b34610539575f36600319011261053957600d546001600160a01b03168152602090f35b805180835260209291819084018484015e5f828201840152601f01601f1916010190565b600435906001600160a01b038216820361053957565b602435906001600160a01b038216820361053957565b6060906003190112610539576004356001600160a01b038116810361053957906024356001600160a01b0381168103610539579060443590565b60a0810190811067ffffffffffffffff821117610e2557604052565b634e487b7160e01b5f52604160045260245ffd5b90601f8019910116810190811067ffffffffffffffff821117610e2557604052565b67ffffffffffffffff8111610e2557601f01601f191660200190565b15610e7e57565b60405162461bcd60e51b815260206004820152600f60248201526e496e76616c6964206164647265737360881b6044820152606490fd5b9091906001600160a01b0383168015611164575f838152600260205260409020546001600160a01b031693331515806110d4575b50841580156110a1575b825f52600360205260405f2060018154019055845f52600260205260405f20836001600160601b0360a01b8254161790558483877fddf252ad1be2c89b69c2b068fc378daa952ba7f163c4a11628f55a4df523b3ef5f80a41561102457600854845f5260096020528060405f2055600160401b811015610e255784610f81826001610f999401600855611177565b90919082549060031b91821b915f19901b1916179055565b818503610fd0575b50506001600160a01b0316808303610fb857505050565b6364283d7b60e01b5f5260045260245260445260645ffd5b610fd9906111a3565b5f19810191908211611010575f52600660205260405f20815f526020528260405f2055825f52600760205260405f20555f80610fa1565b634e487b7160e01b5f52601160045260245ffd5b848214610f9957611034856111a3565b845f52600760205260405f205490865f52600660205260405f2091818103611076575b50855f5260076020525f60408120555f526020525f6040812055610f99565b815f528260205260405f2054815f52836020528060405f20555f52600760205260405f20555f611057565b5f85815260046020526040902080546001600160a01b0319169055855f52600360205260405f205f198154019055610ef3565b80611113575b156110e5575f610ee9565b83856110fd57637e27328960e01b5f5260045260245ffd5b63177e802f60e01b5f523360045260245260445ffd5b503385148015611142575b806110da57505f848152600460205260409020546001600160a01b031633146110da565b505f85815260056020908152604080832033845290915290205460ff1661111e565b633250574960e11b5f525f60045260245ffd5b60085481101561118f5760085f5260205f2001905f90565b634e487b7160e01b5f52603260045260245ffd5b6001600160a01b031680156111c1575f52600360205260405f205490565b6322718ad960e21b5f525f60045260245ffd5b92916111e1818386610eb5565b813b6111ee575b50505050565b604051630a85bd0160e11b81523360048201526001600160a01b0394851660248201526044810191909152608060648201529216919060209082908190611239906084830190610d7f565b03815f865af15f91816112cf575b5061129c57503d15611295573d61125d81610e5b565b9061126b6040519283610e39565b81523d5f602083013e5b805190816112905782633250574960e11b5f5260045260245ffd5b602001fd5b6060611275565b6001600160e01b03191663757a42ff60e11b016112bd57505f8080806111e8565b633250574960e11b5f5260045260245ffd5b9091506020813d60201161130c575b816112eb60209383610e39565b8101031261053957516001600160e01b03198116810361053957905f611247565b3d91506112de565b5f818152600260205260409020546001600160a01b0316908115611336575090565b637e27328960e01b5f5260045260245ffd5b600a546001600160a01b0316330361135c57565b63118cdaa760e01b5f523360045260245ffd5b906001600160a01b0382168015611164575f828152600260205260409020546001600160a01b031680158015949193919085611516575b835f52600360205260405f2060018154019055825f52600260205260405f20846001600160601b0360a01b8254161790558284867fddf252ad1be2c89b69c2b068fc378daa952ba7f163c4a11628f55a4df523b3ef5f80a41561149957600854825f5260096020528060405f2055600160401b811015610e255782610f818260016114349401600855611177565b828403611459575b5050505061144657565b6339e3563760e11b5f525f60045260245ffd5b611462906111a3565b5f19810192908311611010575f52600660205260405f20825f526020528060405f20555f52600760205260405f20555f808061143c565b838314611434576114a9846111a3565b825f52600760205260405f205490855f52600660205260405f20918181036114eb575b50835f5260076020525f60408120555f526020525f6040812055611434565b815f528260205260405f2054815f52836020528060405f20555f52600760205260405f20555f6114cc565b5f83815260046020526040902080546001600160a01b0319169055845f52600360205260405f205f1981540190556113a656fea2646970667358221220ca1cde040b884df78329504479978b673ca96f43fcf81ca8bf6d54c898a49ccc64736f6c634300081e0033","linkReferences":{}},"methodIdentifiers":{"approve(address,uint256)":"095ea7b3","balanceOf(address)":"70a08231","getApproved(uint256)":"081812fc","getTenantInfo(uint256)":"fc23c5dc","incrementPropertiesOwned(uint256)":"d9ec55ab","isApprovedForAll(address,address)":"e985e9c5","mint(address,uint256)":"40c10f19","mintForSelf()":"c97336f3","name()":"06fdde03","owner()":"8da5cb5b","ownerOf(uint256)":"6352211e","propertyInterestPoolAddress()":"01ba169a","renounceOwnership()":"715018a6","rentalAgreementAddress()":"547ebecb","safeTransferFrom(address,address,uint256)":"42842e0e","safeTransferFrom(address,address,uint256,bytes)":"b88d4fde","setApprovalForAll(address,bool)":"a22cb465","setPropertyInterestPoolAddress(address)":"1d96e077","setRentalAgreementAddress(address)":"289c93b5","supportsInterface(bytes4)":"01ffc9a7","symbol()":"95d89b41","tenantInfo(uint256)":"d405706d","tokenByIndex(uint256)":"4f6ccce7","tokenOfOwnerByIndex(address,uint256)":"2f745c59","tokenURI(uint256)":"c87b56dd","totalSupply()":"18160ddd","transferFrom(address,address,uint256)":"23b872dd","transferOwnership(address)":"f2fde38b","updateTenantInfo(uint256,uint256,uint256,uint256,uint256)":"82e13bf8"},"id":42}