{"abi":[{"type":"constructor","inputs":[{"name":"initialOwner","type":"address","internalType":"address"}],"stateMutability":"nonpayable"},{"type":"function","name":"approve","inputs":[{"name":"to","type":"address","internalType":"address"},{"name":"tokenId","type":"uint256","internalType":"uint256"}],"outputs":[],"stateMutability":"nonpayable"},{"type":"function","name":"balanceOf","inputs":[{"name":"owner","type":"address","internalType":"address"}],"outputs":[{"name":"","type":"uint256","internalType":"uint256"}],"stateMutability":"view"},{"type":"function","name":"getApproved","inputs":[{"name":"tokenId","type":"uint256","internalType":"uint256"}],"outputs":[{"name":"","type":"address","internalType":"address"}],"stateMutability":"view"},{"type":"function","name":"getTenantInfo","inputs":[{"name":"tokenId","type":"uint256","internalType":"uint256"}],"outputs":[{"name":"","type":"tuple","internalType":"struct TenantPassport.TenantInfo","components":[{"name":"reputation","type":"uint32","internalType":"uint32"},{"name":"paymentsMade","type":"uint32","internalType":"uint32"},{"name":"paymentsMissed","type":"uint32","internalType":"uint32"},{"name":"propertiesOwned","type":"uint32","internalType":"uint32"},{"name":"outstandingBalance","type":"uint256","internalType":"uint256"}]}],"stateMutability":"view"},{"type":"function","name":"incrementPropertiesOwned","inputs":[{"name":"tokenId","type":"uint256","internalType":"uint256"}],"outputs":[],"stateMutability":"nonpayable"},{"type":"function","name":"isApprovedForAll","inputs":[{"name":"owner","type":"address","internalType":"address"},{"name":"operator","type":"address","internalType":"address"}],"outputs":[{"name":"","type":"bool","internalType":"bool"}],"stateMutability":"view"},{"type":"function","name":"mintForSelf","inputs":[],"outputs":[],"stateMutability":"nonpayable"},{"type":"function","name":"name","inputs":[],"outputs":[{"name":"","type":"string","internalType":"string"}],"stateMutability":"view"},{"type":"function","name":"owner","inputs":[],"outputs":[{"name":"","type":"address","internalType":"address"}],"stateMutability":"view"},{"type":"function","name":"ownerOf","inputs":[{"name":"tokenId","type":"uint256","internalType":"uint256"}],"outputs":[{"name":"","type":"address","internalType":"address"}],"stateMutability":"view"},{"type":"function","name":"propertyInterestPoolAddress","inputs":[],"outputs":[{"name":"","type":"address","internalType":"address"}],"stateMutability":"view"},{"type":"function","name":"renounceOwnership","inputs":[],"outputs":[],"stateMutability":"nonpayable"},{"type":"function","name":"rentalAgreementAddress","inputs":[],"outputs":[{"name":"","type":"address","internalType":"address"}],"stateMutability":"view"},{"type":"function","name":"safeTransferFrom","inputs":[{"name":"from","type":"address","internalType":"address"},{"name":"to","type":"address","internalType":"address"},{"name":"tokenId","type":"uint256","internalType":"uint256"}],"outputs":[],"stateMutability":"nonpayable"},{"type":"function","name":"safeTransferFrom","inputs":[{"name":"from","type":"address","internalType":"address"},{"name":"to","type":"address","internalType":"address"},{"name":"tokenId","type":"uint256","internalType":"uint256"},{"name":"data","type":"bytes","internalType":"bytes"}],"outputs":[],"stateMutability":"nonpayable"},{"type":"function","name":"setApprovalForAll","inputs":[{"name":"operator","type":"address","internalType":"address"},{"name":"approved","type":"bool","internalType":"bool"}],"outputs":[],"stateMutability":"nonpayable"},{"type":"function","name":"setPropertyInterestPoolAddress","inputs":[{"name":"_poolAddress","type":"address","internalType":"address"}],"outputs":[],"stateMutability":"nonpayable"},{"type":"function","name":"setRentalAgreementAddress","inputs":[{"name":"_rentalAgreementAddress","type":"address","internalType":"address"}],"outputs":[],"stateMutability":"nonpayable"},{"type":"function","name":"supportsInterface","inputs":[{"name":"interfaceId","type":"bytes4","internalType":"bytes4"}],"outputs":[{"name":"","type":"bool","internalType":"bool"}],"stateMutability":"view"},{"type":"function","name":"symbol","inputs":[],"outputs":[{"name":"","type":"string","internalType":"string"}],"stateMutability":"view"},{"type":"function","name":"tenantInfo","inputs":[{"name":"","type":"uint256","internalType":"uint256"}],"outputs":[{"name":"reputation","type":"uint32","internalType":"uint32"},{"name":"paymentsMade","type":"uint32","internalType":"uint32"},{"name":"paymentsMissed","type":"uint32","internalType":"uint32"},{"name":"propertiesOwned","type":"uint32","internalType":"uint32"},{"name":"outstandingBalance","type":"uint256","internalType":"uint256"}],"stateMutability":"view"},{"type":"function","name":"tokenByIndex","inputs":[{"name":"index","type":"uint256","internalType":"uint256"}],"outputs":[{"name":"","type":"uint256","internalType":"uint256"}],"stateMutability":"view"},{"type":"function","name":"tokenOfOwnerByIndex","inputs":[{"name":"owner","type":"address","internalType":"address"},{"name":"index","type":"uint256","internalType":"uint256"}],"outputs":[{"name":"","type":"uint256","internalType":"uint256"}],"stateMutability":"view"},{"type":"function","name":"tokenURI","inputs":[{"name":"tokenId","type":"uint256","internalType":"uint256"}],"outputs":[{"name":"","type":"string","internalType":"string"}],"stateMutability":"view"},{"type":"function","name":"totalSupply","inputs":[],"outputs":[{"name":"","type":"uint256","internalType":"uint256"}],"stateMutability":"view"},{"type":"function","name":"transferFrom","inputs":[{"name":"from","type":"address","internalType":"address"},{"name":"to","type":"address","internalType":"address"},{"name":"tokenId","type":"uint256","internalType":"uint256"}],"outputs":[],"stateMutability":"nonpayable"},{"type":"function","name":"transferOwnership","inputs":[{"name":"newOwner","type":"address","internalType":"address"}],"outputs":[],"stateMutability":"nonpayable"},{"type":"function","name":"updateTenantInfo","inputs":[{"name":"tokenId","type":"uint256","internalType":"uint256"},{"name":"newReputation","type":"uint32","internalType":"uint32"},{"name":"paymentsMade","type":"uint32","internalType":"uint32"},{"name":"paymentsMissed","type":"uint32","internalType":"uint32"},{"name":"outstandingBalance","type":"uint256","internalType":"uint256"}],"outputs":[],"stateMutability":"nonpayable"},{"type":"event","name":"Approval","inputs":[{"name":"owner","type":"address","indexed":true,"internalType":"address"},{"name":"approved","type":"address","indexed":true,"internalType":"address"},{"name":"tokenId","type":"uint256","indexed":true,"internalType":"uint256"}],"anonymous":false},{"type":"event","name":"ApprovalForAll","inputs":[{"name":"owner","type":"address","indexed":true,"internalType":"address"},{"name":"operator","type":"address","indexed":true,"internalType":"address"},{"name":"approved","type":"bool","indexed":false,"internalType":"bool"}],"anonymous":false},{"type":"event","name":"OwnershipTransferred","inputs":[{"name":"previousOwner","type":"address","indexed":true,"internalType":"address"},{"name":"newOwner","type":"address","indexed":true,"internalType":"address"}],"anonymous":false},{"type":"event","name":"Transfer","inputs":[{"name":"from","type":"address","indexed":true,"internalType":"address"},{"name":"to","type":"address","indexed":true,"internalType":"address"},{"name":"tokenId","type":"uint256","indexed":true,"internalType":"uint256"}],"anonymous":false},{"type":"error","name":"ERC721EnumerableForbiddenBatchMint","inputs":[]},{"type":"error","name":"ERC721IncorrectOwner","inputs":[{"name":"sender","type":"address","internalType":"address"},{"name":"tokenId","type":"uint256","internalType":"uint256"},{"name":"owner","type":"address","internalType":"address"}]},{"type":"error","name":"ERC721InsufficientApproval","inputs":[{"name":"operator","type":"address","internalType":"address"},{"name":"tokenId","type":"uint256","internalType":"uint256"}]},{"type":"error","name":"ERC721InvalidApprover","inputs":[{"name":"approver","type":"address","internalType":"address"}]},{"type":"error","name":"ERC721InvalidOperator","inputs":[{"name":"operator","type":"address","internalType":"address"}]},{"type":"error","name":"ERC721InvalidOwner","inputs":[{"name":"owner","type":"address","internalType":"address"}]},{"type":"error","name":"ERC721InvalidReceiver","inputs":[{"name":"receiver","type":"address","internalType":"address"}]},{"type":"error","name":"ERC721InvalidSender","inputs":[{"name":"sender","type":"address","internalType":"address"}]},{"type":"error","name":"ERC721NonexistentToken","inputs":[{"name":"tokenId","type":"uint256","internalType":"uint256"}]},{"type":"error","name":"ERC721OutOfBoundsIndex","inputs":[{"name":"owner","type":"address","internalType":"address"},{"name":"index","type":"uint256","internalType":"uint256"}]},{"type":"error","name":"OwnableInvalidOwner","inputs":[{"name":"owner","type":"address","internalType":"address"}]},{"type":"error","name":"OwnableUnauthorizedAccount","inputs":[{"name":"account","type":"address","internalType":"address"}]}],"bytecode":{"object":"0x608060405234801561000f575f5ffd5b50604051611d13380380611d1383398101604081905261002e9161011e565b806040518060400160405280600f81526020016e15195b985b9d0814185cdcdc1bdc9d608a1b81525060405180604001604052806002815260200161054560f41b815250815f908161008091906101e3565b50600161008d82826101e3565b5050506001600160a01b0381166100bd57604051631e4fbdf760e01b81525f600482015260240160405180910390fd5b6100c6816100cd565b505061029d565b600a80546001600160a01b038381166001600160a01b0319831681179093556040519116919082907f8be0079c531659141344cd1fd0a4f28419497f9722a3daafe3b4186f6b6457e0905f90a35050565b5f6020828403121561012e575f5ffd5b81516001600160a01b0381168114610144575f5ffd5b9392505050565b634e487b7160e01b5f52604160045260245ffd5b600181811c9082168061017357607f821691505b60208210810361019157634e487b7160e01b5f52602260045260245ffd5b50919050565b601f8211156101de57805f5260205f20601f840160051c810160208510156101bc5750805b601f840160051c820191505b818110156101db575f81556001016101c8565b50505b505050565b81516001600160401b038111156101fc576101fc61014b565b6102108161020a845461015f565b84610197565b6020601f821160018114610242575f831561022b5750848201515b5f19600385901b1c1916600184901b1784556101db565b5f84815260208120601f198516915b828110156102715787850151825560209485019460019092019101610251565b508482101561028e57868401515f19600387901b60f8161c191681555b50505050600190811b01905550565b611a69806102aa5f395ff3fe608060405234801561000f575f5ffd5b50600436106101bb575f3560e01c80636352211e116100f3578063c87b56dd11610093578063d9ec55ab1161006e578063d9ec55ab14610409578063e985e9c51461041c578063f2fde38b1461042f578063fc23c5dc14610442575f5ffd5b8063c87b56dd14610366578063c97336f314610379578063d405706d14610381575f5ffd5b80638da5cb5b116100ce5780638da5cb5b1461032757806395d89b4114610338578063a22cb46514610340578063b88d4fde14610353575f5ffd5b80636352211e146102f957806370a082311461030c578063715018a61461031f575f5ffd5b806323b872dd1161015e57806336f716301161013957806336f71630146102ad57806342842e0e146102c05780634f6ccce7146102d3578063547ebecb146102e6575f5ffd5b806323b872dd14610274578063289c93b5146102875780632f745c591461029a575f5ffd5b8063081812fc11610199578063081812fc14610227578063095ea7b31461023a57806318160ddd1461024f5780631d96e07714610261575f5ffd5b806301ba169a146101bf57806301ffc9a7146101ef57806306fdde0314610212575b5f5ffd5b600d546101d2906001600160a01b031681565b6040516001600160a01b0390911681526020015b60405180910390f35b6102026101fd36600461163f565b610536565b60405190151581526020016101e6565b61021a610546565b6040516101e69190611688565b6101d261023536600461169a565b6105d5565b61024d6102483660046116cc565b6105fc565b005b6008545b6040519081526020016101e6565b61024d61026f3660046116f4565b61060b565b61024d61028236600461170d565b610685565b61024d6102953660046116f4565b61070e565b6102536102a83660046116cc565b610783565b61024d6102bb36600461175a565b6107e6565b61024d6102ce36600461170d565b6108ad565b6102536102e136600461169a565b6108cc565b600c546101d2906001600160a01b031681565b6101d261030736600461169a565b610921565b61025361031a3660046116f4565b61092b565b61024d610970565b600a546001600160a01b03166101d2565b61021a610983565b61024d61034e3660046117ab565b610992565b61024d6103613660046117f8565b61099d565b61021a61037436600461169a565b6109b5565b61024d610a26565b6103d161038f36600461169a565b600b6020525f90815260409020805460019091015463ffffffff808316926401000000008104821692600160401b8204831692600160601b9092049091169085565b6040805163ffffffff96871681529486166020860152928516928401929092529092166060820152608081019190915260a0016101e6565b61024d61041736600461169a565b610b39565b61020261042a3660046118d5565b610bf0565b61024d61043d3660046116f4565b610c1d565b6104dd61045036600461169a565b6040805160a0810182525f80825260208201819052918101829052606081018290526080810191909152505f908152600b6020908152604091829020825160a081018452815463ffffffff80821683526401000000008204811694830194909452600160401b8104841694820194909452600160601b909304909116606083015260010154608082015290565b6040516101e691905f60a08201905063ffffffff835116825263ffffffff602084015116602083015263ffffffff604084015116604083015263ffffffff60608401511660608301526080830151608083015292915050565b5f61054082610c5a565b92915050565b60605f805461055490611906565b80601f016020809104026020016040519081016040528092919081815260200182805461058090611906565b80156105cb5780601f106105a2576101008083540402835291602001916105cb565b820191905f5260205f20905b8154815290600101906020018083116105ae57829003601f168201915b5050505050905090565b5f6105df82610c7e565b505f828152600460205260409020546001600160a01b0316610540565b610607828233610cb6565b5050565b610613610cc3565b6001600160a01b0381166106635760405162461bcd60e51b8152602060048201526012602482015271446972656363696f6e20696e76616c69646160701b60448201526064015b60405180910390fd5b600d80546001600160a01b0319166001600160a01b0392909216919091179055565b6001600160a01b0382166106ae57604051633250574960e11b81525f600482015260240161065a565b5f6106ba838333610cf0565b9050836001600160a01b0316816001600160a01b031614610708576040516364283d7b60e01b81526001600160a01b038086166004830152602482018490528216604482015260640161065a565b50505050565b610716610cc3565b6001600160a01b0381166107615760405162461bcd60e51b8152602060048201526012602482015271446972656363696f6e20696e76616c69646160701b604482015260640161065a565b600c80546001600160a01b0319166001600160a01b0392909216919091179055565b5f61078d8361092b565b82106107be5760405163295f44f760e21b81526001600160a01b03841660048201526024810183905260440161065a565b506001600160a01b03919091165f908152600660209081526040808320938352929052205490565b600c546001600160a01b031633146108515760405162461bcd60e51b815260206004820152602860248201527f416363696f6e20736f6c6f207061726120756e20436f6e747261746f2064652060448201526720b638bab4b632b960c11b606482015260840161065a565b5f948552600b6020526040909420805463ffffffff94851667ffffffffffffffff199091161764010000000093851693909302929092176bffffffff00000000000000001916600160401b919093160291909117815560010155565b6108c783838360405180602001604052805f81525061099d565b505050565b5f6108d660085490565b82106108fe5760405163295f44f760e21b81525f60048201526024810183905260440161065a565b600882815481106109115761091161193e565b905f5260205f2001549050919050565b5f61054082610c7e565b5f6001600160a01b038216610955576040516322718ad960e21b81525f600482015260240161065a565b506001600160a01b03165f9081526003602052604090205490565b610978610cc3565b6109815f610d04565b565b60606001805461055490611906565b610607338383610d55565b6109a8848484610685565b6107083385858585610df3565b60606109c082610c7e565b505f6109d660408051602081019091525f815290565b90505f8151116109f45760405180602001604052805f815250610a1f565b806109fe84610f1b565b604051602001610a0f929190611969565b6040516020818303038152906040525b9392505050565b335f610a3182610921565b6001600160a01b031614610a805760405162461bcd60e51b81526020600482015260166024820152755961207469656e657320756e2070617361706f72746560501b604482015260640161065a565b610a8a3382610fab565b6040805160a081018252606481525f60208083018281528385018381526060850184815260808601858152978552600b909352949092209251835492519451915163ffffffff908116600160601b0263ffffffff60601b19938216600160401b02939093166fffffffffffffffff0000000000000000199682166401000000000267ffffffffffffffff1990951692909116919091179290921793909316179190911781559051600190910155565b600d546001600160a01b03163314610ba65760405162461bcd60e51b815260206004820152602a60248201527f416363696f6e20736f6c6f207061726120656c2050726f706572747920496e74604482015269195c995cdd08141bdbdb60b21b606482015260840161065a565b5f818152600b602052604090208054600160601b900463ffffffff1690600c610bce83611991565b91906101000a81548163ffffffff021916908363ffffffff1602179055505050565b6001600160a01b039182165f90815260056020908152604080832093909416825291909152205460ff1690565b610c25610cc3565b6001600160a01b038116610c4e57604051631e4fbdf760e01b81525f600482015260240161065a565b610c5781610d04565b50565b5f6001600160e01b0319821663780e9d6360e01b148061054057506105408261100c565b5f818152600260205260408120546001600160a01b03168061054057604051637e27328960e01b81526004810184905260240161065a565b6108c7838383600161105b565b600a546001600160a01b031633146109815760405163118cdaa760e01b815233600482015260240161065a565b5f610cfc84848461115f565b949350505050565b600a80546001600160a01b038381166001600160a01b0319831681179093556040519116919082907f8be0079c531659141344cd1fd0a4f28419497f9722a3daafe3b4186f6b6457e0905f90a35050565b6001600160a01b038216610d8757604051630b61174360e31b81526001600160a01b038316600482015260240161065a565b6001600160a01b038381165f81815260056020908152604080832094871680845294825291829020805460ff191686151590811790915591519182527f17307eab39ab6107e8899845ad3d59bd9653f200f220920489ca2b5937696c31910160405180910390a3505050565b6001600160a01b0383163b15610f1457604051630a85bd0160e11b81526001600160a01b0384169063150b7a0290610e359088908890879087906004016119b5565b6020604051808303815f875af1925050508015610e6f575060408051601f3d908101601f19168201909252610e6c918101906119f1565b60015b610ed6573d808015610e9c576040519150601f19603f3d011682016040523d82523d5f602084013e610ea1565b606091505b5080515f03610ece57604051633250574960e11b81526001600160a01b038516600482015260240161065a565b805160208201fd5b6001600160e01b03198116630a85bd0160e11b14610f1257604051633250574960e11b81526001600160a01b038516600482015260240161065a565b505b5050505050565b60605f610f278361122a565b60010190505f8167ffffffffffffffff811115610f4657610f466117e4565b6040519080825280601f01601f191660200182016040528015610f70576020820181803683370190505b5090508181016020015b5f19016f181899199a1a9b1b9c1cb0b131b232b360811b600a86061a8153600a8504945084610f7a57509392505050565b6001600160a01b038216610fd457604051633250574960e11b81525f600482015260240161065a565b5f610fe083835f610cf0565b90506001600160a01b038116156108c7576040516339e3563760e11b81525f600482015260240161065a565b5f6001600160e01b031982166380ac58cd60e01b148061103c57506001600160e01b03198216635b5e139f60e01b145b8061054057506301ffc9a760e01b6001600160e01b0319831614610540565b808061106f57506001600160a01b03821615155b15611130575f61107e84610c7e565b90506001600160a01b038316158015906110aa5750826001600160a01b0316816001600160a01b031614155b80156110bd57506110bb8184610bf0565b155b156110e65760405163a9fbf51f60e01b81526001600160a01b038416600482015260240161065a565b811561112e5783856001600160a01b0316826001600160a01b03167f8c5be1e5ebec7d5bd14f71427d1e84f3dd0314c0f7b2291e5b200ac8c7c3b92560405160405180910390a45b505b50505f90815260046020526040902080546001600160a01b0319166001600160a01b0392909216919091179055565b5f5f61116c858585611301565b90506001600160a01b0381166111c8576111c384600880545f838152600960205260408120829055600182018355919091527ff3f7a9fe364faab93b216da50a3214154f22a0a2b415b23a84c8169e8b636ee30155565b6111eb565b846001600160a01b0316816001600160a01b0316146111eb576111eb81856113f3565b6001600160a01b0385166112075761120284611470565b610cfc565b846001600160a01b0316816001600160a01b031614610cfc57610cfc8585611517565b5f8072184f03e93ff9f4daa797ed6e38ed64bf6a1f0160401b83106112685772184f03e93ff9f4daa797ed6e38ed64bf6a1f0160401b830492506040015b6d04ee2d6d415b85acef81000000008310611294576d04ee2d6d415b85acef8100000000830492506020015b662386f26fc1000083106112b257662386f26fc10000830492506010015b6305f5e10083106112ca576305f5e100830492506008015b61271083106112de57612710830492506004015b606483106112f0576064830492506002015b600a83106105405760010192915050565b5f828152600260205260408120546001600160a01b039081169083161561132d5761132d818486611565565b6001600160a01b03811615611367576113485f855f5f61105b565b6001600160a01b0381165f90815260036020526040902080545f190190555b6001600160a01b03851615611395576001600160a01b0385165f908152600360205260409020805460010190555b5f8481526002602052604080822080546001600160a01b0319166001600160a01b0389811691821790925591518793918516917fddf252ad1be2c89b69c2b068fc378daa952ba7f163c4a11628f55a4df523b3ef91a4949350505050565b5f6113fd8361092b565b5f838152600760209081526040808320546001600160a01b0388168452600690925290912091925090818314611452575f83815260208281526040808320548584528184208190558352600790915290208290555b5f938452600760209081526040808620869055938552525081205550565b6008545f9061148190600190611a0c565b5f83815260096020526040812054600880549394509092849081106114a8576114a861193e565b905f5260205f200154905080600883815481106114c7576114c761193e565b5f9182526020808320909101929092558281526009909152604080822084905585825281205560088054806114fe576114fe611a1f565b600190038181905f5260205f20015f9055905550505050565b5f60016115238461092b565b61152d9190611a0c565b6001600160a01b039093165f908152600660209081526040808320868452825280832085905593825260079052919091209190915550565b6115708383836115c9565b6108c7576001600160a01b03831661159e57604051637e27328960e01b81526004810182905260240161065a565b60405163177e802f60e01b81526001600160a01b03831660048201526024810182905260440161065a565b5f6001600160a01b03831615801590610cfc5750826001600160a01b0316846001600160a01b0316148061160257506116028484610bf0565b80610cfc5750505f908152600460205260409020546001600160a01b03908116911614919050565b6001600160e01b031981168114610c57575f5ffd5b5f6020828403121561164f575f5ffd5b8135610a1f8161162a565b5f81518084528060208401602086015e5f602082860101526020601f19601f83011685010191505092915050565b602081525f610a1f602083018461165a565b5f602082840312156116aa575f5ffd5b5035919050565b80356001600160a01b03811681146116c7575f5ffd5b919050565b5f5f604083850312156116dd575f5ffd5b6116e6836116b1565b946020939093013593505050565b5f60208284031215611704575f5ffd5b610a1f826116b1565b5f5f5f6060848603121561171f575f5ffd5b611728846116b1565b9250611736602085016116b1565b929592945050506040919091013590565b803563ffffffff811681146116c7575f5ffd5b5f5f5f5f5f60a0868803121561176e575f5ffd5b8535945061177e60208701611747565b935061178c60408701611747565b925061179a60608701611747565b949793965091946080013592915050565b5f5f604083850312156117bc575f5ffd5b6117c5836116b1565b9150602083013580151581146117d9575f5ffd5b809150509250929050565b634e487b7160e01b5f52604160045260245ffd5b5f5f5f5f6080858703121561180b575f5ffd5b611814856116b1565b9350611822602086016116b1565b925060408501359150606085013567ffffffffffffffff811115611844575f5ffd5b8501601f81018713611854575f5ffd5b803567ffffffffffffffff81111561186e5761186e6117e4565b604051601f8201601f19908116603f0116810167ffffffffffffffff8111828210171561189d5761189d6117e4565b6040528181528282016020018910156118b4575f5ffd5b816020840160208301375f6020838301015280935050505092959194509250565b5f5f604083850312156118e6575f5ffd5b6118ef836116b1565b91506118fd602084016116b1565b90509250929050565b600181811c9082168061191a57607f821691505b60208210810361193857634e487b7160e01b5f52602260045260245ffd5b50919050565b634e487b7160e01b5f52603260045260245ffd5b5f81518060208401855e5f93019283525090919050565b5f610cfc6119778386611952565b84611952565b634e487b7160e01b5f52601160045260245ffd5b5f63ffffffff821663ffffffff81036119ac576119ac61197d565b60010192915050565b6001600160a01b03858116825284166020820152604081018390526080606082018190525f906119e79083018461165a565b9695505050505050565b5f60208284031215611a01575f5ffd5b8151610a1f8161162a565b818103818111156105405761054061197d565b634e487b7160e01b5f52603160045260245ffdfea2646970667358221220cb031cd39b095c01a41f29e8c3b2c2395b8ed9a8879325db5cd0549e8312ac4864736f6c634300081e0033","linkReferences":{}},"methodIdentifiers":{"approve(address,uint256)":"095ea7b3","balanceOf(address)":"70a08231","getApproved(uint256)":"081812fc","getTenantInfo(uint256)":"fc23c5dc","incrementPropertiesOwned(uint256)":"d9ec55ab","isApprovedForAll(address,address)":"e985e9c5","mintForSelf()":"c97336f3","name()":"06fdde03","owner()":"8da5cb5b","ownerOf(uint256)":"6352211e","propertyInterestPoolAddress()":"01ba169a","renounceOwnership()":"715018a6","rentalAgreementAddress()":"547ebecb","safeTransferFrom(address,address,uint256)":"42842e0e","safeTransferFrom(address,address,uint256,bytes)":"b88d4fde","setApprovalForAll(address,bool)":"a22cb465","setPropertyInterestPoolAddress(address)":"1d96e077","setRentalAgreementAddress(address)":"289c93b5","supportsInterface(bytes4)":"01ffc9a7","symbol()":"95d89b41","tenantInfo(uint256)":"d405706d","tokenByIndex(uint256)":"4f6ccce7","tokenOfOwnerByIndex(address,uint256)":"2f745c59","tokenURI(uint256)":"c87b56dd","totalSupply()":"18160ddd","transferFrom(address,address,uint256)":"23b872dd","transferOwnership(address)":"f2fde38b","updateTenantInfo(uint256,uint32,uint32,uint32,uint256)":"36f71630"},"id":44}