{"abi":[{"type":"constructor","inputs":[],"stateMutability":"nonpayable"},{"type":"function","name":"approve","inputs":[{"name":"to","type":"address","internalType":"address"},{"name":"tokenId","type":"uint256","internalType":"uint256"}],"outputs":[],"stateMutability":"nonpayable"},{"type":"function","name":"balanceOf","inputs":[{"name":"owner","type":"address","internalType":"address"}],"outputs":[{"name":"","type":"uint256","internalType":"uint256"}],"stateMutability":"view"},{"type":"function","name":"getApproved","inputs":[{"name":"tokenId","type":"uint256","internalType":"uint256"}],"outputs":[{"name":"","type":"address","internalType":"address"}],"stateMutability":"view"},{"type":"function","name":"getTenantInfo","inputs":[{"name":"tokenId","type":"uint256","internalType":"uint256"}],"outputs":[{"name":"","type":"tuple","internalType":"struct TenantPassport.TenantInfo","components":[{"name":"reputation","type":"uint256","internalType":"uint256"},{"name":"paymentsMade","type":"uint256","internalType":"uint256"},{"name":"paymentsMissed","type":"uint256","internalType":"uint256"},{"name":"outstandingBalance","type":"uint256","internalType":"uint256"},{"name":"propertiesOwned","type":"uint256","internalType":"uint256"}]}],"stateMutability":"view"},{"type":"function","name":"incrementPropertiesOwned","inputs":[{"name":"tokenId","type":"uint256","internalType":"uint256"}],"outputs":[],"stateMutability":"nonpayable"},{"type":"function","name":"isApprovedForAll","inputs":[{"name":"owner","type":"address","internalType":"address"},{"name":"operator","type":"address","internalType":"address"}],"outputs":[{"name":"","type":"bool","internalType":"bool"}],"stateMutability":"view"},{"type":"function","name":"mint","inputs":[{"name":"to","type":"address","internalType":"address"},{"name":"tokenId","type":"uint256","internalType":"uint256"}],"outputs":[],"stateMutability":"nonpayable"},{"type":"function","name":"mintForSelf","inputs":[],"outputs":[],"stateMutability":"nonpayable"},{"type":"function","name":"name","inputs":[],"outputs":[{"name":"","type":"string","internalType":"string"}],"stateMutability":"view"},{"type":"function","name":"owner","inputs":[],"outputs":[{"name":"","type":"address","internalType":"address"}],"stateMutability":"view"},{"type":"function","name":"ownerOf","inputs":[{"name":"tokenId","type":"uint256","internalType":"uint256"}],"outputs":[{"name":"","type":"address","internalType":"address"}],"stateMutability":"view"},{"type":"function","name":"propertyInterestPoolAddress","inputs":[],"outputs":[{"name":"","type":"address","internalType":"address"}],"stateMutability":"view"},{"type":"function","name":"renounceOwnership","inputs":[],"outputs":[],"stateMutability":"nonpayable"},{"type":"function","name":"rentalAgreementAddress","inputs":[],"outputs":[{"name":"","type":"address","internalType":"address"}],"stateMutability":"view"},{"type":"function","name":"safeTransferFrom","inputs":[{"name":"from","type":"address","internalType":"address"},{"name":"to","type":"address","internalType":"address"},{"name":"tokenId","type":"uint256","internalType":"uint256"}],"outputs":[],"stateMutability":"nonpayable"},{"type":"function","name":"safeTransferFrom","inputs":[{"name":"from","type":"address","internalType":"address"},{"name":"to","type":"address","internalType":"address"},{"name":"tokenId","type":"uint256","internalType":"uint256"},{"name":"data","type":"bytes","internalType":"bytes"}],"outputs":[],"stateMutability":"nonpayable"},{"type":"function","name":"setApprovalForAll","inputs":[{"name":"operator","type":"address","internalType":"address"},{"name":"approved","type":"bool","internalType":"bool"}],"outputs":[],"stateMutability":"nonpayable"},{"type":"function","name":"setPropertyInterestPoolAddress","inputs":[{"name":"_poolAddress","type":"address","internalType":"address"}],"outputs":[],"stateMutability":"nonpayable"},{"type":"function","name":"setRentalAgreementAddress","inputs":[{"name":"_rentalAgreementAddress","type":"address","internalType":"address"}],"outputs":[],"stateMutability":"nonpayable"},{"type":"function","name":"supportsInterface","inputs":[{"name":"interfaceId","type":"bytes4","internalType":"bytes4"}],"outputs":[{"name":"","type":"bool","internalType":"bool"}],"stateMutability":"view"},{"type":"function","name":"symbol","inputs":[],"outputs":[{"name":"","type":"string","internalType":"string"}],"stateMutability":"view"},{"type":"function","name":"tenantInfo","inputs":[{"name":"","type":"uint256","internalType":"uint256"}],"outputs":[{"name":"reputation","type":"uint256","internalType":"uint256"},{"name":"paymentsMade","type":"uint256","internalType":"uint256"},{"name":"paymentsMissed","type":"uint256","internalType":"uint256"},{"name":"outstandingBalance","type":"uint256","internalType":"uint256"},{"name":"propertiesOwned","type":"uint256","internalType":"uint256"}],"stateMutability":"view"},{"type":"function","name":"tokenByIndex","inputs":[{"name":"index","type":"uint256","internalType":"uint256"}],"outputs":[{"name":"","type":"uint256","internalType":"uint256"}],"stateMutability":"view"},{"type":"function","name":"tokenOfOwnerByIndex","inputs":[{"name":"owner","type":"address","internalType":"address"},{"name":"index","type":"uint256","internalType":"uint256"}],"outputs":[{"name":"","type":"uint256","internalType":"uint256"}],"stateMutability":"view"},{"type":"function","name":"tokenURI","inputs":[{"name":"tokenId","type":"uint256","internalType":"uint256"}],"outputs":[{"name":"","type":"string","internalType":"string"}],"stateMutability":"view"},{"type":"function","name":"totalSupply","inputs":[],"outputs":[{"name":"","type":"uint256","internalType":"uint256"}],"stateMutability":"view"},{"type":"function","name":"transferFrom","inputs":[{"name":"from","type":"address","internalType":"address"},{"name":"to","type":"address","internalType":"address"},{"name":"tokenId","type":"uint256","internalType":"uint256"}],"outputs":[],"stateMutability":"nonpayable"},{"type":"function","name":"transferOwnership","inputs":[{"name":"newOwner","type":"address","internalType":"address"}],"outputs":[],"stateMutability":"nonpayable"},{"type":"function","name":"updateTenantInfo","inputs":[{"name":"tokenId","type":"uint256","internalType":"uint256"},{"name":"newReputation","type":"uint256","internalType":"uint256"},{"name":"paymentsMade","type":"uint256","internalType":"uint256"},{"name":"paymentsMissed","type":"uint256","internalType":"uint256"},{"name":"outstandingBalance","type":"uint256","internalType":"uint256"}],"outputs":[],"stateMutability":"nonpayable"},{"type":"event","name":"Approval","inputs":[{"name":"owner","type":"address","indexed":true,"internalType":"address"},{"name":"approved","type":"address","indexed":true,"internalType":"address"},{"name":"tokenId","type":"uint256","indexed":true,"internalType":"uint256"}],"anonymous":false},{"type":"event","name":"ApprovalForAll","inputs":[{"name":"owner","type":"address","indexed":true,"internalType":"address"},{"name":"operator","type":"address","indexed":true,"internalType":"address"},{"name":"approved","type":"bool","indexed":false,"internalType":"bool"}],"anonymous":false},{"type":"event","name":"OwnershipTransferred","inputs":[{"name":"previousOwner","type":"address","indexed":true,"internalType":"address"},{"name":"newOwner","type":"address","indexed":true,"internalType":"address"}],"anonymous":false},{"type":"event","name":"Transfer","inputs":[{"name":"from","type":"address","indexed":true,"internalType":"address"},{"name":"to","type":"address","indexed":true,"internalType":"address"},{"name":"tokenId","type":"uint256","indexed":true,"internalType":"uint256"}],"anonymous":false},{"type":"error","name":"ERC721EnumerableForbiddenBatchMint","inputs":[]},{"type":"error","name":"ERC721IncorrectOwner","inputs":[{"name":"sender","type":"address","internalType":"address"},{"name":"tokenId","type":"uint256","internalType":"uint256"},{"name":"owner","type":"address","internalType":"address"}]},{"type":"error","name":"ERC721InsufficientApproval","inputs":[{"name":"operator","type":"address","internalType":"address"},{"name":"tokenId","type":"uint256","internalType":"uint256"}]},{"type":"error","name":"ERC721InvalidApprover","inputs":[{"name":"approver","type":"address","internalType":"address"}]},{"type":"error","name":"ERC721InvalidOperator","inputs":[{"name":"operator","type":"address","internalType":"address"}]},{"type":"error","name":"ERC721InvalidOwner","inputs":[{"name":"owner","type":"address","internalType":"address"}]},{"type":"error","name":"ERC721InvalidReceiver","inputs":[{"name":"receiver","type":"address","internalType":"address"}]},{"type":"error","name":"ERC721InvalidSender","inputs":[{"name":"sender","type":"address","internalType":"address"}]},{"type":"error","name":"ERC721NonexistentToken","inputs":[{"name":"tokenId","type":"uint256","internalType":"uint256"}]},{"type":"error","name":"ERC721OutOfBoundsIndex","inputs":[{"name":"owner","type":"address","internalType":"address"},{"name":"index","type":"uint256","internalType":"uint256"}]},{"type":"error","name":"OwnableInvalidOwner","inputs":[{"name":"owner","type":"address","internalType":"address"}]},{"type":"error","name":"OwnableUnauthorizedAccount","inputs":[{"name":"account","type":"address","internalType":"address"}]}],"bytecode":{"object":"0x608060405234801561000f575f5ffd5b50336040518060400160405280600f81526020016e15195b985b9d0814185cdcdc1bdc9d608a1b81525060405180604001604052806002815260200161054560f41b815250815f90816100629190610197565b50600161006f8282610197565b5050506001600160a01b03811661009f57604051631e4fbdf760e01b81525f600482015260240160405180910390fd5b6100a8816100ae565b50610251565b600a80546001600160a01b038381166001600160a01b0319831681179093556040519116919082907f8be0079c531659141344cd1fd0a4f28419497f9722a3daafe3b4186f6b6457e0905f90a35050565b634e487b7160e01b5f52604160045260245ffd5b600181811c9082168061012757607f821691505b60208210810361014557634e487b7160e01b5f52602260045260245ffd5b50919050565b601f82111561019257805f5260205f20601f840160051c810160208510156101705750805b601f840160051c820191505b8181101561018f575f815560010161017c565b50505b505050565b81516001600160401b038111156101b0576101b06100ff565b6101c4816101be8454610113565b8461014b565b6020601f8211600181146101f6575f83156101df5750848201515b5f19600385901b1c1916600184901b17845561018f565b5f84815260208120601f198516915b828110156102255787850151825560209485019460019092019101610205565b508482101561024257868401515f19600387901b60f8161c191681555b50505050600190811b01905550565b61197c8061025e5f395ff3fe608060405234801561000f575f5ffd5b50600436106101c6575f3560e01c80636352211e116100fe578063b88d4fde1161009e578063d9ec55ab1161006e578063d9ec55ab14610403578063e985e9c514610416578063f2fde38b14610429578063fc23c5dc1461043c575f5ffd5b8063b88d4fde14610371578063c87b56dd14610384578063c97336f314610397578063d405706d1461039f575f5ffd5b806382e13bf8116100d957806382e13bf8146103325780638da5cb5b1461034557806395d89b4114610356578063a22cb4651461035e575f5ffd5b80636352211e1461030457806370a0823114610317578063715018a61461032a575f5ffd5b806323b872dd1161016957806340c10f191161014457806340c10f19146102b857806342842e0e146102cb5780634f6ccce7146102de578063547ebecb146102f1575f5ffd5b806323b872dd1461027f578063289c93b5146102925780632f745c59146102a5575f5ffd5b8063081812fc116101a4578063081812fc14610232578063095ea7b31461024557806318160ddd1461025a5780631d96e0771461026c575f5ffd5b806301ba169a146101ca57806301ffc9a7146101fa57806306fdde031461021d575b5f5ffd5b600d546101dd906001600160a01b031681565b6040516001600160a01b0390911681526020015b60405180910390f35b61020d61020836600461158b565b610490565b60405190151581526020016101f1565b6102256104a0565b6040516101f191906115d4565b6101dd6102403660046115e6565b61052f565b610258610253366004611618565b610556565b005b6008545b6040519081526020016101f1565b61025861027a366004611640565b610565565b61025861028d366004611659565b6105dc565b6102586102a0366004611640565b610665565b61025e6102b3366004611618565b6106d7565b6102586102c6366004611618565b61073a565b6102586102d9366004611659565b6107a7565b61025e6102ec3660046115e6565b6107c6565b600c546101dd906001600160a01b031681565b6101dd6103123660046115e6565b61081b565b61025e610325366004611640565b610825565b61025861086a565b610258610340366004611693565b61087d565b600a546001600160a01b03166101dd565b6102256108a9565b61025861036c3660046116ca565b6108b8565b61025861037f366004611717565b6108c3565b6102256103923660046115e6565b6108db565b61025861094c565b6103db6103ad3660046115e6565b600b6020525f9081526040902080546001820154600283015460038401546004909401549293919290919085565b604080519586526020860194909452928401919091526060830152608082015260a0016101f1565b6102586104113660046115e6565b610a2d565b61020d6104243660046117f4565b610ac1565b610258610437366004611640565b610aee565b61044f61044a3660046115e6565b610b2b565b6040516101f191905f60a082019050825182526020830151602083015260408301516040830152606083015160608301526080830151608083015292915050565b5f61049a82610ba6565b92915050565b60605f80546104ae90611825565b80601f01602080910402602001604051908101604052809291908181526020018280546104da90611825565b80156105255780601f106104fc57610100808354040283529160200191610525565b820191905f5260205f20905b81548152906001019060200180831161050857829003601f168201915b5050505050905090565b5f61053982610bca565b505f828152600460205260409020546001600160a01b031661049a565b610561828233610c02565b5050565b61056d610c0f565b6001600160a01b0381166105ba5760405162461bcd60e51b815260206004820152600f60248201526e496e76616c6964206164647265737360881b60448201526064015b60405180910390fd5b600d80546001600160a01b0319166001600160a01b0392909216919091179055565b6001600160a01b03821661060557604051633250574960e11b81525f60048201526024016105b1565b5f610611838333610c3c565b9050836001600160a01b0316816001600160a01b03161461065f576040516364283d7b60e01b81526001600160a01b03808616600483015260248201849052821660448201526064016105b1565b50505050565b61066d610c0f565b6001600160a01b0381166106b55760405162461bcd60e51b815260206004820152600f60248201526e496e76616c6964206164647265737360881b60448201526064016105b1565b600c80546001600160a01b0319166001600160a01b0392909216919091179055565b5f6106e183610825565b82106107125760405163295f44f760e21b81526001600160a01b0384166004820152602481018390526044016105b1565b506001600160a01b03919091165f908152600660209081526040808320938352929052205490565b610742610c0f565b61074c8282610c50565b6040805160a081018252606481525f60208083018281528385018381526060850184815260808601858152978552600b9093529490922092518355905160018301559151600282015590516003820155905160049091015550565b6107c183838360405180602001604052805f8152506108c3565b505050565b5f6107d060085490565b82106107f85760405163295f44f760e21b81525f6004820152602481018390526044016105b1565b6008828154811061080b5761080b61185d565b905f5260205f2001549050919050565b5f61049a82610bca565b5f6001600160a01b03821661084f576040516322718ad960e21b81525f60048201526024016105b1565b506001600160a01b03165f9081526003602052604090205490565b610872610c0f565b61087b5f610cb1565b565b610885610c0f565b5f948552600b60205260409094209283556001830191909155600282015560030155565b6060600180546104ae90611825565b610561338383610d02565b6108ce8484846105dc565b61065f3385858585610da0565b60606108e682610bca565b505f6108fc60408051602081019091525f815290565b90505f81511161091a5760405180602001604052805f815250610945565b8061092484610ec8565b604051602001610935929190611888565b6040516020818303038152906040525b9392505050565b335f818152600260205260409020546001600160a01b0316156109c95760405162461bcd60e51b815260206004820152602f60248201527f54656e616e742050617373706f727420616c726561647920657869737473206660448201526e6f722074686973206164647265737360881b60648201526084016105b1565b6109d33382610c50565b6040805160a081018252606481525f60208083018281528385018381526060850184815260808601858152978552600b90935294909220925183559051600183015591516002820155905160038201559051600490910155565b600d546001600160a01b03163314610a9d5760405162461bcd60e51b815260206004820152602d60248201527f4f6e6c79207468652050726f706572747920496e74657265737420506f6f6c2060448201526c63616e2063616c6c207468697360981b60648201526084016105b1565b5f818152600b60205260408120600401805491610ab9836118b0565b919050555050565b6001600160a01b039182165f90815260056020908152604080832093909416825291909152205460ff1690565b610af6610c0f565b6001600160a01b038116610b1f57604051631e4fbdf760e01b81525f60048201526024016105b1565b610b2881610cb1565b50565b610b586040518060a001604052805f81526020015f81526020015f81526020015f81526020015f81525090565b505f908152600b6020908152604091829020825160a0810184528154815260018201549281019290925260028101549282019290925260038201546060820152600490910154608082015290565b5f6001600160e01b0319821663780e9d6360e01b148061049a575061049a82610f58565b5f818152600260205260408120546001600160a01b03168061049a57604051637e27328960e01b8152600481018490526024016105b1565b6107c18383836001610fa7565b600a546001600160a01b0316331461087b5760405163118cdaa760e01b81523360048201526024016105b1565b5f610c488484846110ab565b949350505050565b6001600160a01b038216610c7957604051633250574960e11b81525f60048201526024016105b1565b5f610c8583835f610c3c565b90506001600160a01b038116156107c1576040516339e3563760e11b81525f60048201526024016105b1565b600a80546001600160a01b038381166001600160a01b0319831681179093556040519116919082907f8be0079c531659141344cd1fd0a4f28419497f9722a3daafe3b4186f6b6457e0905f90a35050565b6001600160a01b038216610d3457604051630b61174360e31b81526001600160a01b03831660048201526024016105b1565b6001600160a01b038381165f81815260056020908152604080832094871680845294825291829020805460ff191686151590811790915591519182527f17307eab39ab6107e8899845ad3d59bd9653f200f220920489ca2b5937696c31910160405180910390a3505050565b6001600160a01b0383163b15610ec157604051630a85bd0160e11b81526001600160a01b0384169063150b7a0290610de29088908890879087906004016118c8565b6020604051808303815f875af1925050508015610e1c575060408051601f3d908101601f19168201909252610e1991810190611904565b60015b610e83573d808015610e49576040519150601f19603f3d011682016040523d82523d5f602084013e610e4e565b606091505b5080515f03610e7b57604051633250574960e11b81526001600160a01b03851660048201526024016105b1565b805160208201fd5b6001600160e01b03198116630a85bd0160e11b14610ebf57604051633250574960e11b81526001600160a01b03851660048201526024016105b1565b505b5050505050565b60605f610ed483611176565b60010190505f8167ffffffffffffffff811115610ef357610ef3611703565b6040519080825280601f01601f191660200182016040528015610f1d576020820181803683370190505b5090508181016020015b5f19016f181899199a1a9b1b9c1cb0b131b232b360811b600a86061a8153600a8504945084610f2757509392505050565b5f6001600160e01b031982166380ac58cd60e01b1480610f8857506001600160e01b03198216635b5e139f60e01b145b8061049a57506301ffc9a760e01b6001600160e01b031983161461049a565b8080610fbb57506001600160a01b03821615155b1561107c575f610fca84610bca565b90506001600160a01b03831615801590610ff65750826001600160a01b0316816001600160a01b031614155b801561100957506110078184610ac1565b155b156110325760405163a9fbf51f60e01b81526001600160a01b03841660048201526024016105b1565b811561107a5783856001600160a01b0316826001600160a01b03167f8c5be1e5ebec7d5bd14f71427d1e84f3dd0314c0f7b2291e5b200ac8c7c3b92560405160405180910390a45b505b50505f90815260046020526040902080546001600160a01b0319166001600160a01b0392909216919091179055565b5f5f6110b885858561124d565b90506001600160a01b0381166111145761110f84600880545f838152600960205260408120829055600182018355919091527ff3f7a9fe364faab93b216da50a3214154f22a0a2b415b23a84c8169e8b636ee30155565b611137565b846001600160a01b0316816001600160a01b03161461113757611137818561133f565b6001600160a01b0385166111535761114e846113bc565b610c48565b846001600160a01b0316816001600160a01b031614610c4857610c488585611463565b5f8072184f03e93ff9f4daa797ed6e38ed64bf6a1f0160401b83106111b45772184f03e93ff9f4daa797ed6e38ed64bf6a1f0160401b830492506040015b6d04ee2d6d415b85acef810000000083106111e0576d04ee2d6d415b85acef8100000000830492506020015b662386f26fc1000083106111fe57662386f26fc10000830492506010015b6305f5e1008310611216576305f5e100830492506008015b612710831061122a57612710830492506004015b6064831061123c576064830492506002015b600a831061049a5760010192915050565b5f828152600260205260408120546001600160a01b0390811690831615611279576112798184866114b1565b6001600160a01b038116156112b3576112945f855f5f610fa7565b6001600160a01b0381165f90815260036020526040902080545f190190555b6001600160a01b038516156112e1576001600160a01b0385165f908152600360205260409020805460010190555b5f8481526002602052604080822080546001600160a01b0319166001600160a01b0389811691821790925591518793918516917fddf252ad1be2c89b69c2b068fc378daa952ba7f163c4a11628f55a4df523b3ef91a4949350505050565b5f61134983610825565b5f838152600760209081526040808320546001600160a01b038816845260069092529091209192509081831461139e575f83815260208281526040808320548584528184208190558352600790915290208290555b5f938452600760209081526040808620869055938552525081205550565b6008545f906113cd9060019061191f565b5f83815260096020526040812054600880549394509092849081106113f4576113f461185d565b905f5260205f200154905080600883815481106114135761141361185d565b5f91825260208083209091019290925582815260099091526040808220849055858252812055600880548061144a5761144a611932565b600190038181905f5260205f20015f9055905550505050565b5f600161146f84610825565b611479919061191f565b6001600160a01b039093165f908152600660209081526040808320868452825280832085905593825260079052919091209190915550565b6114bc838383611515565b6107c1576001600160a01b0383166114ea57604051637e27328960e01b8152600481018290526024016105b1565b60405163177e802f60e01b81526001600160a01b0383166004820152602481018290526044016105b1565b5f6001600160a01b03831615801590610c485750826001600160a01b0316846001600160a01b0316148061154e575061154e8484610ac1565b80610c485750505f908152600460205260409020546001600160a01b03908116911614919050565b6001600160e01b031981168114610b28575f5ffd5b5f6020828403121561159b575f5ffd5b813561094581611576565b5f81518084528060208401602086015e5f602082860101526020601f19601f83011685010191505092915050565b602081525f61094560208301846115a6565b5f602082840312156115f6575f5ffd5b5035919050565b80356001600160a01b0381168114611613575f5ffd5b919050565b5f5f60408385031215611629575f5ffd5b611632836115fd565b946020939093013593505050565b5f60208284031215611650575f5ffd5b610945826115fd565b5f5f5f6060848603121561166b575f5ffd5b611674846115fd565b9250611682602085016115fd565b929592945050506040919091013590565b5f5f5f5f5f60a086880312156116a7575f5ffd5b505083359560208501359550604085013594606081013594506080013592509050565b5f5f604083850312156116db575f5ffd5b6116e4836115fd565b9150602083013580151581146116f8575f5ffd5b809150509250929050565b634e487b7160e01b5f52604160045260245ffd5b5f5f5f5f6080858703121561172a575f5ffd5b611733856115fd565b9350611741602086016115fd565b925060408501359150606085013567ffffffffffffffff811115611763575f5ffd5b8501601f81018713611773575f5ffd5b803567ffffffffffffffff81111561178d5761178d611703565b604051601f8201601f19908116603f0116810167ffffffffffffffff811182821017156117bc576117bc611703565b6040528181528282016020018910156117d3575f5ffd5b816020840160208301375f6020838301015280935050505092959194509250565b5f5f60408385031215611805575f5ffd5b61180e836115fd565b915061181c602084016115fd565b90509250929050565b600181811c9082168061183957607f821691505b60208210810361185757634e487b7160e01b5f52602260045260245ffd5b50919050565b634e487b7160e01b5f52603260045260245ffd5b5f81518060208401855e5f93019283525090919050565b5f610c486118968386611871565b84611871565b634e487b7160e01b5f52601160045260245ffd5b5f600182016118c1576118c161189c565b5060010190565b6001600160a01b03858116825284166020820152604081018390526080606082018190525f906118fa908301846115a6565b9695505050505050565b5f60208284031215611914575f5ffd5b815161094581611576565b8181038181111561049a5761049a61189c565b634e487b7160e01b5f52603160045260245ffdfea26469706673582212203affa123934c94501a73ed4d54e7c6929418369656fda6aa370613d82654daca64736f6c634300081e0033","linkReferences":{}},"methodIdentifiers":{"approve(address,uint256)":"095ea7b3","balanceOf(address)":"70a08231","getApproved(uint256)":"081812fc","getTenantInfo(uint256)":"fc23c5dc","incrementPropertiesOwned(uint256)":"d9ec55ab","isApprovedForAll(address,address)":"e985e9c5","mint(address,uint256)":"40c10f19","mintForSelf()":"c97336f3","name()":"06fdde03","owner()":"8da5cb5b","ownerOf(uint256)":"6352211e","propertyInterestPoolAddress()":"01ba169a","renounceOwnership()":"715018a6","rentalAgreementAddress()":"547ebecb","safeTransferFrom(address,address,uint256)":"42842e0e","safeTransferFrom(address,address,uint256,bytes)":"b88d4fde","setApprovalForAll(address,bool)":"a22cb465","setPropertyInterestPoolAddress(address)":"1d96e077","setRentalAgreementAddress(address)":"289c93b5","supportsInterface(bytes4)":"01ffc9a7","symbol()":"95d89b41","tenantInfo(uint256)":"d405706d","tokenByIndex(uint256)":"4f6ccce7","tokenOfOwnerByIndex(address,uint256)":"2f745c59","tokenURI(uint256)":"c87b56dd","totalSupply()":"18160ddd","transferFrom(address,address,uint256)":"23b872dd","transferOwnership(address)":"f2fde38b","updateTenantInfo(uint256,uint256,uint256,uint256,uint256)":"82e13bf8"},"id":43}