{"abi":[{"type":"constructor","inputs":[],"stateMutability":"nonpayable"},{"type":"function","name":"approve","inputs":[{"name":"to","type":"address","internalType":"address"},{"name":"tokenId","type":"uint256","internalType":"uint256"}],"outputs":[],"stateMutability":"nonpayable"},{"type":"function","name":"balanceOf","inputs":[{"name":"owner","type":"address","internalType":"address"}],"outputs":[{"name":"","type":"uint256","internalType":"uint256"}],"stateMutability":"view"},{"type":"function","name":"getApproved","inputs":[{"name":"tokenId","type":"uint256","internalType":"uint256"}],"outputs":[{"name":"","type":"address","internalType":"address"}],"stateMutability":"view"},{"type":"function","name":"getTenantInfo","inputs":[{"name":"tokenId","type":"uint256","internalType":"uint256"}],"outputs":[{"name":"","type":"tuple","internalType":"struct TenantPassport.TenantInfo","components":[{"name":"reputation","type":"uint256","internalType":"uint256"},{"name":"paymentsMade","type":"uint256","internalType":"uint256"},{"name":"paymentsMissed","type":"uint256","internalType":"uint256"},{"name":"outstandingBalance","type":"uint256","internalType":"uint256"}]}],"stateMutability":"view"},{"type":"function","name":"isApprovedForAll","inputs":[{"name":"owner","type":"address","internalType":"address"},{"name":"operator","type":"address","internalType":"address"}],"outputs":[{"name":"","type":"bool","internalType":"bool"}],"stateMutability":"view"},{"type":"function","name":"mint","inputs":[{"name":"to","type":"address","internalType":"address"},{"name":"tokenId","type":"uint256","internalType":"uint256"}],"outputs":[],"stateMutability":"nonpayable"},{"type":"function","name":"mintForSelf","inputs":[],"outputs":[],"stateMutability":"nonpayable"},{"type":"function","name":"name","inputs":[],"outputs":[{"name":"","type":"string","internalType":"string"}],"stateMutability":"view"},{"type":"function","name":"owner","inputs":[],"outputs":[{"name":"","type":"address","internalType":"address"}],"stateMutability":"view"},{"type":"function","name":"ownerOf","inputs":[{"name":"tokenId","type":"uint256","internalType":"uint256"}],"outputs":[{"name":"","type":"address","internalType":"address"}],"stateMutability":"view"},{"type":"function","name":"renounceOwnership","inputs":[],"outputs":[],"stateMutability":"nonpayable"},{"type":"function","name":"rentalAgreementAddress","inputs":[],"outputs":[{"name":"","type":"address","internalType":"address"}],"stateMutability":"view"},{"type":"function","name":"safeTransferFrom","inputs":[{"name":"from","type":"address","internalType":"address"},{"name":"to","type":"address","internalType":"address"},{"name":"tokenId","type":"uint256","internalType":"uint256"}],"outputs":[],"stateMutability":"nonpayable"},{"type":"function","name":"safeTransferFrom","inputs":[{"name":"from","type":"address","internalType":"address"},{"name":"to","type":"address","internalType":"address"},{"name":"tokenId","type":"uint256","internalType":"uint256"},{"name":"data","type":"bytes","internalType":"bytes"}],"outputs":[],"stateMutability":"nonpayable"},{"type":"function","name":"setApprovalForAll","inputs":[{"name":"operator","type":"address","internalType":"address"},{"name":"approved","type":"bool","internalType":"bool"}],"outputs":[],"stateMutability":"nonpayable"},{"type":"function","name":"setRentalAgreementAddress","inputs":[{"name":"_rentalAgreementAddress","type":"address","internalType":"address"}],"outputs":[],"stateMutability":"nonpayable"},{"type":"function","name":"supportsInterface","inputs":[{"name":"interfaceId","type":"bytes4","internalType":"bytes4"}],"outputs":[{"name":"","type":"bool","internalType":"bool"}],"stateMutability":"view"},{"type":"function","name":"symbol","inputs":[],"outputs":[{"name":"","type":"string","internalType":"string"}],"stateMutability":"view"},{"type":"function","name":"tenantInfo","inputs":[{"name":"","type":"uint256","internalType":"uint256"}],"outputs":[{"name":"reputation","type":"uint256","internalType":"uint256"},{"name":"paymentsMade","type":"uint256","internalType":"uint256"},{"name":"paymentsMissed","type":"uint256","internalType":"uint256"},{"name":"outstandingBalance","type":"uint256","internalType":"uint256"}],"stateMutability":"view"},{"type":"function","name":"tokenURI","inputs":[{"name":"tokenId","type":"uint256","internalType":"uint256"}],"outputs":[{"name":"","type":"string","internalType":"string"}],"stateMutability":"view"},{"type":"function","name":"transferFrom","inputs":[{"name":"from","type":"address","internalType":"address"},{"name":"to","type":"address","internalType":"address"},{"name":"tokenId","type":"uint256","internalType":"uint256"}],"outputs":[],"stateMutability":"nonpayable"},{"type":"function","name":"transferOwnership","inputs":[{"name":"newOwner","type":"address","internalType":"address"}],"outputs":[],"stateMutability":"nonpayable"},{"type":"function","name":"updateTenantInfo","inputs":[{"name":"tokenId","type":"uint256","internalType":"uint256"},{"name":"newReputation","type":"uint256","internalType":"uint256"},{"name":"paymentsMade","type":"uint256","internalType":"uint256"},{"name":"paymentsMissed","type":"uint256","internalType":"uint256"},{"name":"outstandingBalance","type":"uint256","internalType":"uint256"}],"outputs":[],"stateMutability":"nonpayable"},{"type":"event","name":"Approval","inputs":[{"name":"owner","type":"address","indexed":true,"internalType":"address"},{"name":"approved","type":"address","indexed":true,"internalType":"address"},{"name":"tokenId","type":"uint256","indexed":true,"internalType":"uint256"}],"anonymous":false},{"type":"event","name":"ApprovalForAll","inputs":[{"name":"owner","type":"address","indexed":true,"internalType":"address"},{"name":"operator","type":"address","indexed":true,"internalType":"address"},{"name":"approved","type":"bool","indexed":false,"internalType":"bool"}],"anonymous":false},{"type":"event","name":"OwnershipTransferred","inputs":[{"name":"previousOwner","type":"address","indexed":true,"internalType":"address"},{"name":"newOwner","type":"address","indexed":true,"internalType":"address"}],"anonymous":false},{"type":"event","name":"Transfer","inputs":[{"name":"from","type":"address","indexed":true,"internalType":"address"},{"name":"to","type":"address","indexed":true,"internalType":"address"},{"name":"tokenId","type":"uint256","indexed":true,"internalType":"uint256"}],"anonymous":false},{"type":"error","name":"ERC721IncorrectOwner","inputs":[{"name":"sender","type":"address","internalType":"address"},{"name":"tokenId","type":"uint256","internalType":"uint256"},{"name":"owner","type":"address","internalType":"address"}]},{"type":"error","name":"ERC721InsufficientApproval","inputs":[{"name":"operator","type":"address","internalType":"address"},{"name":"tokenId","type":"uint256","internalType":"uint256"}]},{"type":"error","name":"ERC721InvalidApprover","inputs":[{"name":"approver","type":"address","internalType":"address"}]},{"type":"error","name":"ERC721InvalidOperator","inputs":[{"name":"operator","type":"address","internalType":"address"}]},{"type":"error","name":"ERC721InvalidOwner","inputs":[{"name":"owner","type":"address","internalType":"address"}]},{"type":"error","name":"ERC721InvalidReceiver","inputs":[{"name":"receiver","type":"address","internalType":"address"}]},{"type":"error","name":"ERC721InvalidSender","inputs":[{"name":"sender","type":"address","internalType":"address"}]},{"type":"error","name":"ERC721NonexistentToken","inputs":[{"name":"tokenId","type":"uint256","internalType":"uint256"}]},{"type":"error","name":"OwnableInvalidOwner","inputs":[{"name":"owner","type":"address","internalType":"address"}]},{"type":"error","name":"OwnableUnauthorizedAccount","inputs":[{"name":"account","type":"address","internalType":"address"}]}],"bytecode":{"object":"0x608060405234801561000f575f5ffd5b50336040518060400160405280600f81526020016e15195b985b9d0814185cdcdc1bdc9d608a1b81525060405180604001604052806002815260200161054560f41b815250815f90816100629190610197565b50600161006f8282610197565b5050506001600160a01b03811661009f57604051631e4fbdf760e01b81525f600482015260240160405180910390fd5b6100a8816100ae565b50610251565b600680546001600160a01b038381166001600160a01b0319831681179093556040519116919082907f8be0079c531659141344cd1fd0a4f28419497f9722a3daafe3b4186f6b6457e0905f90a35050565b634e487b7160e01b5f52604160045260245ffd5b600181811c9082168061012757607f821691505b60208210810361014557634e487b7160e01b5f52602260045260245ffd5b50919050565b601f82111561019257805f5260205f20601f840160051c810160208510156101705750805b601f840160051c820191505b8181101561018f575f815560010161017c565b50505b505050565b81516001600160401b038111156101b0576101b06100ff565b6101c4816101be8454610113565b8461014b565b6020601f8211600181146101f6575f83156101df5750848201515b5f19600385901b1c1916600184901b17845561018f565b5f84815260208120601f198516915b828110156102255787850151825560209485019460019092019101610205565b508482101561024257868401515f19600387901b60f8161c191681555b50505050600190811b01905550565b61139e8061025e5f395ff3fe608060405234801561000f575f5ffd5b5060043610610148575f3560e01c8063715018a6116100bf578063c87b56dd11610079578063c87b56dd146102b6578063c97336f3146102c9578063d405706d146102d1578063e985e9c514610325578063f2fde38b14610338578063fc23c5dc1461034b575f5ffd5b8063715018a61461025c57806382e13bf8146102645780638da5cb5b1461027757806395d89b4114610288578063a22cb46514610290578063b88d4fde146102a3575f5ffd5b8063289c93b511610110578063289c93b5146101dc57806340c10f19146101ef57806342842e0e14610202578063547ebecb146102155780636352211e1461022857806370a082311461023b575f5ffd5b806301ffc9a71461014c57806306fdde0314610174578063081812fc14610189578063095ea7b3146101b457806323b872dd146101c9575b5f5ffd5b61015f61015a366004611014565b610391565b60405190151581526020015b60405180910390f35b61017c6103e2565b60405161016b919061105d565b61019c61019736600461106f565b610471565b6040516001600160a01b03909116815260200161016b565b6101c76101c23660046110a1565b610498565b005b6101c76101d73660046110c9565b6104a7565b6101c76101ea366004611103565b610535565b6101c76101fd3660046110a1565b6105a7565b6101c76102103660046110c9565b610606565b60085461019c906001600160a01b031681565b61019c61023636600461106f565b610625565b61024e610249366004611103565b61062f565b60405190815260200161016b565b6101c7610674565b6101c761027236600461111c565b610687565b6006546001600160a01b031661019c565b61017c6106b3565b6101c761029e366004611153565b6106c2565b6101c76102b13660046111a0565b6106cd565b61017c6102c436600461106f565b6106e5565b6101c7610756565b6103056102df36600461106f565b60076020525f908152604090208054600182015460028301546003909301549192909184565b60408051948552602085019390935291830152606082015260800161016b565b61015f61033336600461127d565b61081b565b6101c7610346366004611103565b610848565b61035e61035936600461106f565b610885565b60405161016b91908151815260208083015190820152604080830151908201526060918201519181019190915260800190565b5f6001600160e01b031982166380ac58cd60e01b14806103c157506001600160e01b03198216635b5e139f60e01b145b806103dc57506301ffc9a760e01b6001600160e01b03198316145b92915050565b60605f80546103f0906112ae565b80601f016020809104026020016040519081016040528092919081815260200182805461041c906112ae565b80156104675780601f1061043e57610100808354040283529160200191610467565b820191905f5260205f20905b81548152906001019060200180831161044a57829003601f168201915b5050505050905090565b5f61047b826108f0565b505f828152600460205260409020546001600160a01b03166103dc565b6104a3828233610928565b5050565b6001600160a01b0382166104d557604051633250574960e11b81525f60048201526024015b60405180910390fd5b5f6104e1838333610935565b9050836001600160a01b0316816001600160a01b03161461052f576040516364283d7b60e01b81526001600160a01b03808616600483015260248201849052821660448201526064016104cc565b50505050565b61053d610a27565b6001600160a01b0381166105855760405162461bcd60e51b815260206004820152600f60248201526e496e76616c6964206164647265737360881b60448201526064016104cc565b600880546001600160a01b0319166001600160a01b0392909216919091179055565b6105af610a27565b6105b98282610a54565b60408051608081018252606481525f602080830182815283850183815260608501848152968452600790925293909120915182559151600182015590516002820155905160039091015550565b61062083838360405180602001604052805f8152506106cd565b505050565b5f6103dc826108f0565b5f6001600160a01b038216610659576040516322718ad960e21b81525f60048201526024016104cc565b506001600160a01b03165f9081526003602052604090205490565b61067c610a27565b6106855f610ab5565b565b61068f610a27565b5f948552600760205260409094209283556001830191909155600282015560030155565b6060600180546103f0906112ae565b6104a3338383610b06565b6106d88484846104a7565b61052f3385858585610ba4565b60606106f0826108f0565b505f61070660408051602081019091525f815290565b90505f8151116107245760405180602001604052805f81525061074f565b8061072e84610ccc565b60405160200161073f9291906112fd565b6040516020818303038152906040525b9392505050565b336107608161062f565b156107c55760405162461bcd60e51b815260206004820152602f60248201527f54656e616e742050617373706f727420616c726561647920657869737473206660448201526e6f722074686973206164647265737360881b60648201526084016104cc565b6107cf3382610a54565b60408051608081018252606481525f6020808301828152838501838152606085018481529684526007909252939091209151825591516001820155905160028201559051600390910155565b6001600160a01b039182165f90815260056020908152604080832093909416825291909152205460ff1690565b610850610a27565b6001600160a01b03811661087957604051631e4fbdf760e01b81525f60048201526024016104cc565b61088281610ab5565b50565b6108ac60405180608001604052805f81526020015f81526020015f81526020015f81525090565b505f90815260076020908152604091829020825160808101845281548152600182015492810192909252600281015492820192909252600390910154606082015290565b5f818152600260205260408120546001600160a01b0316806103dc57604051637e27328960e01b8152600481018490526024016104cc565b6106208383836001610d5c565b5f828152600260205260408120546001600160a01b039081169083161561096157610961818486610e60565b6001600160a01b0381161561099b5761097c5f855f5f610d5c565b6001600160a01b0381165f90815260036020526040902080545f190190555b6001600160a01b038516156109c9576001600160a01b0385165f908152600360205260409020805460010190555b5f8481526002602052604080822080546001600160a01b0319166001600160a01b0389811691821790925591518793918516917fddf252ad1be2c89b69c2b068fc378daa952ba7f163c4a11628f55a4df523b3ef91a4949350505050565b6006546001600160a01b031633146106855760405163118cdaa760e01b81523360048201526024016104cc565b6001600160a01b038216610a7d57604051633250574960e11b81525f60048201526024016104cc565b5f610a8983835f610935565b90506001600160a01b03811615610620576040516339e3563760e11b81525f60048201526024016104cc565b600680546001600160a01b038381166001600160a01b0319831681179093556040519116919082907f8be0079c531659141344cd1fd0a4f28419497f9722a3daafe3b4186f6b6457e0905f90a35050565b6001600160a01b038216610b3857604051630b61174360e31b81526001600160a01b03831660048201526024016104cc565b6001600160a01b038381165f81815260056020908152604080832094871680845294825291829020805460ff191686151590811790915591519182527f17307eab39ab6107e8899845ad3d59bd9653f200f220920489ca2b5937696c31910160405180910390a3505050565b6001600160a01b0383163b15610cc557604051630a85bd0160e11b81526001600160a01b0384169063150b7a0290610be6908890889087908790600401611311565b6020604051808303815f875af1925050508015610c20575060408051601f3d908101601f19168201909252610c1d9181019061134d565b60015b610c87573d808015610c4d576040519150601f19603f3d011682016040523d82523d5f602084013e610c52565b606091505b5080515f03610c7f57604051633250574960e11b81526001600160a01b03851660048201526024016104cc565b805160208201fd5b6001600160e01b03198116630a85bd0160e11b14610cc357604051633250574960e11b81526001600160a01b03851660048201526024016104cc565b505b5050505050565b60605f610cd883610ec4565b60010190505f8167ffffffffffffffff811115610cf757610cf761118c565b6040519080825280601f01601f191660200182016040528015610d21576020820181803683370190505b5090508181016020015b5f19016f181899199a1a9b1b9c1cb0b131b232b360811b600a86061a8153600a8504945084610d2b57509392505050565b8080610d7057506001600160a01b03821615155b15610e31575f610d7f846108f0565b90506001600160a01b03831615801590610dab5750826001600160a01b0316816001600160a01b031614155b8015610dbe5750610dbc818461081b565b155b15610de75760405163a9fbf51f60e01b81526001600160a01b03841660048201526024016104cc565b8115610e2f5783856001600160a01b0316826001600160a01b03167f8c5be1e5ebec7d5bd14f71427d1e84f3dd0314c0f7b2291e5b200ac8c7c3b92560405160405180910390a45b505b50505f90815260046020526040902080546001600160a01b0319166001600160a01b0392909216919091179055565b610e6b838383610f9b565b610620576001600160a01b038316610e9957604051637e27328960e01b8152600481018290526024016104cc565b60405163177e802f60e01b81526001600160a01b0383166004820152602481018290526044016104cc565b5f8072184f03e93ff9f4daa797ed6e38ed64bf6a1f0160401b8310610f025772184f03e93ff9f4daa797ed6e38ed64bf6a1f0160401b830492506040015b6d04ee2d6d415b85acef81000000008310610f2e576d04ee2d6d415b85acef8100000000830492506020015b662386f26fc100008310610f4c57662386f26fc10000830492506010015b6305f5e1008310610f64576305f5e100830492506008015b6127108310610f7857612710830492506004015b60648310610f8a576064830492506002015b600a83106103dc5760010192915050565b5f6001600160a01b03831615801590610ff75750826001600160a01b0316846001600160a01b03161480610fd45750610fd4848461081b565b80610ff757505f828152600460205260409020546001600160a01b038481169116145b949350505050565b6001600160e01b031981168114610882575f5ffd5b5f60208284031215611024575f5ffd5b813561074f81610fff565b5f81518084528060208401602086015e5f602082860101526020601f19601f83011685010191505092915050565b602081525f61074f602083018461102f565b5f6020828403121561107f575f5ffd5b5035919050565b80356001600160a01b038116811461109c575f5ffd5b919050565b5f5f604083850312156110b2575f5ffd5b6110bb83611086565b946020939093013593505050565b5f5f5f606084860312156110db575f5ffd5b6110e484611086565b92506110f260208501611086565b929592945050506040919091013590565b5f60208284031215611113575f5ffd5b61074f82611086565b5f5f5f5f5f60a08688031215611130575f5ffd5b505083359560208501359550604085013594606081013594506080013592509050565b5f5f60408385031215611164575f5ffd5b61116d83611086565b915060208301358015158114611181575f5ffd5b809150509250929050565b634e487b7160e01b5f52604160045260245ffd5b5f5f5f5f608085870312156111b3575f5ffd5b6111bc85611086565b93506111ca60208601611086565b925060408501359150606085013567ffffffffffffffff8111156111ec575f5ffd5b8501601f810187136111fc575f5ffd5b803567ffffffffffffffff8111156112165761121661118c565b604051601f8201601f19908116603f0116810167ffffffffffffffff811182821017156112455761124561118c565b60405281815282820160200189101561125c575f5ffd5b816020840160208301375f6020838301015280935050505092959194509250565b5f5f6040838503121561128e575f5ffd5b61129783611086565b91506112a560208401611086565b90509250929050565b600181811c908216806112c257607f821691505b6020821081036112e057634e487b7160e01b5f52602260045260245ffd5b50919050565b5f81518060208401855e5f93019283525090919050565b5f610ff761130b83866112e6565b846112e6565b6001600160a01b03858116825284166020820152604081018390526080606082018190525f906113439083018461102f565b9695505050505050565b5f6020828403121561135d575f5ffd5b815161074f81610fff56fea26469706673582212200e7b530b9529fc0f952857a123d4056b5fbc72fecfdb72088c622a361799accd64736f6c634300081e0033","linkReferences":{}},"methodIdentifiers":{"approve(address,uint256)":"095ea7b3","balanceOf(address)":"70a08231","getApproved(uint256)":"081812fc","getTenantInfo(uint256)":"fc23c5dc","isApprovedForAll(address,address)":"e985e9c5","mint(address,uint256)":"40c10f19","mintForSelf()":"c97336f3","name()":"06fdde03","owner()":"8da5cb5b","ownerOf(uint256)":"6352211e","renounceOwnership()":"715018a6","rentalAgreementAddress()":"547ebecb","safeTransferFrom(address,address,uint256)":"42842e0e","safeTransferFrom(address,address,uint256,bytes)":"b88d4fde","setApprovalForAll(address,bool)":"a22cb465","setRentalAgreementAddress(address)":"289c93b5","supportsInterface(bytes4)":"01ffc9a7","symbol()":"95d89b41","tenantInfo(uint256)":"d405706d","tokenURI(uint256)":"c87b56dd","transferFrom(address,address,uint256)":"23b872dd","transferOwnership(address)":"f2fde38b","updateTenantInfo(uint256,uint256,uint256,uint256,uint256)":"82e13bf8"},"id":41}