{"abi":[{"type":"constructor","inputs":[],"stateMutability":"nonpayable"},{"type":"function","name":"approve","inputs":[{"name":"to","type":"address","internalType":"address"},{"name":"tokenId","type":"uint256","internalType":"uint256"}],"outputs":[],"stateMutability":"nonpayable"},{"type":"function","name":"balanceOf","inputs":[{"name":"owner","type":"address","internalType":"address"}],"outputs":[{"name":"","type":"uint256","internalType":"uint256"}],"stateMutability":"view"},{"type":"function","name":"getApproved","inputs":[{"name":"tokenId","type":"uint256","internalType":"uint256"}],"outputs":[{"name":"","type":"address","internalType":"address"}],"stateMutability":"view"},{"type":"function","name":"getTenantInfo","inputs":[{"name":"tokenId","type":"uint256","internalType":"uint256"}],"outputs":[{"name":"","type":"tuple","internalType":"struct TenantPassport.TenantInfo","components":[{"name":"reputation","type":"uint256","internalType":"uint256"},{"name":"paymentsMade","type":"uint256","internalType":"uint256"},{"name":"paymentsMissed","type":"uint256","internalType":"uint256"},{"name":"outstandingBalance","type":"uint256","internalType":"uint256"}]}],"stateMutability":"view"},{"type":"function","name":"isApprovedForAll","inputs":[{"name":"owner","type":"address","internalType":"address"},{"name":"operator","type":"address","internalType":"address"}],"outputs":[{"name":"","type":"bool","internalType":"bool"}],"stateMutability":"view"},{"type":"function","name":"mint","inputs":[{"name":"to","type":"address","internalType":"address"},{"name":"tokenId","type":"uint256","internalType":"uint256"}],"outputs":[],"stateMutability":"nonpayable"},{"type":"function","name":"mintForSelf","inputs":[],"outputs":[],"stateMutability":"nonpayable"},{"type":"function","name":"name","inputs":[],"outputs":[{"name":"","type":"string","internalType":"string"}],"stateMutability":"view"},{"type":"function","name":"owner","inputs":[],"outputs":[{"name":"","type":"address","internalType":"address"}],"stateMutability":"view"},{"type":"function","name":"ownerOf","inputs":[{"name":"tokenId","type":"uint256","internalType":"uint256"}],"outputs":[{"name":"","type":"address","internalType":"address"}],"stateMutability":"view"},{"type":"function","name":"renounceOwnership","inputs":[],"outputs":[],"stateMutability":"nonpayable"},{"type":"function","name":"rentalAgreementAddress","inputs":[],"outputs":[{"name":"","type":"address","internalType":"address"}],"stateMutability":"view"},{"type":"function","name":"safeTransferFrom","inputs":[{"name":"from","type":"address","internalType":"address"},{"name":"to","type":"address","internalType":"address"},{"name":"tokenId","type":"uint256","internalType":"uint256"}],"outputs":[],"stateMutability":"nonpayable"},{"type":"function","name":"safeTransferFrom","inputs":[{"name":"from","type":"address","internalType":"address"},{"name":"to","type":"address","internalType":"address"},{"name":"tokenId","type":"uint256","internalType":"uint256"},{"name":"data","type":"bytes","internalType":"bytes"}],"outputs":[],"stateMutability":"nonpayable"},{"type":"function","name":"setApprovalForAll","inputs":[{"name":"operator","type":"address","internalType":"address"},{"name":"approved","type":"bool","internalType":"bool"}],"outputs":[],"stateMutability":"nonpayable"},{"type":"function","name":"setRentalAgreementAddress","inputs":[{"name":"_rentalAgreementAddress","type":"address","internalType":"address"}],"outputs":[],"stateMutability":"nonpayable"},{"type":"function","name":"supportsInterface","inputs":[{"name":"interfaceId","type":"bytes4","internalType":"bytes4"}],"outputs":[{"name":"","type":"bool","internalType":"bool"}],"stateMutability":"view"},{"type":"function","name":"symbol","inputs":[],"outputs":[{"name":"","type":"string","internalType":"string"}],"stateMutability":"view"},{"type":"function","name":"tenantInfo","inputs":[{"name":"","type":"uint256","internalType":"uint256"}],"outputs":[{"name":"reputation","type":"uint256","internalType":"uint256"},{"name":"paymentsMade","type":"uint256","internalType":"uint256"},{"name":"paymentsMissed","type":"uint256","internalType":"uint256"},{"name":"outstandingBalance","type":"uint256","internalType":"uint256"}],"stateMutability":"view"},{"type":"function","name":"tokenURI","inputs":[{"name":"tokenId","type":"uint256","internalType":"uint256"}],"outputs":[{"name":"","type":"string","internalType":"string"}],"stateMutability":"view"},{"type":"function","name":"transferFrom","inputs":[{"name":"from","type":"address","internalType":"address"},{"name":"to","type":"address","internalType":"address"},{"name":"tokenId","type":"uint256","internalType":"uint256"}],"outputs":[],"stateMutability":"nonpayable"},{"type":"function","name":"transferOwnership","inputs":[{"name":"newOwner","type":"address","internalType":"address"}],"outputs":[],"stateMutability":"nonpayable"},{"type":"function","name":"updateTenantInfo","inputs":[{"name":"tokenId","type":"uint256","internalType":"uint256"},{"name":"newReputation","type":"uint256","internalType":"uint256"},{"name":"paymentsMade","type":"uint256","internalType":"uint256"},{"name":"paymentsMissed","type":"uint256","internalType":"uint256"},{"name":"outstandingBalance","type":"uint256","internalType":"uint256"}],"outputs":[],"stateMutability":"nonpayable"},{"type":"event","name":"Approval","inputs":[{"name":"owner","type":"address","indexed":true,"internalType":"address"},{"name":"approved","type":"address","indexed":true,"internalType":"address"},{"name":"tokenId","type":"uint256","indexed":true,"internalType":"uint256"}],"anonymous":false},{"type":"event","name":"ApprovalForAll","inputs":[{"name":"owner","type":"address","indexed":true,"internalType":"address"},{"name":"operator","type":"address","indexed":true,"internalType":"address"},{"name":"approved","type":"bool","indexed":false,"internalType":"bool"}],"anonymous":false},{"type":"event","name":"OwnershipTransferred","inputs":[{"name":"previousOwner","type":"address","indexed":true,"internalType":"address"},{"name":"newOwner","type":"address","indexed":true,"internalType":"address"}],"anonymous":false},{"type":"event","name":"Transfer","inputs":[{"name":"from","type":"address","indexed":true,"internalType":"address"},{"name":"to","type":"address","indexed":true,"internalType":"address"},{"name":"tokenId","type":"uint256","indexed":true,"internalType":"uint256"}],"anonymous":false},{"type":"error","name":"ERC721IncorrectOwner","inputs":[{"name":"sender","type":"address","internalType":"address"},{"name":"tokenId","type":"uint256","internalType":"uint256"},{"name":"owner","type":"address","internalType":"address"}]},{"type":"error","name":"ERC721InsufficientApproval","inputs":[{"name":"operator","type":"address","internalType":"address"},{"name":"tokenId","type":"uint256","internalType":"uint256"}]},{"type":"error","name":"ERC721InvalidApprover","inputs":[{"name":"approver","type":"address","internalType":"address"}]},{"type":"error","name":"ERC721InvalidOperator","inputs":[{"name":"operator","type":"address","internalType":"address"}]},{"type":"error","name":"ERC721InvalidOwner","inputs":[{"name":"owner","type":"address","internalType":"address"}]},{"type":"error","name":"ERC721InvalidReceiver","inputs":[{"name":"receiver","type":"address","internalType":"address"}]},{"type":"error","name":"ERC721InvalidSender","inputs":[{"name":"sender","type":"address","internalType":"address"}]},{"type":"error","name":"ERC721NonexistentToken","inputs":[{"name":"tokenId","type":"uint256","internalType":"uint256"}]},{"type":"error","name":"OwnableInvalidOwner","inputs":[{"name":"owner","type":"address","internalType":"address"}]},{"type":"error","name":"OwnableUnauthorizedAccount","inputs":[{"name":"account","type":"address","internalType":"address"}]}],"bytecode":{"object":"0x608060405234801561000f575f5ffd5b50336040518060400160405280600f81526020017f54656e616e742050617373706f727400000000000000000000000000000000008152506040518060400160405280600281526020017f5450000000000000000000000000000000000000000000000000000000000000815250815f908161008b9190610423565b50806001908161009b9190610423565b5050505f73ffffffffffffffffffffffffffffffffffffffff168173ffffffffffffffffffffffffffffffffffffffff160361010e575f6040517f1e4fbdf70000000000000000000000000000000000000000000000000000000081526004016101059190610531565b60405180910390fd5b61011d8161012360201b60201c565b5061054a565b5f60065f9054906101000a900473ffffffffffffffffffffffffffffffffffffffff1690508160065f6101000a81548173ffffffffffffffffffffffffffffffffffffffff021916908373ffffffffffffffffffffffffffffffffffffffff1602179055508173ffffffffffffffffffffffffffffffffffffffff168173ffffffffffffffffffffffffffffffffffffffff167f8be0079c531659141344cd1fd0a4f28419497f9722a3daafe3b4186f6b6457e060405160405180910390a35050565b5f81519050919050565b7f4e487b71000000000000000000000000000000000000000000000000000000005f52604160045260245ffd5b7f4e487b71000000000000000000000000000000000000000000000000000000005f52602260045260245ffd5b5f600282049050600182168061026157607f821691505b6020821081036102745761027361021d565b5b50919050565b5f819050815f5260205f209050919050565b5f6020601f8301049050919050565b5f82821b905092915050565b5f600883026102d67fffffffffffffffffffffffffffffffffffffffffffffffffffffffffffffffff8261029b565b6102e0868361029b565b95508019841693508086168417925050509392505050565b5f819050919050565b5f819050919050565b5f61032461031f61031a846102f8565b610301565b6102f8565b9050919050565b5f819050919050565b61033d8361030a565b6103516103498261032b565b8484546102a7565b825550505050565b5f5f905090565b610368610359565b610373818484610334565b505050565b5b818110156103965761038b5f82610360565b600181019050610379565b5050565b601f8211156103db576103ac8161027a565b6103b58461028c565b810160208510156103c4578190505b6103d86103d08561028c565b830182610378565b50505b505050565b5f82821c905092915050565b5f6103fb5f19846008026103e0565b1980831691505092915050565b5f61041383836103ec565b9150826002028217905092915050565b61042c826101e6565b67ffffffffffffffff811115610445576104446101f0565b5b61044f825461024a565b61045a82828561039a565b5f60209050601f83116001811461048b575f8415610479578287015190505b6104838582610408565b8655506104ea565b601f1984166104998661027a565b5f5b828110156104c05784890151825560018201915060208501945060208101905061049b565b868310156104dd57848901516104d9601f8916826103ec565b8355505b6001600288020188555050505b505050505050565b5f73ffffffffffffffffffffffffffffffffffffffff82169050919050565b5f61051b826104f2565b9050919050565b61052b81610511565b82525050565b5f6020820190506105445f830184610522565b92915050565b6125bf806105575f395ff3fe608060405234801561000f575f5ffd5b506004361061014b575f3560e01c8063715018a6116100c1578063c87b56dd1161007a578063c87b56dd14610371578063c97336f3146103a1578063d405706d146103ab578063e985e9c5146103de578063f2fde38b1461040e578063fc23c5dc1461042a5761014b565b8063715018a6146102d757806382e13bf8146102e15780638da5cb5b146102fd57806395d89b411461031b578063a22cb46514610339578063b88d4fde146103555761014b565b8063289c93b511610113578063289c93b51461020557806340c10f191461022157806342842e0e1461023d578063547ebecb146102595780636352211e1461027757806370a08231146102a75761014b565b806301ffc9a71461014f57806306fdde031461017f578063081812fc1461019d578063095ea7b3146101cd57806323b872dd146101e9575b5f5ffd5b61016960048036038101906101649190611c3f565b61045a565b6040516101769190611c84565b60405180910390f35b61018761053b565b6040516101949190611d0d565b60405180910390f35b6101b760048036038101906101b29190611d60565b6105ca565b6040516101c49190611dca565b60405180910390f35b6101e760048036038101906101e29190611e0d565b6105e5565b005b61020360048036038101906101fe9190611e4b565b6105fb565b005b61021f600480360381019061021a9190611e9b565b6106fa565b005b61023b60048036038101906102369190611e0d565b6107b3565b005b61025760048036038101906102529190611e4b565b610825565b005b610261610844565b60405161026e9190611dca565b60405180910390f35b610291600480360381019061028c9190611d60565b610869565b60405161029e9190611dca565b60405180910390f35b6102c160048036038101906102bc9190611e9b565b61087a565b6040516102ce9190611ed5565b60405180910390f35b6102df610930565b005b6102fb60048036038101906102f69190611eee565b610943565b005b6103056109b5565b6040516103129190611dca565b60405180910390f35b6103236109dd565b6040516103309190611d0d565b60405180910390f35b610353600480360381019061034e9190611f8f565b610a6d565b005b61036f600480360381019061036a91906120f9565b610a83565b005b61038b60048036038101906103869190611d60565b610aa8565b6040516103989190611d0d565b60405180910390f35b6103a9610b0e565b005b6103c560048036038101906103c09190611d60565b610bdb565b6040516103d59493929190612179565b60405180910390f35b6103f860048036038101906103f391906121bc565b610c07565b6040516104059190611c84565b60405180910390f35b61042860048036038101906104239190611e9b565b610c95565b005b610444600480360381019061043f9190611d60565b610d19565b604051610451919061225c565b60405180910390f35b5f7f80ac58cd000000000000000000000000000000000000000000000000000000007bffffffffffffffffffffffffffffffffffffffffffffffffffffffff1916827bffffffffffffffffffffffffffffffffffffffffffffffffffffffff1916148061052457507f5b5e139f000000000000000000000000000000000000000000000000000000007bffffffffffffffffffffffffffffffffffffffffffffffffffffffff1916827bffffffffffffffffffffffffffffffffffffffffffffffffffffffff1916145b80610534575061053382610d6b565b5b9050919050565b60605f8054610549906122a2565b80601f0160208091040260200160405190810160405280929190818152602001828054610575906122a2565b80156105c05780601f10610597576101008083540402835291602001916105c0565b820191905f5260205f20905b8154815290600101906020018083116105a357829003601f168201915b5050505050905090565b5f6105d482610dd4565b506105de82610e5a565b9050919050565b6105f782826105f2610e93565b610e9a565b5050565b5f73ffffffffffffffffffffffffffffffffffffffff168273ffffffffffffffffffffffffffffffffffffffff160361066b575f6040517f64a0ae920000000000000000000000000000000000000000000000000000000081526004016106629190611dca565b60405180910390fd5b5f61067e8383610679610e93565b610eac565b90508373ffffffffffffffffffffffffffffffffffffffff168173ffffffffffffffffffffffffffffffffffffffff16146106f4578382826040517f64283d7b0000000000000000000000000000000000000000000000000000000081526004016106eb939291906122d2565b60405180910390fd5b50505050565b6107026110b7565b5f73ffffffffffffffffffffffffffffffffffffffff168173ffffffffffffffffffffffffffffffffffffffff1603610770576040517f08c379a000000000000000000000000000000000000000000000000000000000815260040161076790612351565b60405180910390fd5b8060085f6101000a81548173ffffffffffffffffffffffffffffffffffffffff021916908373ffffffffffffffffffffffffffffffffffffffff16021790555050565b6107bb6110b7565b6107c5828261113e565b6040518060800160405280606481526020015f81526020015f81526020015f81525060075f8381526020019081526020015f205f820151815f01556020820151816001015560408201518160020155606082015181600301559050505050565b61083f83838360405180602001604052805f815250610a83565b505050565b60085f9054906101000a900473ffffffffffffffffffffffffffffffffffffffff1681565b5f61087382610dd4565b9050919050565b5f5f73ffffffffffffffffffffffffffffffffffffffff168273ffffffffffffffffffffffffffffffffffffffff16036108eb575f6040517f89c62b640000000000000000000000000000000000000000000000000000000081526004016108e29190611dca565b60405180910390fd5b60035f8373ffffffffffffffffffffffffffffffffffffffff1673ffffffffffffffffffffffffffffffffffffffff1681526020019081526020015f20549050919050565b6109386110b7565b6109415f611231565b565b61094b6110b7565b8360075f8781526020019081526020015f205f01819055508260075f8781526020019081526020015f20600101819055508160075f8781526020019081526020015f20600201819055508060075f8781526020019081526020015f20600301819055505050505050565b5f60065f9054906101000a900473ffffffffffffffffffffffffffffffffffffffff16905090565b6060600180546109ec906122a2565b80601f0160208091040260200160405190810160405280929190818152602001828054610a18906122a2565b8015610a635780601f10610a3a57610100808354040283529160200191610a63565b820191905f5260205f20905b815481529060010190602001808311610a4657829003601f168201915b5050505050905090565b610a7f610a78610e93565b83836112f4565b5050565b610a8e8484846105fb565b610aa2610a99610e93565b8585858561145d565b50505050565b6060610ab382610dd4565b505f610abd611609565b90505f815111610adb5760405180602001604052805f815250610b06565b80610ae58461161f565b604051602001610af69291906123a9565b6040516020818303038152906040525b915050919050565b5f3373ffffffffffffffffffffffffffffffffffffffff1690505f610b323361087a565b14610b72576040517f08c379a0000000000000000000000000000000000000000000000000000000008152600401610b699061243c565b60405180910390fd5b610b7c338261113e565b6040518060800160405280606481526020015f81526020015f81526020015f81525060075f8381526020019081526020015f205f820151815f015560208201518160010155604082015181600201556060820151816003015590505050565b6007602052805f5260405f205f91509050805f0154908060010154908060020154908060030154905084565b5f60055f8473ffffffffffffffffffffffffffffffffffffffff1673ffffffffffffffffffffffffffffffffffffffff1681526020019081526020015f205f8373ffffffffffffffffffffffffffffffffffffffff1673ffffffffffffffffffffffffffffffffffffffff1681526020019081526020015f205f9054906101000a900460ff16905092915050565b610c9d6110b7565b5f73ffffffffffffffffffffffffffffffffffffffff168173ffffffffffffffffffffffffffffffffffffffff1603610d0d575f6040517f1e4fbdf7000000000000000000000000000000000000000000000000000000008152600401610d049190611dca565b60405180910390fd5b610d1681611231565b50565b610d21611bb5565b60075f8381526020019081526020015f206040518060800160405290815f820154815260200160018201548152602001600282015481526020016003820154815250509050919050565b5f7f01ffc9a7000000000000000000000000000000000000000000000000000000007bffffffffffffffffffffffffffffffffffffffffffffffffffffffff1916827bffffffffffffffffffffffffffffffffffffffffffffffffffffffff1916149050919050565b5f5f610ddf836116e9565b90505f73ffffffffffffffffffffffffffffffffffffffff168173ffffffffffffffffffffffffffffffffffffffff1603610e5157826040517f7e273289000000000000000000000000000000000000000000000000000000008152600401610e489190611ed5565b60405180910390fd5b80915050919050565b5f60045f8381526020019081526020015f205f9054906101000a900473ffffffffffffffffffffffffffffffffffffffff169050919050565b5f33905090565b610ea78383836001611722565b505050565b5f5f610eb7846116e9565b90505f73ffffffffffffffffffffffffffffffffffffffff168373ffffffffffffffffffffffffffffffffffffffff1614610ef857610ef78184866118e1565b5b5f73ffffffffffffffffffffffffffffffffffffffff168173ffffffffffffffffffffffffffffffffffffffff1614610f8357610f375f855f5f611722565b600160035f8373ffffffffffffffffffffffffffffffffffffffff1673ffffffffffffffffffffffffffffffffffffffff1681526020019081526020015f205f82825403925050819055505b5f73ffffffffffffffffffffffffffffffffffffffff168573ffffffffffffffffffffffffffffffffffffffff161461100257600160035f8773ffffffffffffffffffffffffffffffffffffffff1673ffffffffffffffffffffffffffffffffffffffff1681526020019081526020015f205f82825401925050819055505b8460025f8681526020019081526020015f205f6101000a81548173ffffffffffffffffffffffffffffffffffffffff021916908373ffffffffffffffffffffffffffffffffffffffff160217905550838573ffffffffffffffffffffffffffffffffffffffff168273ffffffffffffffffffffffffffffffffffffffff167fddf252ad1be2c89b69c2b068fc378daa952ba7f163c4a11628f55a4df523b3ef60405160405180910390a4809150509392505050565b6110bf610e93565b73ffffffffffffffffffffffffffffffffffffffff166110dd6109b5565b73ffffffffffffffffffffffffffffffffffffffff161461113c57611100610e93565b6040517f118cdaa70000000000000000000000000000000000000000000000000000000081526004016111339190611dca565b60405180910390fd5b565b5f73ffffffffffffffffffffffffffffffffffffffff168273ffffffffffffffffffffffffffffffffffffffff16036111ae575f6040517f64a0ae920000000000000000000000000000000000000000000000000000000081526004016111a59190611dca565b60405180910390fd5b5f6111ba83835f610eac565b90505f73ffffffffffffffffffffffffffffffffffffffff168173ffffffffffffffffffffffffffffffffffffffff161461122c575f6040517f73c6ac6e0000000000000000000000000000000000000000000000000000000081526004016112239190611dca565b60405180910390fd5b505050565b5f60065f9054906101000a900473ffffffffffffffffffffffffffffffffffffffff1690508160065f6101000a81548173ffffffffffffffffffffffffffffffffffffffff021916908373ffffffffffffffffffffffffffffffffffffffff1602179055508173ffffffffffffffffffffffffffffffffffffffff168173ffffffffffffffffffffffffffffffffffffffff167f8be0079c531659141344cd1fd0a4f28419497f9722a3daafe3b4186f6b6457e060405160405180910390a35050565b5f73ffffffffffffffffffffffffffffffffffffffff168273ffffffffffffffffffffffffffffffffffffffff160361136457816040517f5b08ba1800000000000000000000000000000000000000000000000000000000815260040161135b9190611dca565b60405180910390fd5b8060055f8573ffffffffffffffffffffffffffffffffffffffff1673ffffffffffffffffffffffffffffffffffffffff1681526020019081526020015f205f8473ffffffffffffffffffffffffffffffffffffffff1673ffffffffffffffffffffffffffffffffffffffff1681526020019081526020015f205f6101000a81548160ff0219169083151502179055508173ffffffffffffffffffffffffffffffffffffffff168373ffffffffffffffffffffffffffffffffffffffff167f17307eab39ab6107e8899845ad3d59bd9653f200f220920489ca2b5937696c31836040516114509190611c84565b60405180910390a3505050565b5f8373ffffffffffffffffffffffffffffffffffffffff163b1115611602578273ffffffffffffffffffffffffffffffffffffffff1663150b7a02868685856040518563ffffffff1660e01b81526004016114bb94939291906124ac565b6020604051808303815f875af19250505080156114f657506040513d601f19601f820116820180604052508101906114f3919061250a565b60015b611577573d805f8114611524576040519150601f19603f3d011682016040523d82523d5f602084013e611529565b606091505b505f81510361156f57836040517f64a0ae920000000000000000000000000000000000000000000000000000000081526004016115669190611dca565b60405180910390fd5b805160208201fd5b63150b7a0260e01b7bffffffffffffffffffffffffffffffffffffffffffffffffffffffff1916817bffffffffffffffffffffffffffffffffffffffffffffffffffffffff19161461160057836040517f64a0ae920000000000000000000000000000000000000000000000000000000081526004016115f79190611dca565b60405180910390fd5b505b5050505050565b606060405180602001604052805f815250905090565b60605f600161162d846119a4565b0190505f8167ffffffffffffffff81111561164b5761164a611fd5565b5b6040519080825280601f01601f19166020018201604052801561167d5781602001600182028036833780820191505090505b5090505f82602083010190505b6001156116de578080600190039150507f3031323334353637383961626364656600000000000000000000000000000000600a86061a8153600a85816116d3576116d2612535565b5b0494505f850361168a575b819350505050919050565b5f60025f8381526020019081526020015f205f9054906101000a900473ffffffffffffffffffffffffffffffffffffffff169050919050565b808061175a57505f73ffffffffffffffffffffffffffffffffffffffff168273ffffffffffffffffffffffffffffffffffffffff1614155b1561188c575f61176984610dd4565b90505f73ffffffffffffffffffffffffffffffffffffffff168373ffffffffffffffffffffffffffffffffffffffff16141580156117d357508273ffffffffffffffffffffffffffffffffffffffff168173ffffffffffffffffffffffffffffffffffffffff1614155b80156117e657506117e48184610c07565b155b1561182857826040517fa9fbf51f00000000000000000000000000000000000000000000000000000000815260040161181f9190611dca565b60405180910390fd5b811561188a57838573ffffffffffffffffffffffffffffffffffffffff168273ffffffffffffffffffffffffffffffffffffffff167f8c5be1e5ebec7d5bd14f71427d1e84f3dd0314c0f7b2291e5b200ac8c7c3b92560405160405180910390a45b505b8360045f8581526020019081526020015f205f6101000a81548173ffffffffffffffffffffffffffffffffffffffff021916908373ffffffffffffffffffffffffffffffffffffffff16021790555050505050565b6118ec838383611af5565b61199f575f73ffffffffffffffffffffffffffffffffffffffff168373ffffffffffffffffffffffffffffffffffffffff160361196057806040517f7e2732890000000000000000000000000000000000000000000000000000000081526004016119579190611ed5565b60405180910390fd5b81816040517f177e802f000000000000000000000000000000000000000000000000000000008152600401611996929190612562565b60405180910390fd5b505050565b5f5f5f90507a184f03e93ff9f4daa797ed6e38ed64bf6a1f0100000000000000008310611a00577a184f03e93ff9f4daa797ed6e38ed64bf6a1f01000000000000000083816119f6576119f5612535565b5b0492506040810190505b6d04ee2d6d415b85acef81000000008310611a3d576d04ee2d6d415b85acef81000000008381611a3357611a32612535565b5b0492506020810190505b662386f26fc100008310611a6c57662386f26fc100008381611a6257611a61612535565b5b0492506010810190505b6305f5e1008310611a95576305f5e1008381611a8b57611a8a612535565b5b0492506008810190505b6127108310611aba576127108381611ab057611aaf612535565b5b0492506004810190505b60648310611add5760648381611ad357611ad2612535565b5b0492506002810190505b600a8310611aec576001810190505b80915050919050565b5f5f73ffffffffffffffffffffffffffffffffffffffff168373ffffffffffffffffffffffffffffffffffffffff1614158015611bac57508273ffffffffffffffffffffffffffffffffffffffff168473ffffffffffffffffffffffffffffffffffffffff161480611b6d5750611b6c8484610c07565b5b80611bab57508273ffffffffffffffffffffffffffffffffffffffff16611b9383610e5a565b73ffffffffffffffffffffffffffffffffffffffff16145b5b90509392505050565b60405180608001604052805f81526020015f81526020015f81526020015f81525090565b5f604051905090565b5f5ffd5b5f5ffd5b5f7fffffffff0000000000000000000000000000000000000000000000000000000082169050919050565b611c1e81611bea565b8114611c28575f5ffd5b50565b5f81359050611c3981611c15565b92915050565b5f60208284031215611c5457611c53611be2565b5b5f611c6184828501611c2b565b91505092915050565b5f8115159050919050565b611c7e81611c6a565b82525050565b5f602082019050611c975f830184611c75565b92915050565b5f81519050919050565b5f82825260208201905092915050565b8281835e5f83830152505050565b5f601f19601f8301169050919050565b5f611cdf82611c9d565b611ce98185611ca7565b9350611cf9818560208601611cb7565b611d0281611cc5565b840191505092915050565b5f6020820190508181035f830152611d258184611cd5565b905092915050565b5f819050919050565b611d3f81611d2d565b8114611d49575f5ffd5b50565b5f81359050611d5a81611d36565b92915050565b5f60208284031215611d7557611d74611be2565b5b5f611d8284828501611d4c565b91505092915050565b5f73ffffffffffffffffffffffffffffffffffffffff82169050919050565b5f611db482611d8b565b9050919050565b611dc481611daa565b82525050565b5f602082019050611ddd5f830184611dbb565b92915050565b611dec81611daa565b8114611df6575f5ffd5b50565b5f81359050611e0781611de3565b92915050565b5f5f60408385031215611e2357611e22611be2565b5b5f611e3085828601611df9565b9250506020611e4185828601611d4c565b9150509250929050565b5f5f5f60608486031215611e6257611e61611be2565b5b5f611e6f86828701611df9565b9350506020611e8086828701611df9565b9250506040611e9186828701611d4c565b9150509250925092565b5f60208284031215611eb057611eaf611be2565b5b5f611ebd84828501611df9565b91505092915050565b611ecf81611d2d565b82525050565b5f602082019050611ee85f830184611ec6565b92915050565b5f5f5f5f5f60a08688031215611f0757611f06611be2565b5b5f611f1488828901611d4c565b9550506020611f2588828901611d4c565b9450506040611f3688828901611d4c565b9350506060611f4788828901611d4c565b9250506080611f5888828901611d4c565b9150509295509295909350565b611f6e81611c6a565b8114611f78575f5ffd5b50565b5f81359050611f8981611f65565b92915050565b5f5f60408385031215611fa557611fa4611be2565b5b5f611fb285828601611df9565b9250506020611fc385828601611f7b565b9150509250929050565b5f5ffd5b5f5ffd5b7f4e487b71000000000000000000000000000000000000000000000000000000005f52604160045260245ffd5b61200b82611cc5565b810181811067ffffffffffffffff8211171561202a57612029611fd5565b5b80604052505050565b5f61203c611bd9565b90506120488282612002565b919050565b5f67ffffffffffffffff82111561206757612066611fd5565b5b61207082611cc5565b9050602081019050919050565b828183375f83830152505050565b5f61209d6120988461204d565b612033565b9050828152602081018484840111156120b9576120b8611fd1565b5b6120c484828561207d565b509392505050565b5f82601f8301126120e0576120df611fcd565b5b81356120f084826020860161208b565b91505092915050565b5f5f5f5f6080858703121561211157612110611be2565b5b5f61211e87828801611df9565b945050602061212f87828801611df9565b935050604061214087828801611d4c565b925050606085013567ffffffffffffffff81111561216157612160611be6565b5b61216d878288016120cc565b91505092959194509250565b5f60808201905061218c5f830187611ec6565b6121996020830186611ec6565b6121a66040830185611ec6565b6121b36060830184611ec6565b95945050505050565b5f5f604083850312156121d2576121d1611be2565b5b5f6121df85828601611df9565b92505060206121f085828601611df9565b9150509250929050565b61220381611d2d565b82525050565b608082015f82015161221d5f8501826121fa565b50602082015161223060208501826121fa565b50604082015161224360408501826121fa565b50606082015161225660608501826121fa565b50505050565b5f60808201905061226f5f830184612209565b92915050565b7f4e487b71000000000000000000000000000000000000000000000000000000005f52602260045260245ffd5b5f60028204905060018216806122b957607f821691505b6020821081036122cc576122cb612275565b5b50919050565b5f6060820190506122e55f830186611dbb565b6122f26020830185611ec6565b6122ff6040830184611dbb565b949350505050565b7f496e76616c6964206164647265737300000000000000000000000000000000005f82015250565b5f61233b600f83611ca7565b915061234682612307565b602082019050919050565b5f6020820190508181035f8301526123688161232f565b9050919050565b5f81905092915050565b5f61238382611c9d565b61238d818561236f565b935061239d818560208601611cb7565b80840191505092915050565b5f6123b48285612379565b91506123c08284612379565b91508190509392505050565b7f54656e616e742050617373706f727420616c72656164792065786973747320665f8201527f6f72207468697320616464726573730000000000000000000000000000000000602082015250565b5f612426602f83611ca7565b9150612431826123cc565b604082019050919050565b5f6020820190508181035f8301526124538161241a565b9050919050565b5f81519050919050565b5f82825260208201905092915050565b5f61247e8261245a565b6124888185612464565b9350612498818560208601611cb7565b6124a181611cc5565b840191505092915050565b5f6080820190506124bf5f830187611dbb565b6124cc6020830186611dbb565b6124d96040830185611ec6565b81810360608301526124eb8184612474565b905095945050505050565b5f8151905061250481611c15565b92915050565b5f6020828403121561251f5761251e611be2565b5b5f61252c848285016124f6565b91505092915050565b7f4e487b71000000000000000000000000000000000000000000000000000000005f52601260045260245ffd5b5f6040820190506125755f830185611dbb565b6125826020830184611ec6565b939250505056fea26469706673582212201dd7ff148725dbf969d420817c8ad5c7fe518a8841931ff459f1f11daf44a91664736f6c634300081e0033","linkReferences":{}},"methodIdentifiers":{"approve(address,uint256)":"095ea7b3","balanceOf(address)":"70a08231","getApproved(uint256)":"081812fc","getTenantInfo(uint256)":"fc23c5dc","isApprovedForAll(address,address)":"e985e9c5","mint(address,uint256)":"40c10f19","mintForSelf()":"c97336f3","name()":"06fdde03","owner()":"8da5cb5b","ownerOf(uint256)":"6352211e","renounceOwnership()":"715018a6","rentalAgreementAddress()":"547ebecb","safeTransferFrom(address,address,uint256)":"42842e0e","safeTransferFrom(address,address,uint256,bytes)":"b88d4fde","setApprovalForAll(address,bool)":"a22cb465","setRentalAgreementAddress(address)":"289c93b5","supportsInterface(bytes4)":"01ffc9a7","symbol()":"95d89b41","tenantInfo(uint256)":"d405706d","tokenURI(uint256)":"c87b56dd","transferFrom(address,address,uint256)":"23b872dd","transferOwnership(address)":"f2fde38b","updateTenantInfo(uint256,uint256,uint256,uint256,uint256)":"82e13bf8"},"id":37}