{"abi":[{"type":"constructor","inputs":[{"name":"_landlord","type":"address","internalType":"address"},{"name":"_tenants","type":"address[]","internalType":"address[]"},{"name":"_passportIds","type":"uint256[]","internalType":"uint256[]"},{"name":"_rentAmount","type":"uint256","internalType":"uint256"},{"name":"_depositAmount","type":"uint256","internalType":"uint256"},{"name":"_paymentDayStart","type":"uint256","internalType":"uint256"},{"name":"_paymentDayEnd","type":"uint256","internalType":"uint256"},{"name":"_passportAddress","type":"address","internalType":"address"},{"name":"_tokenAddress","type":"address","internalType":"address"},{"name":"_interestGeneratorAddress","type":"address","internalType":"address"}],"stateMutability":"nonpayable"},{"type":"function","name":"currentState","inputs":[],"outputs":[{"name":"","type":"uint8","internalType":"enum RentalAgreement.AgreementState"}],"stateMutability":"view"},{"type":"function","name":"deposit","inputs":[{"name":"amount","type":"uint256","internalType":"uint256"}],"outputs":[],"stateMutability":"nonpayable"},{"type":"function","name":"depositAmount","inputs":[],"outputs":[{"name":"","type":"uint256","internalType":"uint256"}],"stateMutability":"view"},{"type":"function","name":"depositToVault","inputs":[{"name":"_amount","type":"uint256","internalType":"uint256"}],"outputs":[],"stateMutability":"nonpayable"},{"type":"function","name":"fundsPooled","inputs":[],"outputs":[{"name":"","type":"uint256","internalType":"uint256"}],"stateMutability":"view"},{"type":"function","name":"getVaultBalance","inputs":[],"outputs":[{"name":"","type":"uint256","internalType":"uint256"}],"stateMutability":"view"},{"type":"function","name":"interestGenerator","inputs":[],"outputs":[{"name":"","type":"address","internalType":"contract IMXNBInterestGenerator"}],"stateMutability":"view"},{"type":"function","name":"isTenant","inputs":[{"name":"","type":"address","internalType":"address"}],"outputs":[{"name":"","type":"bool","internalType":"bool"}],"stateMutability":"view"},{"type":"function","name":"landlord","inputs":[],"outputs":[{"name":"","type":"address","internalType":"address"}],"stateMutability":"view"},{"type":"function","name":"landlordWithdraw","inputs":[{"name":"_amount","type":"uint256","internalType":"uint256"}],"outputs":[],"stateMutability":"nonpayable"},{"type":"function","name":"mxnbToken","inputs":[],"outputs":[{"name":"","type":"address","internalType":"contract IERC20"}],"stateMutability":"view"},{"type":"function","name":"payRent","inputs":[],"outputs":[],"stateMutability":"nonpayable"},{"type":"function","name":"paymentDayEnd","inputs":[],"outputs":[{"name":"","type":"uint256","internalType":"uint256"}],"stateMutability":"view"},{"type":"function","name":"paymentDayStart","inputs":[],"outputs":[{"name":"","type":"uint256","internalType":"uint256"}],"stateMutability":"view"},{"type":"function","name":"rentAmount","inputs":[],"outputs":[{"name":"","type":"uint256","internalType":"uint256"}],"stateMutability":"view"},{"type":"function","name":"tenantContributions","inputs":[{"name":"","type":"address","internalType":"address"}],"outputs":[{"name":"","type":"uint256","internalType":"uint256"}],"stateMutability":"view"},{"type":"function","name":"tenantPassport","inputs":[],"outputs":[{"name":"","type":"address","internalType":"contract TenantPassport"}],"stateMutability":"view"},{"type":"function","name":"tenantPassportId","inputs":[{"name":"","type":"address","internalType":"address"}],"outputs":[{"name":"","type":"uint256","internalType":"uint256"}],"stateMutability":"view"},{"type":"function","name":"tenants","inputs":[{"name":"","type":"uint256","internalType":"uint256"}],"outputs":[{"name":"","type":"address","internalType":"address"}],"stateMutability":"view"},{"type":"function","name":"totalGoal","inputs":[],"outputs":[{"name":"","type":"uint256","internalType":"uint256"}],"stateMutability":"view"},{"type":"function","name":"withdrawFromVault","inputs":[{"name":"_amount","type":"uint256","internalType":"uint256"}],"outputs":[],"stateMutability":"nonpayable"},{"type":"event","name":"AgreementActivated","inputs":[{"name":"totalAmount","type":"uint256","indexed":false,"internalType":"uint256"}],"anonymous":false},{"type":"event","name":"FundsDeposited","inputs":[{"name":"tenant","type":"address","indexed":true,"internalType":"address"},{"name":"amount","type":"uint256","indexed":false,"internalType":"uint256"}],"anonymous":false},{"type":"event","name":"RentPaid","inputs":[{"name":"tenant","type":"address","indexed":true,"internalType":"address"},{"name":"amount","type":"uint256","indexed":false,"internalType":"uint256"},{"name":"onTime","type":"bool","indexed":false,"internalType":"bool"}],"anonymous":false},{"type":"event","name":"VaultDeposit","inputs":[{"name":"caller","type":"address","indexed":true,"internalType":"address"},{"name":"amount","type":"uint256","indexed":false,"internalType":"uint256"}],"anonymous":false},{"type":"event","name":"VaultWithdrawal","inputs":[{"name":"caller","type":"address","indexed":true,"internalType":"address"},{"name":"amount","type":"uint256","indexed":false,"internalType":"uint256"}],"anonymous":false},{"type":"error","name":"SafeERC20FailedOperation","inputs":[{"name":"token","type":"address","internalType":"address"}]}],"bytecode":{"object":"0x6080604052346103f3576112c8803803806100198161040f565b928339810190610140818303126103f35761003381610434565b60208201519091906001600160401b0381116103f35781019183601f840112156103f35782519261006b61006685610448565b61040f565b9360208086838152019160051b830101918683116103f357602001905b8282106103f75750505060408201516001600160401b0381116103f35782019380601f860112156103f35784516100c161006682610448565b9560208088848152019260051b8201019283116103f357602001905b8282106103e35750505060608201519060808301519260a081015160c082015161010960e08401610434565b9161012461012061011d6101008701610434565b9501610434565b88518a510361039e576001600160a01b031694851561034e5760018060a01b031660018060a01b031960035416176003558560075586600855600d55600e5560018060a01b031660018060a01b03195f5416175f5560018060a01b031660018060a01b0319600154161760015560018060a01b03196002541617600255810180911161033a5760095560ff19600c5416600c555f5b81518110156102de576001600160a01b036101d4828461045f565b511690811561029957815f52600560205260405f20600160ff1982541617905560045491680100000000000000008310156102855760018301806004558310156102715760045f527f8a35acfbc15ff81a39ae7d344fd709f28e8600b4aa8c65c6b64bfe7fe36bd19b90920180546001600160a01b0319168317905560019161025d828661045f565b51905f52600660205260405f2055016101b9565b634e487b7160e01b5f52603260045260245ffd5b634e487b7160e01b5f52604160045260245ffd5b60405162461bcd60e51b815260206004820152601e60248201527f416464726573732064656c20696e7175696c696e6f20696e76616c69646f00006044820152606490fd5b600454156102f557604051610e5490816104748239f35b60405162461bcd60e51b815260206004820152601460248201527f4e6f2074656e616e7473207370656369666965640000000000000000000000006044820152606490fd5b634e487b7160e01b5f52601160045260245ffd5b60405162461bcd60e51b815260206004820152602260248201527f496e76616c696420696e7465726573742067656e657261746f72206164647265604482015261737360f01b6064820152608490fd5b60405162461bcd60e51b815260206004820152601860248201527f4172726179206c656e67746873206d757374206d6174636800000000000000006044820152606490fd5b81518152602091820191016100dd565b5f80fd5b6020809161040484610434565b815201910190610088565b6040519190601f01601f191682016001600160401b0381118382101761028557604052565b51906001600160a01b03821682036103f357565b6001600160401b0381116102855760051b60200190565b80518210156102715760209160051b01019056fe60806040526004361015610011575f80fd5b5f5f3560e01c8063076d081514610aed57806309e841cc14610acf5780630c3f6acf14610aa357806312807a4e14610a855780631780540714610a5e57806329c2629814610a405780632d31c81e14610a0357806337f2e48a146109c15780634043cd9514610998578063419759f51461097a5780634c8059211461093d57806368790eb51461091f578063a709c4fe146106aa578063b0462296146104ca578063b565a233146103ca578063b6b55f251461026c578063bd2ba85d1461020c578063cc7106fc146101e3578063dc1997ea146101ba578063ed12e8ef146101215763f8ef1e1314610101575f80fd5b3461011e578060031936011261011e576020600754604051908152f35b80fd5b503461011e578060031936011261011e576002546040516370a0823160e01b81523060048201529190602090839060249082906001600160a01b03165afa9081156101ae5790610177575b602090604051908152f35b506020813d6020116101a6575b8161019160209383610c46565b810103126101a2576020905161016c565b5f80fd5b3d9150610184565b604051903d90823e3d90fd5b503461011e578060031936011261011e576003546040516001600160a01b039091168152602090f35b503461011e578060031936011261011e576002546040516001600160a01b039091168152602090f35b503461011e57602036600319011261011e576004356004548110156102685760049091527f8a35acfbc15ff81a39ae7d344fd709f28e8600b4aa8c65c6b64bfe7fe36bd19b01546040516001600160a01b039091168152602090f35b5080fd5b503461011e57602036600319011261011e57600435338252600560205261029960ff604084205416610c7c565b60ff600c541660048110156103b6576102b29015610cc8565b8015610372576001546102d3908290309033906001600160a01b0316610d80565b338252600b602052604082206102ea828254610d14565b90556102f881600a54610d14565b9081600a556040519081527f543ba50a5eec5e6178218e364b1d0f396157b3c8fa278522c2cb7fd99407d47460203392a2600954811015610337575080f35b60207fea49e8aa1bbaa9a7b16632ed4aba908b3c702861a23436c8356e296c228cc27891600160ff19600c541617600c55604051908152a180f35b606460405162461bcd60e51b815260206004820152602060248201527f456c206d6f6e746f207469656e652071756520736572206d61796f72206120306044820152fd5b634e487b7160e01b83526021600452602483fd5b503461011e57602036600319011261011e576003546001600160a01b03166004356103f6338314610bae565b610401811515610bfa565b6001546040516370a0823160e01b81523060048201526001600160a01b0390911690602081602481855afa9081156104bf57859161048b575b506104889361044e84610483931015610d35565b60405163a9059cbb60e01b60208201526001600160a01b03919091166024820152604480820194909452928352606483610c46565b610dc6565b80f35b90506020813d6020116104b7575b816104a660209383610c46565b810103126101a2575161048861043a565b3d9150610499565b6040513d87823e3d90fd5b503461011e57602036600319011261011e576004356104f460018060a01b03600354163314610bae565b6104ff811515610bfa565b6001546040516370a0823160e01b8152306004820152906001600160a01b0316602082602481845afa801561069f5783928591610667575b509160209161054b82610585951015610d35565b60025460405163095ea7b360e01b81526001600160a01b039091166004820152602481019290925290928391908290879082906044820190565b03925af1801561065c57610624575b5060025482906001600160a01b0316803b156102685781809160246040518094819363b6b55f2560e01b83528860048401525af1801561061957610604575b50506040519081527f89d28cf06bdb2ee1b92cd046d58450042ad113e9f4cdabfc4d43e7c5557758d760203392a280f35b8161060e91610c46565b61026857815f6105d3565b6040513d84823e3d90fd5b6020813d602011610654575b8161063d60209383610c46565b8101031261065057518015158114610594575b8280fd5b3d9150610630565b6040513d85823e3d90fd5b9250506020823d602011610697575b8161068360209383610c46565b810103126101a25790518291906020610537565b3d9150610676565b6040513d86823e3d90fd5b503461011e578060031936011261011e5733815260056020526106d360ff604083205416610c7c565b60ff600c5416600481101561090b5760016106ee9114610cc8565b6007546004549081156108f75704906107158260018060a01b036001541630903390610d80565b338152600660205260408082205482549151633f08f17760e21b8152600481018290526001600160a01b0390921693919060a082602481885afa91821561069f578492610861575b5081519460406020840151930151915f19841461084d576064871061081e575b90859691819695963b1561081a578560a49281956001604051988997889663105c277f60e31b88526004880152602487015201604485015260648401528160848401525af1801561061957610805575b5050604051908152600160208201527fa0e44cc6f4f184bc83e145bf7f0cc703b7f698476124cf6a9d7d403d202e77fd60403392a280f35b8161080f91610c46565b61026857815f6107cd565b8580fd5b906001870180971161084d579495939486946064811115610848575060645b96509094939461077d565b61083d565b634e487b7160e01b86526011600452602486fd5b90915060a0813d60a0116108ef575b8161087d60a09383610c46565b810103126108eb576040519060a0820182811067ffffffffffffffff8211176108d757906080916040528051835260208101516020840152604081015160408401526060810151606084015201516080820152905f61075d565b634e487b7160e01b86526041600452602486fd5b8380fd5b3d9150610870565b634e487b7160e01b83526012600452602483fd5b634e487b7160e01b82526021600452602482fd5b503461011e578060031936011261011e576020600d54604051908152f35b503461011e57602036600319011261011e576004356001600160a01b03811690819003610268578160409160209352600683522054604051908152f35b503461011e578060031936011261011e576020600854604051908152f35b503461011e578060031936011261011e576001546040516001600160a01b039091168152602090f35b503461011e57602036600319011261011e576004356001600160a01b038116908190036102685760408260ff9260209452600584522054166040519015158152f35b503461011e57602036600319011261011e576004356001600160a01b03811690819003610268578160409160209352600b83522054604051908152f35b503461011e578060031936011261011e576020600a54604051908152f35b503461011e578060031936011261011e57546040516001600160a01b039091168152602090f35b503461011e578060031936011261011e576020600954604051908152f35b503461011e578060031936011261011e5760ff600c54166040519060048110156103b657602092508152f35b503461011e578060031936011261011e576020600e54604051908152f35b50346101a25760203660031901126101a257600435610b1760018060a01b03600354163314610bae565b610b22811515610bfa565b6002546001600160a01b0316803b156101a2575f8091602460405180948193632e1a7d4d60e01b83528760048401525af18015610ba357610b8e575b506040519081527f26bdf3842d5a4f022330c79f37ffefb624f92f807079cd0324ca8e186a46401a60203392a280f35b610b9b9192505f90610c46565b5f905f610b5e565b6040513d5f823e3d90fd5b15610bb557565b60405162461bcd60e51b815260206004820152601f60248201527f4f6e6c7920746865206c616e646c6f72642063616e2063616c6c2074686973006044820152606490fd5b15610c0157565b60405162461bcd60e51b815260206004820152601d60248201527f416d6f756e74206d7573742062652067726561746572207468616e20300000006044820152606490fd5b90601f8019910116810190811067ffffffffffffffff821117610c6857604052565b634e487b7160e01b5f52604160045260245ffd5b15610c8357565b60405162461bcd60e51b815260206004820152601b60248201527f4f6e6c7920612074656e616e742063616e2063616c6c207468697300000000006044820152606490fd5b15610ccf57565b60405162461bcd60e51b815260206004820152601d60248201527f496e76616c696420737461746520666f72207468697320616374696f6e0000006044820152606490fd5b91908201809211610d2157565b634e487b7160e01b5f52601160045260245ffd5b15610d3c57565b606460405162461bcd60e51b815260206004820152602060248201527f496e73756666696369656e742062616c616e636520696e20636f6e74726163746044820152fd5b6040516323b872dd60e01b60208201526001600160a01b039283166024820152929091166044830152606480830193909352918152610dc491610483608483610c46565b565b905f602091828151910182855af115610ba3575f513d610e1557506001600160a01b0381163b155b610df55750565b635274afe760e01b5f9081526001600160a01b0391909116600452602490fd5b60011415610dee56fea26469706673582212200b7ba5950aea0096fda2726a6cb784f1d71e8d79be800bdd9e51762770d3193564736f6c634300081e0033","linkReferences":{}},"methodIdentifiers":{"currentState()":"0c3f6acf","deposit(uint256)":"b6b55f25","depositAmount()":"419759f5","depositToVault(uint256)":"b0462296","fundsPooled()":"29c26298","getVaultBalance()":"ed12e8ef","interestGenerator()":"cc7106fc","isTenant(address)":"37f2e48a","landlord()":"dc1997ea","landlordWithdraw(uint256)":"b565a233","mxnbToken()":"4043cd95","payRent()":"a709c4fe","paymentDayEnd()":"09e841cc","paymentDayStart()":"68790eb5","rentAmount()":"f8ef1e13","tenantContributions(address)":"2d31c81e","tenantPassport()":"17805407","tenantPassportId(address)":"4c805921","tenants(uint256)":"bd2ba85d","totalGoal()":"12807a4e","withdrawFromVault(uint256)":"076d0815"},"id":40}