{"abi":[{"type":"constructor","inputs":[{"name":"_landlord","type":"address","internalType":"address"},{"name":"_tenants","type":"address[]","internalType":"address[]"},{"name":"_passportIds","type":"uint256[]","internalType":"uint256[]"},{"name":"_rentAmount","type":"uint256","internalType":"uint256"},{"name":"_depositAmount","type":"uint256","internalType":"uint256"},{"name":"_paymentDayStart","type":"uint256","internalType":"uint256"},{"name":"_paymentDayEnd","type":"uint256","internalType":"uint256"},{"name":"_passportAddress","type":"address","internalType":"address"},{"name":"_tokenAddress","type":"address","internalType":"address"},{"name":"_interestGeneratorAddress","type":"address","internalType":"address"}],"stateMutability":"nonpayable"},{"type":"function","name":"currentState","inputs":[],"outputs":[{"name":"","type":"uint8","internalType":"enum RentalAgreement.AgreementState"}],"stateMutability":"view"},{"type":"function","name":"deposit","inputs":[{"name":"amount","type":"uint256","internalType":"uint256"}],"outputs":[],"stateMutability":"nonpayable"},{"type":"function","name":"depositAmount","inputs":[],"outputs":[{"name":"","type":"uint256","internalType":"uint256"}],"stateMutability":"view"},{"type":"function","name":"depositToVault","inputs":[{"name":"_amount","type":"uint256","internalType":"uint256"}],"outputs":[],"stateMutability":"nonpayable"},{"type":"function","name":"fundsPooled","inputs":[],"outputs":[{"name":"","type":"uint256","internalType":"uint256"}],"stateMutability":"view"},{"type":"function","name":"getVaultBalance","inputs":[],"outputs":[{"name":"","type":"uint256","internalType":"uint256"}],"stateMutability":"view"},{"type":"function","name":"interestGenerator","inputs":[],"outputs":[{"name":"","type":"address","internalType":"contract IMXNBInterestGenerator"}],"stateMutability":"view"},{"type":"function","name":"isTenant","inputs":[{"name":"","type":"address","internalType":"address"}],"outputs":[{"name":"","type":"bool","internalType":"bool"}],"stateMutability":"view"},{"type":"function","name":"landlord","inputs":[],"outputs":[{"name":"","type":"address","internalType":"address"}],"stateMutability":"view"},{"type":"function","name":"landlordWithdraw","inputs":[{"name":"_amount","type":"uint256","internalType":"uint256"}],"outputs":[],"stateMutability":"nonpayable"},{"type":"function","name":"mxnbToken","inputs":[],"outputs":[{"name":"","type":"address","internalType":"contract IERC20"}],"stateMutability":"view"},{"type":"function","name":"payRent","inputs":[],"outputs":[],"stateMutability":"nonpayable"},{"type":"function","name":"paymentDayEnd","inputs":[],"outputs":[{"name":"","type":"uint256","internalType":"uint256"}],"stateMutability":"view"},{"type":"function","name":"paymentDayStart","inputs":[],"outputs":[{"name":"","type":"uint256","internalType":"uint256"}],"stateMutability":"view"},{"type":"function","name":"rentAmount","inputs":[],"outputs":[{"name":"","type":"uint256","internalType":"uint256"}],"stateMutability":"view"},{"type":"function","name":"tenantContributions","inputs":[{"name":"","type":"address","internalType":"address"}],"outputs":[{"name":"","type":"uint256","internalType":"uint256"}],"stateMutability":"view"},{"type":"function","name":"tenantPassport","inputs":[],"outputs":[{"name":"","type":"address","internalType":"contract TenantPassport"}],"stateMutability":"view"},{"type":"function","name":"tenantPassportId","inputs":[{"name":"","type":"address","internalType":"address"}],"outputs":[{"name":"","type":"uint256","internalType":"uint256"}],"stateMutability":"view"},{"type":"function","name":"tenants","inputs":[{"name":"","type":"uint256","internalType":"uint256"}],"outputs":[{"name":"","type":"address","internalType":"address"}],"stateMutability":"view"},{"type":"function","name":"totalGoal","inputs":[],"outputs":[{"name":"","type":"uint256","internalType":"uint256"}],"stateMutability":"view"},{"type":"function","name":"withdrawFromVault","inputs":[{"name":"_amount","type":"uint256","internalType":"uint256"}],"outputs":[],"stateMutability":"nonpayable"},{"type":"event","name":"AgreementActivated","inputs":[{"name":"totalAmount","type":"uint256","indexed":false,"internalType":"uint256"}],"anonymous":false},{"type":"event","name":"FundsDeposited","inputs":[{"name":"tenant","type":"address","indexed":true,"internalType":"address"},{"name":"amount","type":"uint256","indexed":false,"internalType":"uint256"}],"anonymous":false},{"type":"event","name":"RentPaid","inputs":[{"name":"tenant","type":"address","indexed":true,"internalType":"address"},{"name":"amount","type":"uint256","indexed":false,"internalType":"uint256"},{"name":"onTime","type":"bool","indexed":false,"internalType":"bool"}],"anonymous":false},{"type":"event","name":"VaultDeposit","inputs":[{"name":"caller","type":"address","indexed":true,"internalType":"address"},{"name":"amount","type":"uint256","indexed":false,"internalType":"uint256"}],"anonymous":false},{"type":"event","name":"VaultWithdrawal","inputs":[{"name":"caller","type":"address","indexed":true,"internalType":"address"},{"name":"amount","type":"uint256","indexed":false,"internalType":"uint256"}],"anonymous":false},{"type":"error","name":"SafeERC20FailedOperation","inputs":[{"name":"token","type":"address","internalType":"address"}]}],"bytecode":{"object":"0x608060405234801561000f575f5ffd5b506040516114d73803806114d783398101604081905261002e91610433565b87518951146100845760405162461bcd60e51b815260206004820152601860248201527f4172726179206c656e67746873206d757374206d61746368000000000000000060448201526064015b60405180910390fd5b6001600160a01b0381166100e55760405162461bcd60e51b815260206004820152602260248201527f496e76616c696420696e7465726573742067656e657261746f72206164647265604482015261737360f01b606482015260840161007b565b600380546001600160a01b03808d166001600160a01b03199283161790925560078990556008889055600d879055600e8690555f805486841690831617905560018054858416908316179055600280549284169290911691909117905561014c8787610514565b600955600c805460ff191690555f5b8951811015610287575f8a828151811061017757610177610539565b602002602001015190505f6001600160a01b0316816001600160a01b0316036101e25760405162461bcd60e51b815260206004820152601e60248201527f416464726573732064656c20696e7175696c696e6f20696e76616c69646f0000604482015260640161007b565b6001600160a01b0381165f818152600560205260408120805460ff191660019081179091556004805491820181559091527f8a35acfbc15ff81a39ae7d344fd709f28e8600b4aa8c65c6b64bfe7fe36bd19b0180546001600160a01b031916909117905589518a908390811061025a5761025a610539565b6020908102919091018101516001600160a01b039092165f9081526006909152604090205560010161015b565b506004546102d75760405162461bcd60e51b815260206004820152601460248201527f4e6f2074656e616e747320737065636966696564000000000000000000000000604482015260640161007b565b5050505050505050505061054d565b80516001600160a01b03811681146102fc575f5ffd5b919050565b634e487b7160e01b5f52604160045260245ffd5b604051601f8201601f191681016001600160401b038111828210171561033d5761033d610301565b604052919050565b5f6001600160401b0382111561035d5761035d610301565b5060051b60200190565b5f82601f830112610376575f5ffd5b815161038961038482610345565b610315565b8082825260208201915060208360051b8601019250858311156103aa575f5ffd5b602085015b838110156103ce576103c0816102e6565b8352602092830192016103af565b5095945050505050565b5f82601f8301126103e7575f5ffd5b81516103f561038482610345565b8082825260208201915060208360051b860101925085831115610416575f5ffd5b602085015b838110156103ce57805183526020928301920161041b565b5f5f5f5f5f5f5f5f5f5f6101408b8d03121561044d575f5ffd5b6104568b6102e6565b60208c0151909a506001600160401b03811115610471575f5ffd5b61047d8d828e01610367565b60408d0151909a5090506001600160401b0381111561049a575f5ffd5b6104a68d828e016103d8565b9850505f60608c01519050809750505f60808c01519050809650505f60a08c01519050809550505f60c08c01519050809450506104e560e08c016102e6565b92506104f46101008c016102e6565b91506105036101208c016102e6565b90509295989b9194979a5092959850565b8082018082111561053357634e487b7160e01b5f52601160045260245ffd5b92915050565b634e487b7160e01b5f52603260045260245ffd5b610f7d8061055a5f395ff3fe608060405234801561000f575f5ffd5b5060043610610132575f3560e01c80634c805921116100b4578063b6b55f2511610079578063b6b55f2514610280578063bd2ba85d14610293578063cc7106fc146102a6578063dc1997ea146102b9578063ed12e8ef146102cc578063f8ef1e13146102d4575f5ffd5b80634c8059211461022a57806368790eb514610249578063a709c4fe14610252578063b04622961461025a578063b565a2331461026d575f5ffd5b806329c26298116100fa57806329c26298146101b45780632d31c81e146101bd57806337f2e48a146101dc5780634043cd951461020e578063419759f514610221575f5ffd5b8063076d08151461013657806309e841cc1461014b5780630c3f6acf1461016757806312807a4e14610181578063178054071461018a575b5f5ffd5b610149610144366004610d35565b6102dd565b005b610154600e5481565b6040519081526020015b60405180910390f35b600c546101749060ff1681565b60405161015e9190610d60565b61015460095481565b5f5461019c906001600160a01b031681565b6040516001600160a01b03909116815260200161015e565b610154600a5481565b6101546101cb366004610d86565b600b6020525f908152604090205481565b6101fe6101ea366004610d86565b60056020525f908152604090205460ff1681565b604051901515815260200161015e565b60015461019c906001600160a01b031681565b61015460085481565b610154610238366004610d86565b60066020525f908152604090205481565b610154600d5481565b6101496103c1565b610149610268366004610d35565b61067d565b61014961027b366004610d35565b610880565b61014961028e366004610d35565b6109a1565b61019c6102a1366004610d35565b610b8f565b60025461019c906001600160a01b031681565b60035461019c906001600160a01b031681565b610154610bb7565b61015460075481565b6003546001600160a01b031633146103105760405162461bcd60e51b815260040161030790610db3565b60405180910390fd5b5f811161032f5760405162461bcd60e51b815260040161030790610dea565b600254604051632e1a7d4d60e01b8152600481018390526001600160a01b0390911690632e1a7d4d906024015f604051808303815f87803b158015610372575f5ffd5b505af1158015610384573d5f5f3e3d5ffd5b50506040518381523392507f26bdf3842d5a4f022330c79f37ffefb624f92f807079cd0324ca8e186a46401a91506020015b60405180910390a250565b335f9081526005602052604090205460ff1661041f5760405162461bcd60e51b815260206004820152601b60248201527f4f6e6c7920612074656e616e742063616e2063616c6c207468697300000000006044820152606401610307565b600180600c5460ff16600381111561043957610439610d4c565b146104865760405162461bcd60e51b815260206004820152601d60248201527f496e76616c696420737461746520666f72207468697320616374696f6e0000006044820152606401610307565b6004546007545f9161049791610e35565b6001549091506104b2906001600160a01b0316333084610c26565b335f908152600660205260408082205482549151633f08f17760e21b81526004810182905260019391926001600160a01b03169063fc23c5dc9060240160a060405180830381865afa15801561050a573d5f5f3e3d5ffd5b505050506040513d601f19601f8201168201806040525081019061052e9190610e54565b80516020820151604083015192935090915f8615610589578261055081610ecd565b9350506064841015610584576064610569856001610ee5565b1161057e57610579846001610ee5565b610581565b60645b93505b6105c2565b8161059381610ecd565b92505083156105c2575f6105a8600586610efe565b106105bd576105b8600585610efe565b6105bf565b5f5b93505b5f5460405163105c277f60e31b815260048101889052602481018690526044810185905260648101849052608481018390526001600160a01b03909116906382e13bf89060a4015f604051808303815f87803b158015610620575f5ffd5b505af1158015610632573d5f5f3e3d5ffd5b5050604080518b81528a151560208201523393507fa0e44cc6f4f184bc83e145bf7f0cc703b7f698476124cf6a9d7d403d202e77fd92500160405180910390a2505050505050505050565b6003546001600160a01b031633146106a75760405162461bcd60e51b815260040161030790610db3565b5f81116106c65760405162461bcd60e51b815260040161030790610dea565b6001546040516370a0823160e01b815230600482015282916001600160a01b0316906370a0823190602401602060405180830381865afa15801561070c573d5f5f3e3d5ffd5b505050506040513d601f19601f820116820180604052508101906107309190610f11565b101561077e5760405162461bcd60e51b815260206004820181905260248201527f496e73756666696369656e742062616c616e636520696e20636f6e74726163746044820152606401610307565b60015460025460405163095ea7b360e01b81526001600160a01b0391821660048201526024810184905291169063095ea7b3906044016020604051808303815f875af11580156107d0573d5f5f3e3d5ffd5b505050506040513d601f19601f820116820180604052508101906107f49190610f28565b5060025460405163b6b55f2560e01b8152600481018390526001600160a01b039091169063b6b55f25906024015f604051808303815f87803b158015610838575f5ffd5b505af115801561084a573d5f5f3e3d5ffd5b50506040518381523392507f89d28cf06bdb2ee1b92cd046d58450042ad113e9f4cdabfc4d43e7c5557758d791506020016103b6565b6003546001600160a01b031633146108aa5760405162461bcd60e51b815260040161030790610db3565b5f81116108c95760405162461bcd60e51b815260040161030790610dea565b6001546040516370a0823160e01b815230600482015282916001600160a01b0316906370a0823190602401602060405180830381865afa15801561090f573d5f5f3e3d5ffd5b505050506040513d601f19601f820116820180604052508101906109339190610f11565b10156109815760405162461bcd60e51b815260206004820181905260248201527f496e73756666696369656e742062616c616e636520696e20636f6e74726163746044820152606401610307565b60035460015461099e916001600160a01b03918216911683610c93565b50565b335f9081526005602052604090205460ff166109ff5760405162461bcd60e51b815260206004820152601b60248201527f4f6e6c7920612074656e616e742063616e2063616c6c207468697300000000006044820152606401610307565b5f80600c5460ff166003811115610a1857610a18610d4c565b14610a655760405162461bcd60e51b815260206004820152601d60248201527f496e76616c696420737461746520666f72207468697320616374696f6e0000006044820152606401610307565b5f8211610ab45760405162461bcd60e51b815260206004820181905260248201527f456c206d6f6e746f207469656e652071756520736572206d61796f72206120306044820152606401610307565b600154610acc906001600160a01b0316333085610c26565b335f908152600b602052604081208054849290610aea908490610ee5565b9250508190555081600a5f828254610b029190610ee5565b909155505060405182815233907f543ba50a5eec5e6178218e364b1d0f396157b3c8fa278522c2cb7fd99407d4749060200160405180910390a2600954600a5410610b8b57600c805460ff19166001179055600a546040519081527fea49e8aa1bbaa9a7b16632ed4aba908b3c702861a23436c8356e296c228cc2789060200160405180910390a15b5050565b60048181548110610b9e575f80fd5b5f918252602090912001546001600160a01b0316905081565b6002546040516370a0823160e01b81523060048201525f916001600160a01b0316906370a0823190602401602060405180830381865afa158015610bfd573d5f5f3e3d5ffd5b505050506040513d601f19601f82011682018060405250810190610c219190610f11565b905090565b6040516001600160a01b038481166024830152838116604483015260648201839052610c8d9186918216906323b872dd906084015b604051602081830303815290604052915060e01b6020820180516001600160e01b038381831617835250505050610cc9565b50505050565b6040516001600160a01b03838116602483015260448201839052610cc491859182169063a9059cbb90606401610c5b565b505050565b5f5f60205f8451602086015f885af180610ce8576040513d5f823e3d81fd5b50505f513d91508115610cff578060011415610d0c565b6001600160a01b0384163b155b15610c8d57604051635274afe760e01b81526001600160a01b0385166004820152602401610307565b5f60208284031215610d45575f5ffd5b5035919050565b634e487b7160e01b5f52602160045260245ffd5b6020810160048310610d8057634e487b7160e01b5f52602160045260245ffd5b91905290565b5f60208284031215610d96575f5ffd5b81356001600160a01b0381168114610dac575f5ffd5b9392505050565b6020808252601f908201527f4f6e6c7920746865206c616e646c6f72642063616e2063616c6c207468697300604082015260600190565b6020808252601d908201527f416d6f756e74206d7573742062652067726561746572207468616e2030000000604082015260600190565b634e487b7160e01b5f52601160045260245ffd5b5f82610e4f57634e487b7160e01b5f52601260045260245ffd5b500490565b5f60a0828403128015610e65575f5ffd5b5060405160a0810167ffffffffffffffff81118282101715610e9557634e487b7160e01b5f52604160045260245ffd5b604090815283518252602080850151908301528381015190820152606080840151908201526080928301519281019290925250919050565b5f60018201610ede57610ede610e21565b5060010190565b80820180821115610ef857610ef8610e21565b92915050565b81810381811115610ef857610ef8610e21565b5f60208284031215610f21575f5ffd5b5051919050565b5f60208284031215610f38575f5ffd5b81518015158114610dac575f5ffdfea2646970667358221220edfd4a971058eaeb1f856047a1a625746fc0cda4e363f61af3c9ace813039d3e64736f6c634300081e0033","linkReferences":{}},"methodIdentifiers":{"currentState()":"0c3f6acf","deposit(uint256)":"b6b55f25","depositAmount()":"419759f5","depositToVault(uint256)":"b0462296","fundsPooled()":"29c26298","getVaultBalance()":"ed12e8ef","interestGenerator()":"cc7106fc","isTenant(address)":"37f2e48a","landlord()":"dc1997ea","landlordWithdraw(uint256)":"b565a233","mxnbToken()":"4043cd95","payRent()":"a709c4fe","paymentDayEnd()":"09e841cc","paymentDayStart()":"68790eb5","rentAmount()":"f8ef1e13","tenantContributions(address)":"2d31c81e","tenantPassport()":"17805407","tenantPassportId(address)":"4c805921","tenants(uint256)":"bd2ba85d","totalGoal()":"12807a4e","withdrawFromVault(uint256)":"076d0815"},"id":40}