{"abi":[{"type":"constructor","inputs":[{"name":"_landlord","type":"address","internalType":"address"},{"name":"_tenants","type":"address[]","internalType":"address[]"},{"name":"_passportIds","type":"uint256[]","internalType":"uint256[]"},{"name":"_rentAmount","type":"uint256","internalType":"uint256"},{"name":"_depositAmount","type":"uint256","internalType":"uint256"},{"name":"_passportAddress","type":"address","internalType":"address"},{"name":"_tokenAddress","type":"address","internalType":"address"}],"stateMutability":"nonpayable"},{"type":"function","name":"currentState","inputs":[],"outputs":[{"name":"","type":"uint8","internalType":"enum RentalAgreement.AgreementState"}],"stateMutability":"view"},{"type":"function","name":"deposit","inputs":[{"name":"amount","type":"uint256","internalType":"uint256"}],"outputs":[],"stateMutability":"nonpayable"},{"type":"function","name":"depositAmount","inputs":[],"outputs":[{"name":"","type":"uint256","internalType":"uint256"}],"stateMutability":"view"},{"type":"function","name":"fundsPooled","inputs":[],"outputs":[{"name":"","type":"uint256","internalType":"uint256"}],"stateMutability":"view"},{"type":"function","name":"isTenant","inputs":[{"name":"","type":"address","internalType":"address"}],"outputs":[{"name":"","type":"bool","internalType":"bool"}],"stateMutability":"view"},{"type":"function","name":"landlord","inputs":[],"outputs":[{"name":"","type":"address","internalType":"address"}],"stateMutability":"view"},{"type":"function","name":"lastPaymentDate","inputs":[],"outputs":[{"name":"","type":"uint256","internalType":"uint256"}],"stateMutability":"view"},{"type":"function","name":"mxbntToken","inputs":[],"outputs":[{"name":"","type":"address","internalType":"contract IERC20"}],"stateMutability":"view"},{"type":"function","name":"payRent","inputs":[],"outputs":[],"stateMutability":"nonpayable"},{"type":"function","name":"rentAmount","inputs":[],"outputs":[{"name":"","type":"uint256","internalType":"uint256"}],"stateMutability":"view"},{"type":"function","name":"tenantContributions","inputs":[{"name":"","type":"address","internalType":"address"}],"outputs":[{"name":"","type":"uint256","internalType":"uint256"}],"stateMutability":"view"},{"type":"function","name":"tenantPassport","inputs":[],"outputs":[{"name":"","type":"address","internalType":"contract TenantPassport"}],"stateMutability":"view"},{"type":"function","name":"tenantPassportId","inputs":[{"name":"","type":"address","internalType":"address"}],"outputs":[{"name":"","type":"uint256","internalType":"uint256"}],"stateMutability":"view"},{"type":"function","name":"tenants","inputs":[{"name":"","type":"uint256","internalType":"uint256"}],"outputs":[{"name":"","type":"address","internalType":"address"}],"stateMutability":"view"},{"type":"function","name":"totalGoal","inputs":[],"outputs":[{"name":"","type":"uint256","internalType":"uint256"}],"stateMutability":"view"},{"type":"event","name":"AgreementActivated","inputs":[{"name":"totalAmount","type":"uint256","indexed":false,"internalType":"uint256"}],"anonymous":false},{"type":"event","name":"FundsDeposited","inputs":[{"name":"tenant","type":"address","indexed":true,"internalType":"address"},{"name":"amount","type":"uint256","indexed":false,"internalType":"uint256"}],"anonymous":false},{"type":"event","name":"RentPaid","inputs":[{"name":"tenant","type":"address","indexed":true,"internalType":"address"},{"name":"amount","type":"uint256","indexed":false,"internalType":"uint256"},{"name":"onTime","type":"bool","indexed":false,"internalType":"bool"}],"anonymous":false}],"bytecode":{"object":"0x608060405234801561000f575f5ffd5b50604051611d77380380611d778339818101604052810190610031919061063c565b8451865114610075576040517f08c379a000000000000000000000000000000000000000000000000000000000815260040161006c9061076b565b60405180910390fd5b8660025f6101000a81548173ffffffffffffffffffffffffffffffffffffffff021916908373ffffffffffffffffffffffffffffffffffffffff1602179055508360068190555082600781905550815f5f6101000a81548173ffffffffffffffffffffffffffffffffffffffff021916908373ffffffffffffffffffffffffffffffffffffffff1602179055508060015f6101000a81548173ffffffffffffffffffffffffffffffffffffffff021916908373ffffffffffffffffffffffffffffffffffffffff16021790555060065460075461015291906107b6565b6008819055505f600b5f6101000a81548160ff0219169083600381111561017c5761017b6107e9565b5b02179055505f5f90505b865181101561033a575f8782815181106101a3576101a2610816565b5b602002602001015190505f73ffffffffffffffffffffffffffffffffffffffff168173ffffffffffffffffffffffffffffffffffffffff160361021b576040517f08c379a00000000000000000000000000000000000000000000000000000000081526004016102129061088d565b60405180910390fd5b600160045f8373ffffffffffffffffffffffffffffffffffffffff1673ffffffffffffffffffffffffffffffffffffffff1681526020019081526020015f205f6101000a81548160ff021916908315150217905550600381908060018154018082558091505060019003905f5260205f20015f9091909190916101000a81548173ffffffffffffffffffffffffffffffffffffffff021916908373ffffffffffffffffffffffffffffffffffffffff1602179055508682815181106102e3576102e2610816565b5b602002602001015160055f8373ffffffffffffffffffffffffffffffffffffffff1673ffffffffffffffffffffffffffffffffffffffff1681526020019081526020015f2081905550508080600101915050610186565b505f60038054905011610382576040517f08c379a0000000000000000000000000000000000000000000000000000000008152600401610379906108f5565b60405180910390fd5b50505050505050610913565b5f604051905090565b5f5ffd5b5f5ffd5b5f73ffffffffffffffffffffffffffffffffffffffff82169050919050565b5f6103c88261039f565b9050919050565b6103d8816103be565b81146103e2575f5ffd5b50565b5f815190506103f3816103cf565b92915050565b5f5ffd5b5f601f19601f8301169050919050565b7f4e487b71000000000000000000000000000000000000000000000000000000005f52604160045260245ffd5b610443826103fd565b810181811067ffffffffffffffff821117156104625761046161040d565b5b80604052505050565b5f61047461038e565b9050610480828261043a565b919050565b5f67ffffffffffffffff82111561049f5761049e61040d565b5b602082029050602081019050919050565b5f5ffd5b5f6104c66104c184610485565b61046b565b905080838252602082019050602084028301858111156104e9576104e86104b0565b5b835b8181101561051257806104fe88826103e5565b8452602084019350506020810190506104eb565b5050509392505050565b5f82601f8301126105305761052f6103f9565b5b81516105408482602086016104b4565b91505092915050565b5f67ffffffffffffffff8211156105635761056261040d565b5b602082029050602081019050919050565b5f819050919050565b61058681610574565b8114610590575f5ffd5b50565b5f815190506105a18161057d565b92915050565b5f6105b96105b484610549565b61046b565b905080838252602082019050602084028301858111156105dc576105db6104b0565b5b835b8181101561060557806105f18882610593565b8452602084019350506020810190506105de565b5050509392505050565b5f82601f830112610623576106226103f9565b5b81516106338482602086016105a7565b91505092915050565b5f5f5f5f5f5f5f60e0888a03121561065757610656610397565b5b5f6106648a828b016103e5565b975050602088015167ffffffffffffffff8111156106855761068461039b565b5b6106918a828b0161051c565b965050604088015167ffffffffffffffff8111156106b2576106b161039b565b5b6106be8a828b0161060f565b95505060606106cf8a828b01610593565b94505060806106e08a828b01610593565b93505060a06106f18a828b016103e5565b92505060c06107028a828b016103e5565b91505092959891949750929550565b5f82825260208201905092915050565b7f4172726179206c656e67746873206d757374206d6174636800000000000000005f82015250565b5f610755601883610711565b915061076082610721565b602082019050919050565b5f6020820190508181035f83015261078281610749565b9050919050565b7f4e487b71000000000000000000000000000000000000000000000000000000005f52601160045260245ffd5b5f6107c082610574565b91506107cb83610574565b92508282019050808211156107e3576107e2610789565b5b92915050565b7f4e487b71000000000000000000000000000000000000000000000000000000005f52602160045260245ffd5b7f4e487b71000000000000000000000000000000000000000000000000000000005f52603260045260245ffd5b7f416464726573732064656c20696e7175696c696e6f20696e76616c69646f00005f82015250565b5f610877601e83610711565b915061088282610843565b602082019050919050565b5f6020820190508181035f8301526108a48161086b565b9050919050565b7f4e6f2074656e616e7473207370656369666965640000000000000000000000005f82015250565b5f6108df601483610711565b91506108ea826108ab565b602082019050919050565b5f6020820190508181035f83015261090c816108d3565b9050919050565b611457806109205f395ff3fe608060405234801561000f575f5ffd5b50600436106100f3575f3560e01c80634c80592111610095578063bd2ba85d11610064578063bd2ba85d14610261578063c75e51f114610291578063dc1997ea146102af578063f8ef1e13146102cd576100f3565b80634c805921146101ed5780637aeabb391461021d578063a709c4fe1461023b578063b6b55f2514610245576100f3565b806329c26298116100d157806329c26298146101515780632d31c81e1461016f57806337f2e48a1461019f578063419759f5146101cf576100f3565b80630c3f6acf146100f757806312807a4e146101155780631780540714610133575b5f5ffd5b6100ff6102eb565b60405161010c9190610c57565b60405180910390f35b61011d6102fd565b60405161012a9190610c88565b60405180910390f35b61013b610303565b6040516101489190610d1b565b60405180910390f35b610159610327565b6040516101669190610c88565b60405180910390f35b61018960048036038101906101849190610d7c565b61032d565b6040516101969190610c88565b60405180910390f35b6101b960048036038101906101b49190610d7c565b610342565b6040516101c69190610dc1565b60405180910390f35b6101d761035f565b6040516101e49190610c88565b60405180910390f35b61020760048036038101906102029190610d7c565b610365565b6040516102149190610c88565b60405180910390f35b61022561037a565b6040516102329190610c88565b60405180910390f35b610243610380565b005b61025f600480360381019061025a9190610e04565b610804565b005b61027b60048036038101906102769190610e04565b610b59565b6040516102889190610e3e565b60405180910390f35b610299610b94565b6040516102a69190610e77565b60405180910390f35b6102b7610bb9565b6040516102c49190610e3e565b60405180910390f35b6102d5610bde565b6040516102e29190610c88565b60405180910390f35b600b5f9054906101000a900460ff1681565b60085481565b5f5f9054906101000a900473ffffffffffffffffffffffffffffffffffffffff1681565b60095481565b600a602052805f5260405f205f915090505481565b6004602052805f5260405f205f915054906101000a900460ff1681565b60075481565b6005602052805f5260405f205f915090505481565b600c5481565b60045f3373ffffffffffffffffffffffffffffffffffffffff1673ffffffffffffffffffffffffffffffffffffffff1681526020019081526020015f205f9054906101000a900460ff16610409576040517f08c379a000000000000000000000000000000000000000000000000000000000815260040161040090610eea565b60405180910390fd5b600180600381111561041e5761041d610be4565b5b600b5f9054906101000a900460ff16600381111561043f5761043e610be4565b5b1461047f576040517f08c379a000000000000000000000000000000000000000000000000000000000815260040161047690610f52565b60405180910390fd5b5f6003805490506006546104939190610fca565b90505f60015f9054906101000a900473ffffffffffffffffffffffffffffffffffffffff1673ffffffffffffffffffffffffffffffffffffffff166323b872dd3330856040518463ffffffff1660e01b81526004016104f493929190610ffa565b6020604051808303815f875af1158015610510573d5f5f3e3d5ffd5b505050506040513d601f19601f820116820180604052508101906105349190611059565b905080610576576040517f08c379a000000000000000000000000000000000000000000000000000000000815260040161056d906110ce565b60405180910390fd5b5f62278d00600c5461058891906110ec565b42111590505f60055f3373ffffffffffffffffffffffffffffffffffffffff1673ffffffffffffffffffffffffffffffffffffffff1681526020019081526020015f205490505f5f5f9054906101000a900473ffffffffffffffffffffffffffffffffffffffff1673ffffffffffffffffffffffffffffffffffffffff1663fc23c5dc836040518263ffffffff1660e01b81526004016106289190610c88565b608060405180830381865afa158015610643573d5f5f3e3d5ffd5b505050506040513d601f19601f820116820180604052508101906106679190611234565b90505f815f015190505f826020015190505f836040015190505f5f905086156106d25782806106959061125f565b93505060648410156106cd5760646001856106b091906110ec565b116106c7576001846106c291906110ec565b6106ca565b60645b93505b610713565b81806106dd9061125f565b9250505f841115610712575f6005856106f691906112a6565b1061070d5760058461070891906112a6565b61070f565b5f5b93505b5b5f5f9054906101000a900473ffffffffffffffffffffffffffffffffffffffff1673ffffffffffffffffffffffffffffffffffffffff166382e13bf887868686866040518663ffffffff1660e01b81526004016107749594939291906112d9565b5f604051808303815f87803b15801561078b575f5ffd5b505af115801561079d573d5f5f3e3d5ffd5b505050503373ffffffffffffffffffffffffffffffffffffffff167fa0e44cc6f4f184bc83e145bf7f0cc703b7f698476124cf6a9d7d403d202e77fd8a896040516107e992919061132a565b60405180910390a242600c8190555050505050505050505050565b60045f3373ffffffffffffffffffffffffffffffffffffffff1673ffffffffffffffffffffffffffffffffffffffff1681526020019081526020015f205f9054906101000a900460ff1661088d576040517f08c379a000000000000000000000000000000000000000000000000000000000815260040161088490610eea565b60405180910390fd5b5f8060038111156108a1576108a0610be4565b5b600b5f9054906101000a900460ff1660038111156108c2576108c1610be4565b5b14610902576040517f08c379a00000000000000000000000000000000000000000000000000000000081526004016108f990610f52565b60405180910390fd5b5f8211610944576040517f08c379a000000000000000000000000000000000000000000000000000000000815260040161093b9061139b565b60405180910390fd5b5f60015f9054906101000a900473ffffffffffffffffffffffffffffffffffffffff1673ffffffffffffffffffffffffffffffffffffffff166323b872dd3330866040518463ffffffff1660e01b81526004016109a393929190610ffa565b6020604051808303815f875af11580156109bf573d5f5f3e3d5ffd5b505050506040513d601f19601f820116820180604052508101906109e39190611059565b905080610a25576040517f08c379a0000000000000000000000000000000000000000000000000000000008152600401610a1c90611403565b60405180910390fd5b82600a5f3373ffffffffffffffffffffffffffffffffffffffff1673ffffffffffffffffffffffffffffffffffffffff1681526020019081526020015f205f828254610a7191906110ec565b925050819055508260095f828254610a8991906110ec565b925050819055503373ffffffffffffffffffffffffffffffffffffffff167f543ba50a5eec5e6178218e364b1d0f396157b3c8fa278522c2cb7fd99407d47484604051610ad69190610c88565b60405180910390a260085460095410610b54576001600b5f6101000a81548160ff02191690836003811115610b0e57610b0d610be4565b5b021790555042600c819055507fea49e8aa1bbaa9a7b16632ed4aba908b3c702861a23436c8356e296c228cc278600954604051610b4b9190610c88565b60405180910390a15b505050565b60038181548110610b68575f80fd5b905f5260205f20015f915054906101000a900473ffffffffffffffffffffffffffffffffffffffff1681565b60015f9054906101000a900473ffffffffffffffffffffffffffffffffffffffff1681565b60025f9054906101000a900473ffffffffffffffffffffffffffffffffffffffff1681565b60065481565b7f4e487b71000000000000000000000000000000000000000000000000000000005f52602160045260245ffd5b60048110610c2257610c21610be4565b5b50565b5f819050610c3282610c11565b919050565b5f610c4182610c25565b9050919050565b610c5181610c37565b82525050565b5f602082019050610c6a5f830184610c48565b92915050565b5f819050919050565b610c8281610c70565b82525050565b5f602082019050610c9b5f830184610c79565b92915050565b5f73ffffffffffffffffffffffffffffffffffffffff82169050919050565b5f819050919050565b5f610ce3610cde610cd984610ca1565b610cc0565b610ca1565b9050919050565b5f610cf482610cc9565b9050919050565b5f610d0582610cea565b9050919050565b610d1581610cfb565b82525050565b5f602082019050610d2e5f830184610d0c565b92915050565b5f604051905090565b5f5ffd5b5f610d4b82610ca1565b9050919050565b610d5b81610d41565b8114610d65575f5ffd5b50565b5f81359050610d7681610d52565b92915050565b5f60208284031215610d9157610d90610d3d565b5b5f610d9e84828501610d68565b91505092915050565b5f8115159050919050565b610dbb81610da7565b82525050565b5f602082019050610dd45f830184610db2565b92915050565b610de381610c70565b8114610ded575f5ffd5b50565b5f81359050610dfe81610dda565b92915050565b5f60208284031215610e1957610e18610d3d565b5b5f610e2684828501610df0565b91505092915050565b610e3881610d41565b82525050565b5f602082019050610e515f830184610e2f565b92915050565b5f610e6182610cea565b9050919050565b610e7181610e57565b82525050565b5f602082019050610e8a5f830184610e68565b92915050565b5f82825260208201905092915050565b7f4f6e6c7920612074656e616e742063616e2063616c6c207468697300000000005f82015250565b5f610ed4601b83610e90565b9150610edf82610ea0565b602082019050919050565b5f6020820190508181035f830152610f0181610ec8565b9050919050565b7f496e76616c696420737461746520666f72207468697320616374696f6e0000005f82015250565b5f610f3c601d83610e90565b9150610f4782610f08565b602082019050919050565b5f6020820190508181035f830152610f6981610f30565b9050919050565b7f4e487b71000000000000000000000000000000000000000000000000000000005f52601260045260245ffd5b7f4e487b71000000000000000000000000000000000000000000000000000000005f52601160045260245ffd5b5f610fd482610c70565b9150610fdf83610c70565b925082610fef57610fee610f70565b5b828204905092915050565b5f60608201905061100d5f830186610e2f565b61101a6020830185610e2f565b6110276040830184610c79565b949350505050565b61103881610da7565b8114611042575f5ffd5b50565b5f815190506110538161102f565b92915050565b5f6020828403121561106e5761106d610d3d565b5b5f61107b84828501611045565b91505092915050565b7f546f6b656e207472616e73666572206661696c656400000000000000000000005f82015250565b5f6110b8601583610e90565b91506110c382611084565b602082019050919050565b5f6020820190508181035f8301526110e5816110ac565b9050919050565b5f6110f682610c70565b915061110183610c70565b925082820190508082111561111957611118610f9d565b5b92915050565b5f5ffd5b5f601f19601f8301169050919050565b7f4e487b71000000000000000000000000000000000000000000000000000000005f52604160045260245ffd5b61116982611123565b810181811067ffffffffffffffff8211171561118857611187611133565b5b80604052505050565b5f61119a610d34565b90506111a68282611160565b919050565b5f815190506111b981610dda565b92915050565b5f608082840312156111d4576111d361111f565b5b6111de6080611191565b90505f6111ed848285016111ab565b5f830152506020611200848285016111ab565b6020830152506040611214848285016111ab565b6040830152506060611228848285016111ab565b60608301525092915050565b5f6080828403121561124957611248610d3d565b5b5f611256848285016111bf565b91505092915050565b5f61126982610c70565b91507fffffffffffffffffffffffffffffffffffffffffffffffffffffffffffffffff820361129b5761129a610f9d565b5b600182019050919050565b5f6112b082610c70565b91506112bb83610c70565b92508282039050818111156112d3576112d2610f9d565b5b92915050565b5f60a0820190506112ec5f830188610c79565b6112f96020830187610c79565b6113066040830186610c79565b6113136060830185610c79565b6113206080830184610c79565b9695505050505050565b5f60408201905061133d5f830185610c79565b61134a6020830184610db2565b9392505050565b7f456c206d6f6e746f207469656e652071756520736572206d61796f72206120305f82015250565b5f611385602083610e90565b915061139082611351565b602082019050919050565b5f6020820190508181035f8301526113b281611379565b9050919050565b7f46616c6c6f206c61207472616e73666572656e63696120646520746f6b656e735f82015250565b5f6113ed602083610e90565b91506113f8826113b9565b602082019050919050565b5f6020820190508181035f83015261141a816113e1565b905091905056fea2646970667358221220570e5e073530cfff08ac8ec438378d22e1adee85abef321548f630105888224b64736f6c634300081e0033","linkReferences":{}},"methodIdentifiers":{"currentState()":"0c3f6acf","deposit(uint256)":"b6b55f25","depositAmount()":"419759f5","fundsPooled()":"29c26298","isTenant(address)":"37f2e48a","landlord()":"dc1997ea","lastPaymentDate()":"7aeabb39","mxbntToken()":"c75e51f1","payRent()":"a709c4fe","rentAmount()":"f8ef1e13","tenantContributions(address)":"2d31c81e","tenantPassport()":"17805407","tenantPassportId(address)":"4c805921","tenants(uint256)":"bd2ba85d","totalGoal()":"12807a4e"},"id":34}