{"abi":[{"type":"constructor","inputs":[{"name":"_landlord","type":"address","internalType":"address"},{"name":"_tenants","type":"address[]","internalType":"address[]"},{"name":"_passportIds","type":"uint256[]","internalType":"uint256[]"},{"name":"_rentAmount","type":"uint256","internalType":"uint256"},{"name":"_depositAmount","type":"uint256","internalType":"uint256"},{"name":"_paymentDueDate","type":"uint256","internalType":"uint256"},{"name":"_passportAddress","type":"address","internalType":"address"},{"name":"_tokenAddress","type":"address","internalType":"address"},{"name":"_interestGeneratorAddress","type":"address","internalType":"address"},{"name":"_initialOwner","type":"address","internalType":"address"}],"stateMutability":"nonpayable"},{"type":"function","name":"currentState","inputs":[],"outputs":[{"name":"","type":"uint8","internalType":"enum RentalAgreement.AgreementState"}],"stateMutability":"view"},{"type":"function","name":"deposit","inputs":[{"name":"amount","type":"uint256","internalType":"uint256"}],"outputs":[],"stateMutability":"nonpayable"},{"type":"function","name":"depositAmount","inputs":[],"outputs":[{"name":"","type":"uint256","internalType":"uint256"}],"stateMutability":"view"},{"type":"function","name":"depositToVault","inputs":[{"name":"_amount","type":"uint256","internalType":"uint256"}],"outputs":[],"stateMutability":"nonpayable"},{"type":"function","name":"fundsPooled","inputs":[],"outputs":[{"name":"","type":"uint256","internalType":"uint256"}],"stateMutability":"view"},{"type":"function","name":"getVaultBalance","inputs":[],"outputs":[{"name":"","type":"uint256","internalType":"uint256"}],"stateMutability":"view"},{"type":"function","name":"interestGenerator","inputs":[],"outputs":[{"name":"","type":"address","internalType":"contract IMXNBInterestGenerator"}],"stateMutability":"view"},{"type":"function","name":"isTenant","inputs":[{"name":"","type":"address","internalType":"address"}],"outputs":[{"name":"","type":"bool","internalType":"bool"}],"stateMutability":"view"},{"type":"function","name":"landlord","inputs":[],"outputs":[{"name":"","type":"address","internalType":"address"}],"stateMutability":"view"},{"type":"function","name":"landlordWithdraw","inputs":[{"name":"_amount","type":"uint256","internalType":"uint256"}],"outputs":[],"stateMutability":"nonpayable"},{"type":"function","name":"mxnbToken","inputs":[],"outputs":[{"name":"","type":"address","internalType":"contract IERC20"}],"stateMutability":"view"},{"type":"function","name":"owner","inputs":[],"outputs":[{"name":"","type":"address","internalType":"address"}],"stateMutability":"view"},{"type":"function","name":"pause","inputs":[],"outputs":[],"stateMutability":"nonpayable"},{"type":"function","name":"paused","inputs":[],"outputs":[{"name":"","type":"bool","internalType":"bool"}],"stateMutability":"view"},{"type":"function","name":"payRent","inputs":[],"outputs":[],"stateMutability":"nonpayable"},{"type":"function","name":"paymentDueDate","inputs":[],"outputs":[{"name":"","type":"uint256","internalType":"uint256"}],"stateMutability":"view"},{"type":"function","name":"renounceOwnership","inputs":[],"outputs":[],"stateMutability":"nonpayable"},{"type":"function","name":"rentAmount","inputs":[],"outputs":[{"name":"","type":"uint256","internalType":"uint256"}],"stateMutability":"view"},{"type":"function","name":"tenantContributions","inputs":[{"name":"","type":"address","internalType":"address"}],"outputs":[{"name":"","type":"uint256","internalType":"uint256"}],"stateMutability":"view"},{"type":"function","name":"tenantPassport","inputs":[],"outputs":[{"name":"","type":"address","internalType":"contract TenantPassport"}],"stateMutability":"view"},{"type":"function","name":"tenantPassportId","inputs":[{"name":"","type":"address","internalType":"address"}],"outputs":[{"name":"","type":"uint256","internalType":"uint256"}],"stateMutability":"view"},{"type":"function","name":"tenants","inputs":[{"name":"","type":"uint256","internalType":"uint256"}],"outputs":[{"name":"","type":"address","internalType":"address"}],"stateMutability":"view"},{"type":"function","name":"totalGoal","inputs":[],"outputs":[{"name":"","type":"uint256","internalType":"uint256"}],"stateMutability":"view"},{"type":"function","name":"transferOwnership","inputs":[{"name":"newOwner","type":"address","internalType":"address"}],"outputs":[],"stateMutability":"nonpayable"},{"type":"function","name":"unpause","inputs":[],"outputs":[],"stateMutability":"nonpayable"},{"type":"function","name":"withdrawFromVault","inputs":[{"name":"_amount","type":"uint256","internalType":"uint256"}],"outputs":[],"stateMutability":"nonpayable"},{"type":"event","name":"AgreementActivated","inputs":[{"name":"totalAmount","type":"uint256","indexed":false,"internalType":"uint256"},{"name":"nextDueDate","type":"uint256","indexed":false,"internalType":"uint256"}],"anonymous":false},{"type":"event","name":"FundsDeposited","inputs":[{"name":"tenant","type":"address","indexed":true,"internalType":"address"},{"name":"amount","type":"uint256","indexed":false,"internalType":"uint256"}],"anonymous":false},{"type":"event","name":"OwnershipTransferred","inputs":[{"name":"previousOwner","type":"address","indexed":true,"internalType":"address"},{"name":"newOwner","type":"address","indexed":true,"internalType":"address"}],"anonymous":false},{"type":"event","name":"Paused","inputs":[{"name":"account","type":"address","indexed":false,"internalType":"address"}],"anonymous":false},{"type":"event","name":"RentPaid","inputs":[{"name":"tenant","type":"address","indexed":true,"internalType":"address"},{"name":"amount","type":"uint256","indexed":false,"internalType":"uint256"},{"name":"onTime","type":"bool","indexed":false,"internalType":"bool"}],"anonymous":false},{"type":"event","name":"Unpaused","inputs":[{"name":"account","type":"address","indexed":false,"internalType":"address"}],"anonymous":false},{"type":"event","name":"VaultDeposit","inputs":[{"name":"caller","type":"address","indexed":true,"internalType":"address"},{"name":"amount","type":"uint256","indexed":false,"internalType":"uint256"}],"anonymous":false},{"type":"event","name":"VaultWithdrawal","inputs":[{"name":"caller","type":"address","indexed":true,"internalType":"address"},{"name":"amount","type":"uint256","indexed":false,"internalType":"uint256"}],"anonymous":false},{"type":"error","name":"EnforcedPause","inputs":[]},{"type":"error","name":"ExpectedPause","inputs":[]},{"type":"error","name":"OwnableInvalidOwner","inputs":[{"name":"owner","type":"address","internalType":"address"}]},{"type":"error","name":"OwnableUnauthorizedAccount","inputs":[{"name":"account","type":"address","internalType":"address"}]},{"type":"error","name":"ReentrancyGuardReentrantCall","inputs":[]},{"type":"error","name":"SafeERC20FailedOperation","inputs":[{"name":"token","type":"address","internalType":"address"}]}],"bytecode":{"object":"0x610160604052348015610010575f5ffd5b50604051611cac380380611cac83398101604081905261002f91610498565b806001600160a01b03811661005e57604051631e4fbdf760e01b81525f60048201526024015b60405180910390fd5b610067816102fc565b506001805587518951146100d05760405162461bcd60e51b815260206004820152602a60248201527f496e7175696c696e6f732079204944732064652070617361706f727465206e6f6044820152691031b7b4b731b4b232b760b11b6064820152608401610055565b5f8951116101205760405162461bcd60e51b815260206004820181905260248201527f4465626520686162657220616c206d656e6f7320756e20696e7175696c696e6f6044820152606401610055565b6001600160a01b0382166101765760405162461bcd60e51b815260206004820152601c60248201527f446972656363696f6e20646520626f7665646120696e76616c696461000000006044820152606401610055565b6001600160a01b03808b1660e052610100889052610120879052600886905584811660805283811660a052821660c0526101b0878761056f565b610140526007805460ff191690555f5b89518110156102ec575f8a82815181106101dc576101dc610594565b602002602001015190505f6001600160a01b0316816001600160a01b0316036102475760405162461bcd60e51b815260206004820152601f60248201527f446972656363696f6e20646520696e7175696c696e6f20696e76616c696461006044820152606401610055565b6001600160a01b0381165f818152600360205260408120805460ff191660019081179091556002805491820181559091527f405787fa12a823e0f2b7631cc41b3ba8828b3321ca811111fa75cd3aa3bb5ace0180546001600160a01b031916909117905589518a90839081106102bf576102bf610594565b6020908102919091018101516001600160a01b039092165f908152600490915260409020556001016101c0565b50505050505050505050506105a8565b5f80546001600160a01b038381166001600160a01b0319831681178455604051919092169283917f8be0079c531659141344cd1fd0a4f28419497f9722a3daafe3b4186f6b6457e09190a35050565b80516001600160a01b0381168114610361575f5ffd5b919050565b634e487b7160e01b5f52604160045260245ffd5b604051601f8201601f191681016001600160401b03811182821017156103a2576103a2610366565b604052919050565b5f6001600160401b038211156103c2576103c2610366565b5060051b60200190565b5f82601f8301126103db575f5ffd5b81516103ee6103e9826103aa565b61037a565b8082825260208201915060208360051b86010192508583111561040f575f5ffd5b602085015b83811015610433576104258161034b565b835260209283019201610414565b5095945050505050565b5f82601f83011261044c575f5ffd5b815161045a6103e9826103aa565b8082825260208201915060208360051b86010192508583111561047b575f5ffd5b602085015b83811015610433578051835260209283019201610480565b5f5f5f5f5f5f5f5f5f5f6101408b8d0312156104b2575f5ffd5b6104bb8b61034b565b60208c0151909a506001600160401b038111156104d6575f5ffd5b6104e28d828e016103cc565b60408d0151909a5090506001600160401b038111156104ff575f5ffd5b61050b8d828e0161043d565b60608d015160808e015160a08f0151929b5090995097509550610532905060c08c0161034b565b935061054060e08c0161034b565b925061054f6101008c0161034b565b915061055e6101208c0161034b565b90509295989b9194979a5092959850565b8082018082111561058e57634e487b7160e01b5f52601160045260245ffd5b92915050565b634e487b7160e01b5f52603260045260245ffd5b60805160a05160c05160e05161010051610120516101405161162e61067e5f395f81816101c80152610edf01525f81816102c50152610c4101525f8181610402015261060601525f81816103c0015281816104370152818161090301528181610b970152610d7401525f8181610390015281816104b201528181610a4301528181610af30152610f9d01525f818161029e015281816106ba0152818161097601528181610a7201528181610c6b01528181610d520152610e8001525f81816101fd015281816107120152610844015261162e5ff3fe608060405234801561000f575f5ffd5b5060043610610187575f3560e01c80638456cb59116100d9578063bd2ba85d11610093578063dc1997ea1161006e578063dc1997ea146103bb578063ed12e8ef146103e2578063f2fde38b146103ea578063f8ef1e13146103fd575f5ffd5b8063bd2ba85d14610378578063cc7106fc1461038b578063d9ef0459146103b2575f5ffd5b80638456cb591461031f5780638da5cb5b14610327578063a709c4fe14610337578063b04622961461033f578063b565a23314610352578063b6b55f2514610365575f5ffd5b806337f2e48a11610144578063419759f51161011f578063419759f5146102c05780634c805921146102e75780635c975abb14610306578063715018a614610317575f5ffd5b806337f2e48a1461025f5780633f4ba83a146102915780634043cd9514610299575f5ffd5b8063076d08151461018b5780630c3f6acf146101a057806312807a4e146101c357806317805407146101f857806329c26298146102375780632d31c81e14610240575b5f5ffd5b61019e6101993660046112ea565b610424565b005b6007546101ad9060ff1681565b6040516101ba9190611315565b60405180910390f35b6101ea7f000000000000000000000000000000000000000000000000000000000000000081565b6040519081526020016101ba565b61021f7f000000000000000000000000000000000000000000000000000000000000000081565b6040516001600160a01b0390911681526020016101ba565b6101ea60055481565b6101ea61024e36600461133b565b60066020525f908152604090205481565b61028161026d36600461133b565b60036020525f908152604090205460ff1681565b60405190151581526020016101ba565b61019e610553565b61021f7f000000000000000000000000000000000000000000000000000000000000000081565b6101ea7f000000000000000000000000000000000000000000000000000000000000000081565b6101ea6102f536600461133b565b60046020525f908152604090205481565b5f54600160a01b900460ff16610281565b61019e610565565b61019e610576565b5f546001600160a01b031661021f565b61019e610586565b61019e61034d3660046112ea565b6108f0565b61019e6103603660046112ea565b610b84565b61019e6103733660046112ea565b610da4565b61021f6103863660046112ea565b610f5e565b61021f7f000000000000000000000000000000000000000000000000000000000000000081565b6101ea60085481565b61021f7f000000000000000000000000000000000000000000000000000000000000000081565b6101ea610f86565b61019e6103f836600461133b565b611013565b6101ea7f000000000000000000000000000000000000000000000000000000000000000081565b61042c61104d565b336001600160a01b037f0000000000000000000000000000000000000000000000000000000000000000161461047d5760405162461bcd60e51b815260040161047490611368565b60405180910390fd5b5f811161049c5760405162461bcd60e51b815260040161047490611397565b604051632e1a7d4d60e01b8152600481018290527f00000000000000000000000000000000000000000000000000000000000000006001600160a01b031690632e1a7d4d906024015f604051808303815f87803b1580156104fb575f5ffd5b505af115801561050d573d5f5f3e3d5ffd5b50506040518381523392507f26bdf3842d5a4f022330c79f37ffefb624f92f807079cd0324ca8e186a46401a91506020015b60405180910390a261055060018055565b50565b61055b611077565b6105636110a3565b565b61056d611077565b6105635f6110f7565b61057e611077565b610563611146565b61058e61104d565b610596611188565b335f9081526003602052604090205460ff166105c45760405162461bcd60e51b8152600401610474906113ce565b60018060075460ff1660038111156105de576105de611301565b146105fb5760405162461bcd60e51b815260040161047490611413565b6002545f9061062a907f000000000000000000000000000000000000000000000000000000000000000061146e565b90505f811161068a5760405162461bcd60e51b815260206004820152602660248201527f456c206d6f6e746f206465206c612072656e746120646562652073657220706f60448201526573697469766f60d01b6064820152608401610474565b5f600854421115905062278d0060085f8282546106a7919061148d565b909155506106e290506001600160a01b037f0000000000000000000000000000000000000000000000000000000000000000163330856111b2565b335f908152600460208190526040808320549051633f08f17760e21b815291820181905291906001600160a01b037f0000000000000000000000000000000000000000000000000000000000000000169063fc23c5dc9060240160a060405180830381865afa158015610757573d5f5f3e3d5ffd5b505050506040513d601f19601f8201168201806040525081019061077b91906114be565b805160208201516040830151929350909185156107e1578161079c81611553565b925050606463ffffffff841610156107dc5760646107bb600185611577565b63ffffffff16116107d6576107d1600184611577565b6107d9565b60645b92505b61080c565b806107eb81611553565b915050600563ffffffff84161115610808576107d9600584611593565b5f92505b60405163036f716360e41b81526004810186905263ffffffff80851660248301528084166044830152821660648201525f60848201527f00000000000000000000000000000000000000000000000000000000000000006001600160a01b0316906336f716309060a4015f604051808303815f87803b15801561088d575f5ffd5b505af115801561089f573d5f5f3e3d5ffd5b5050604080518a815289151560208201523393507fa0e44cc6f4f184bc83e145bf7f0cc703b7f698476124cf6a9d7d403d202e77fd92500160405180910390a2505050505050505061056360018055565b6108f861104d565b336001600160a01b037f000000000000000000000000000000000000000000000000000000000000000016146109405760405162461bcd60e51b815260040161047490611368565b5f811161095f5760405162461bcd60e51b815260040161047490611397565b6040516370a0823160e01b815230600482015281907f00000000000000000000000000000000000000000000000000000000000000006001600160a01b0316906370a0823190602401602060405180830381865afa1580156109c3573d5f5f3e3d5ffd5b505050506040513d601f19601f820116820180604052508101906109e791906115af565b1015610a2c5760405162461bcd60e51b815260206004820152601460248201527342616c616e636520696e737566696369656e746560601b6044820152606401610474565b60405163095ea7b360e01b81526001600160a01b037f000000000000000000000000000000000000000000000000000000000000000081166004830152602482018390527f0000000000000000000000000000000000000000000000000000000000000000169063095ea7b3906044016020604051808303815f875af1158015610ab8573d5f5f3e3d5ffd5b505050506040513d601f19601f82011682018060405250810190610adc91906115c6565b5060405163b6b55f2560e01b8152600481018290527f00000000000000000000000000000000000000000000000000000000000000006001600160a01b03169063b6b55f25906024015f604051808303815f87803b158015610b3c575f5ffd5b505af1158015610b4e573d5f5f3e3d5ffd5b50506040518381523392507f89d28cf06bdb2ee1b92cd046d58450042ad113e9f4cdabfc4d43e7c5557758d7915060200161053f565b610b8c61104d565b336001600160a01b037f00000000000000000000000000000000000000000000000000000000000000001614610bd45760405162461bcd60e51b815260040161047490611368565b60018060075460ff166003811115610bee57610bee611301565b14610c0b5760405162461bcd60e51b815260040161047490611413565b5f8211610c2a5760405162461bcd60e51b815260040161047490611397565b6040516370a0823160e01b81523060048201525f907f0000000000000000000000000000000000000000000000000000000000000000906001600160a01b037f000000000000000000000000000000000000000000000000000000000000000016906370a0823190602401602060405180830381865afa158015610cb0573d5f5f3e3d5ffd5b505050506040513d601f19601f82011682018060405250810190610cd491906115af565b610cde91906115e5565b905080831115610d455760405162461bcd60e51b815260206004820152602c60248201527f4e6f207075656465732072657469726172206d617320717565206c612072656e60448201526b7461206163756d756c61646160a01b6064820152608401610474565b610d996001600160a01b037f0000000000000000000000000000000000000000000000000000000000000000167f00000000000000000000000000000000000000000000000000000000000000008561121f565b505061055060018055565b610dac61104d565b610db4611188565b335f9081526003602052604090205460ff16610de25760405162461bcd60e51b8152600401610474906113ce565b5f8060075460ff166003811115610dfb57610dfb611301565b14610e185760405162461bcd60e51b815260040161047490611413565b5f8211610e375760405162461bcd60e51b815260040161047490611397565b335f9081526006602052604081208054849290610e5590849061148d565b925050819055508160055f828254610e6d919061148d565b90915550610ea890506001600160a01b037f0000000000000000000000000000000000000000000000000000000000000000163330856111b2565b60405182815233907f543ba50a5eec5e6178218e364b1d0f396157b3c8fa278522c2cb7fd99407d4749060200160405180910390a27f000000000000000000000000000000000000000000000000000000000000000060055410610f54576007805460ff191660011790556005546008546040805192835260208301919091527f364e9e9426a2310fc3091f22ddad83cfad9593ffe7ca19061498a424fcb6ab77910160405180910390a15b5061055060018055565b60028181548110610f6d575f80fd5b5f918252602090912001546001600160a01b0316905081565b6040516370a0823160e01b81523060048201525f907f00000000000000000000000000000000000000000000000000000000000000006001600160a01b0316906370a0823190602401602060405180830381865afa158015610fea573d5f5f3e3d5ffd5b505050506040513d601f19601f8201168201806040525081019061100e91906115af565b905090565b61101b611077565b6001600160a01b03811661104457604051631e4fbdf760e01b81525f6004820152602401610474565b610550816110f7565b60026001540361107057604051633ee5aeb560e01b815260040160405180910390fd5b6002600155565b5f546001600160a01b031633146105635760405163118cdaa760e01b8152336004820152602401610474565b6110ab611255565b5f805460ff60a01b191690557f5db9ee0a495bf2e6ff9c91a7834c1ba4fdd244a5e8aa4e537bd38aeae4b073aa335b6040516001600160a01b03909116815260200160405180910390a1565b5f80546001600160a01b038381166001600160a01b0319831681178455604051919092169283917f8be0079c531659141344cd1fd0a4f28419497f9722a3daafe3b4186f6b6457e09190a35050565b61114e611188565b5f805460ff60a01b1916600160a01b1790557f62e78cea01bee320cd4e420270b5ea74000d11b0c9f74754ebdbfc544b05a2586110da3390565b5f54600160a01b900460ff16156105635760405163d93c066560e01b815260040160405180910390fd5b6040516001600160a01b0384811660248301528381166044830152606482018390526112199186918216906323b872dd906084015b604051602081830303815290604052915060e01b6020820180516001600160e01b03838183161783525050505061127e565b50505050565b6040516001600160a01b0383811660248301526044820183905261125091859182169063a9059cbb906064016111e7565b505050565b5f54600160a01b900460ff1661056357604051638dfc202b60e01b815260040160405180910390fd5b5f5f60205f8451602086015f885af18061129d576040513d5f823e3d81fd5b50505f513d915081156112b45780600114156112c1565b6001600160a01b0384163b155b1561121957604051635274afe760e01b81526001600160a01b0385166004820152602401610474565b5f602082840312156112fa575f5ffd5b5035919050565b634e487b7160e01b5f52602160045260245ffd5b602081016004831061133557634e487b7160e01b5f52602160045260245ffd5b91905290565b5f6020828403121561134b575f5ffd5b81356001600160a01b0381168114611361575f5ffd5b9392505050565b60208082526015908201527427379032b932b99032b61030b93932b73230b237b960591b604082015260600190565b6020808252601b908201527f456c206d6f6e746f206465626520736572206d61796f72206120300000000000604082015260600190565b60208082526025908201527f4e6f206572657320756e20696e7175696c696e6f206465206573746520636f6e604082015264747261746f60d81b606082015260800190565b60208082526027908201527f416363696f6e206e6f207065726d697469646120656e20656c2065737461646f604082015266081858dd1d585b60ca1b606082015260800190565b634e487b7160e01b5f52601160045260245ffd5b5f8261148857634e487b7160e01b5f52601260045260245ffd5b500490565b808201808211156114a0576114a061145a565b92915050565b805163ffffffff811681146114b9575f5ffd5b919050565b5f60a08284031280156114cf575f5ffd5b5060405160a0810167ffffffffffffffff811182821017156114ff57634e487b7160e01b5f52604160045260245ffd5b60405261150b836114a6565b8152611519602084016114a6565b602082015261152a604084016114a6565b604082015261153b606084016114a6565b60608201526080928301519281019290925250919050565b5f63ffffffff821663ffffffff810361156e5761156e61145a565b60010192915050565b63ffffffff81811683821601908111156114a0576114a061145a565b63ffffffff82811682821603908111156114a0576114a061145a565b5f602082840312156115bf575f5ffd5b5051919050565b5f602082840312156115d6575f5ffd5b81518015158114611361575f5ffd5b818103818111156114a0576114a061145a56fea264697066735822122043f69f92f7a5c7c13852b94049651fe328b126434764024479f538b0a9b3703664736f6c634300081e0033","linkReferences":{}},"methodIdentifiers":{"currentState()":"0c3f6acf","deposit(uint256)":"b6b55f25","depositAmount()":"419759f5","depositToVault(uint256)":"b0462296","fundsPooled()":"29c26298","getVaultBalance()":"ed12e8ef","interestGenerator()":"cc7106fc","isTenant(address)":"37f2e48a","landlord()":"dc1997ea","landlordWithdraw(uint256)":"b565a233","mxnbToken()":"4043cd95","owner()":"8da5cb5b","pause()":"8456cb59","paused()":"5c975abb","payRent()":"a709c4fe","paymentDueDate()":"d9ef0459","renounceOwnership()":"715018a6","rentAmount()":"f8ef1e13","tenantContributions(address)":"2d31c81e","tenantPassport()":"17805407","tenantPassportId(address)":"4c805921","tenants(uint256)":"bd2ba85d","totalGoal()":"12807a4e","transferOwnership(address)":"f2fde38b","unpause()":"3f4ba83a","withdrawFromVault(uint256)":"076d0815"},"id":42}