{"abi":[{"type":"constructor","inputs":[{"name":"_landlord","type":"address","internalType":"address"},{"name":"_tenants","type":"address[]","internalType":"address[]"},{"name":"_passportIds","type":"uint256[]","internalType":"uint256[]"},{"name":"_rentAmount","type":"uint256","internalType":"uint256"},{"name":"_depositAmount","type":"uint256","internalType":"uint256"},{"name":"_passportAddress","type":"address","internalType":"address"},{"name":"_tokenAddress","type":"address","internalType":"address"}],"stateMutability":"nonpayable"},{"type":"function","name":"currentState","inputs":[],"outputs":[{"name":"","type":"uint8","internalType":"enum RentalAgreement.AgreementState"}],"stateMutability":"view"},{"type":"function","name":"deposit","inputs":[{"name":"amount","type":"uint256","internalType":"uint256"}],"outputs":[],"stateMutability":"nonpayable"},{"type":"function","name":"depositAmount","inputs":[],"outputs":[{"name":"","type":"uint256","internalType":"uint256"}],"stateMutability":"view"},{"type":"function","name":"fundsPooled","inputs":[],"outputs":[{"name":"","type":"uint256","internalType":"uint256"}],"stateMutability":"view"},{"type":"function","name":"isTenant","inputs":[{"name":"","type":"address","internalType":"address"}],"outputs":[{"name":"","type":"bool","internalType":"bool"}],"stateMutability":"view"},{"type":"function","name":"landlord","inputs":[],"outputs":[{"name":"","type":"address","internalType":"address"}],"stateMutability":"view"},{"type":"function","name":"lastPaymentDate","inputs":[],"outputs":[{"name":"","type":"uint256","internalType":"uint256"}],"stateMutability":"view"},{"type":"function","name":"mxbntToken","inputs":[],"outputs":[{"name":"","type":"address","internalType":"contract IERC20"}],"stateMutability":"view"},{"type":"function","name":"payRent","inputs":[],"outputs":[],"stateMutability":"nonpayable"},{"type":"function","name":"rentAmount","inputs":[],"outputs":[{"name":"","type":"uint256","internalType":"uint256"}],"stateMutability":"view"},{"type":"function","name":"tenantContributions","inputs":[{"name":"","type":"address","internalType":"address"}],"outputs":[{"name":"","type":"uint256","internalType":"uint256"}],"stateMutability":"view"},{"type":"function","name":"tenantPassport","inputs":[],"outputs":[{"name":"","type":"address","internalType":"contract TenantPassport"}],"stateMutability":"view"},{"type":"function","name":"tenantPassportId","inputs":[{"name":"","type":"address","internalType":"address"}],"outputs":[{"name":"","type":"uint256","internalType":"uint256"}],"stateMutability":"view"},{"type":"function","name":"tenants","inputs":[{"name":"","type":"uint256","internalType":"uint256"}],"outputs":[{"name":"","type":"address","internalType":"address"}],"stateMutability":"view"},{"type":"function","name":"totalGoal","inputs":[],"outputs":[{"name":"","type":"uint256","internalType":"uint256"}],"stateMutability":"view"},{"type":"event","name":"AgreementActivated","inputs":[{"name":"totalAmount","type":"uint256","indexed":false,"internalType":"uint256"}],"anonymous":false},{"type":"event","name":"FundsDeposited","inputs":[{"name":"tenant","type":"address","indexed":true,"internalType":"address"},{"name":"amount","type":"uint256","indexed":false,"internalType":"uint256"}],"anonymous":false},{"type":"event","name":"RentPaid","inputs":[{"name":"tenant","type":"address","indexed":true,"internalType":"address"},{"name":"amount","type":"uint256","indexed":false,"internalType":"uint256"},{"name":"onTime","type":"bool","indexed":false,"internalType":"bool"}],"anonymous":false}],"bytecode":{"object":"0x608060405234801561000f575f5ffd5b50604051610ef0380380610ef083398101604081905261002e91610356565b84518651146100845760405162461bcd60e51b815260206004820152601860248201527f4172726179206c656e67746873206d757374206d61746368000000000000000060448201526064015b60405180910390fd5b600280546001600160a01b03808a166001600160a01b031992831617909255600686905560078590555f805485841690831617905560018054928416929091169190911790556100d4848461045e565b600855600b805460ff191690555f5b865181101561020f575f8782815181106100ff576100ff610483565b602002602001015190505f6001600160a01b0316816001600160a01b03160361016a5760405162461bcd60e51b815260206004820152601e60248201527f416464726573732064656c20696e7175696c696e6f20696e76616c69646f0000604482015260640161007b565b6001600160a01b0381165f818152600460205260408120805460ff191660019081179091556003805491820181559091527fc2575a0e9e593c00f959f8c92f12db2869c3395a3b0502d05e2516446f71f85b0180546001600160a01b031916909117905586518790839081106101e2576101e2610483565b6020908102919091018101516001600160a01b039092165f908152600590915260409020556001016100e3565b5060035461025f5760405162461bcd60e51b815260206004820152601460248201527f4e6f2074656e616e747320737065636966696564000000000000000000000000604482015260640161007b565b50505050505050610497565b80516001600160a01b0381168114610281575f5ffd5b919050565b634e487b7160e01b5f52604160045260245ffd5b604051601f8201601f191681016001600160401b03811182821017156102c2576102c2610286565b604052919050565b5f6001600160401b038211156102e2576102e2610286565b5060051b60200190565b5f82601f8301126102fb575f5ffd5b815161030e610309826102ca565b61029a565b8082825260208201915060208360051b86010192508583111561032f575f5ffd5b602085015b8381101561034c578051835260209283019201610334565b5095945050505050565b5f5f5f5f5f5f5f60e0888a03121561036c575f5ffd5b6103758861026b565b60208901519097506001600160401b03811115610390575f5ffd5b8801601f81018a136103a0575f5ffd5b80516103ae610309826102ca565b8082825260208201915060208360051b85010192508c8311156103cf575f5ffd5b6020840193505b828410156103f8576103e78461026b565b8252602093840193909101906103d6565b60408c0151909950925050506001600160401b03811115610417575f5ffd5b6104238a828b016102ec565b60608a015160808b015191975095509350610442905060a0890161026b565b915061045060c0890161026b565b905092959891949750929550565b8082018082111561047d57634e487b7160e01b5f52601160045260245ffd5b92915050565b634e487b7160e01b5f52603260045260245ffd5b610a4c806104a45f395ff3fe608060405234801561000f575f5ffd5b50600436106100f0575f3560e01c80634c80592111610093578063bd2ba85d11610063578063bd2ba85d14610200578063c75e51f114610213578063dc1997ea14610226578063f8ef1e1314610239575f5ffd5b80634c805921146101bb5780637aeabb39146101da578063a709c4fe146101e3578063b6b55f25146101ed575f5ffd5b806329c26298116100ce57806329c26298146101585780632d31c81e1461016157806337f2e48a14610180578063419759f5146101b2575f5ffd5b80630c3f6acf146100f457806312807a4e14610117578063178054071461012e575b5f5ffd5b600b546101019060ff1681565b60405161010e91906108a7565b60405180910390f35b61012060085481565b60405190815260200161010e565b5f54610140906001600160a01b031681565b6040516001600160a01b03909116815260200161010e565b61012060095481565b61012061016f3660046108cd565b600a6020525f908152604090205481565b6101a261018e3660046108cd565b60046020525f908152604090205460ff1681565b604051901515815260200161010e565b61012060075481565b6101206101c93660046108cd565b60056020525f908152604090205481565b610120600c5481565b6101eb610242565b005b6101eb6101fb3660046108fa565b6105c9565b61014061020e3660046108fa565b61086b565b600154610140906001600160a01b031681565b600254610140906001600160a01b031681565b61012060065481565b335f9081526004602052604090205460ff166102a55760405162461bcd60e51b815260206004820152601b60248201527f4f6e6c7920612074656e616e742063616e2063616c6c2074686973000000000060448201526064015b60405180910390fd5b600180600b5460ff1660038111156102bf576102bf610893565b1461030c5760405162461bcd60e51b815260206004820152601d60248201527f496e76616c696420737461746520666f72207468697320616374696f6e000000604482015260640161029c565b6003546006545f9161031d91610925565b6001546040516323b872dd60e01b8152336004820152306024820152604481018390529192505f916001600160a01b03909116906323b872dd906064016020604051808303815f875af1158015610376573d5f5f3e3d5ffd5b505050506040513d601f19601f8201168201806040525081019061039a9190610944565b9050806103e15760405162461bcd60e51b8152602060048201526015602482015274151bdad95b881d1c985b9cd9995c8819985a5b1959605a1b604482015260640161029c565b5f600c5462278d006103f39190610963565b335f908152600560205260408082205482549151633f08f17760e21b8152600481018290524294909411159450926001600160a01b039091169063fc23c5dc90602401608060405180830381865afa158015610451573d5f5f3e3d5ffd5b505050506040513d601f19601f82011682018060405250810190610475919061097c565b80516020820151604083015192935090915f86156104d05782610497816109eb565b93505060648410156104cb5760646104b0856001610963565b116104c5576104c0846001610963565b6104c8565b60645b93505b610509565b816104da816109eb565b9250508315610509575f6104ef600586610a03565b10610504576104ff600585610a03565b610506565b5f5b93505b5f5460405163105c277f60e31b815260048101889052602481018690526044810185905260648101849052608481018390526001600160a01b03909116906382e13bf89060a4015f604051808303815f87803b158015610567575f5ffd5b505af1158015610579573d5f5f3e3d5ffd5b5050604080518c81528a151560208201523393507fa0e44cc6f4f184bc83e145bf7f0cc703b7f698476124cf6a9d7d403d202e77fd92500160405180910390a2505042600c555050505050505050565b335f9081526004602052604090205460ff166106275760405162461bcd60e51b815260206004820152601b60248201527f4f6e6c7920612074656e616e742063616e2063616c6c20746869730000000000604482015260640161029c565b5f80600b5460ff16600381111561064057610640610893565b1461068d5760405162461bcd60e51b815260206004820152601d60248201527f496e76616c696420737461746520666f72207468697320616374696f6e000000604482015260640161029c565b5f82116106dc5760405162461bcd60e51b815260206004820181905260248201527f456c206d6f6e746f207469656e652071756520736572206d61796f7220612030604482015260640161029c565b6001546040516323b872dd60e01b8152336004820152306024820152604481018490525f916001600160a01b0316906323b872dd906064016020604051808303815f875af1158015610730573d5f5f3e3d5ffd5b505050506040513d601f19601f820116820180604052508101906107549190610944565b9050806107a35760405162461bcd60e51b815260206004820181905260248201527f46616c6c6f206c61207472616e73666572656e63696120646520746f6b656e73604482015260640161029c565b335f908152600a6020526040812080548592906107c1908490610963565b925050819055508260095f8282546107d99190610963565b909155505060405183815233907f543ba50a5eec5e6178218e364b1d0f396157b3c8fa278522c2cb7fd99407d4749060200160405180910390a26008546009541061086657600b805460ff1916600117905542600c556009546040519081527fea49e8aa1bbaa9a7b16632ed4aba908b3c702861a23436c8356e296c228cc2789060200160405180910390a15b505050565b6003818154811061087a575f80fd5b5f918252602090912001546001600160a01b0316905081565b634e487b7160e01b5f52602160045260245ffd5b60208101600483106108c757634e487b7160e01b5f52602160045260245ffd5b91905290565b5f602082840312156108dd575f5ffd5b81356001600160a01b03811681146108f3575f5ffd5b9392505050565b5f6020828403121561090a575f5ffd5b5035919050565b634e487b7160e01b5f52601160045260245ffd5b5f8261093f57634e487b7160e01b5f52601260045260245ffd5b500490565b5f60208284031215610954575f5ffd5b815180151581146108f3575f5ffd5b8082018082111561097657610976610911565b92915050565b5f608082840312801561098d575f5ffd5b506040516080810167ffffffffffffffff811182821017156109bd57634e487b7160e01b5f52604160045260245ffd5b6040908152835182526020808501519083015283810151908201526060928301519281019290925250919050565b5f600182016109fc576109fc610911565b5060010190565b818103818111156109765761097661091156fea264697066735822122052c96d6b67b560bcd90abc0057d2435bd0b48f33aa09b585d2fad7a248f90e8464736f6c634300081e0033","linkReferences":{}},"methodIdentifiers":{"currentState()":"0c3f6acf","deposit(uint256)":"b6b55f25","depositAmount()":"419759f5","fundsPooled()":"29c26298","isTenant(address)":"37f2e48a","landlord()":"dc1997ea","lastPaymentDate()":"7aeabb39","mxbntToken()":"c75e51f1","payRent()":"a709c4fe","rentAmount()":"f8ef1e13","tenantContributions(address)":"2d31c81e","tenantPassport()":"17805407","tenantPassportId(address)":"4c805921","tenants(uint256)":"bd2ba85d","totalGoal()":"12807a4e"},"id":39}