{"abi":[{"type":"constructor","inputs":[{"name":"_mxnbTokenAddress","type":"address","internalType":"address"},{"name":"_tenantPassportAddress","type":"address","internalType":"address"},{"name":"_interestGeneratorAddress","type":"address","internalType":"address"}],"stateMutability":"nonpayable"},{"type":"function","name":"addLandlordFunds","inputs":[{"name":"_propertyId","type":"uint256","internalType":"uint256"},{"name":"_amount","type":"uint256","internalType":"uint256"}],"outputs":[],"stateMutability":"nonpayable"},{"type":"function","name":"cancelPool","inputs":[{"name":"_propertyId","type":"uint256","internalType":"uint256"}],"outputs":[],"stateMutability":"nonpayable"},{"type":"function","name":"claimLease","inputs":[{"name":"_propertyId","type":"uint256","internalType":"uint256"}],"outputs":[],"stateMutability":"nonpayable"},{"type":"function","name":"createPropertyPool","inputs":[{"name":"_name","type":"string","internalType":"string"},{"name":"_description","type":"string","internalType":"string"},{"name":"_totalRent","type":"uint256","internalType":"uint256"},{"name":"_seriousnessDeposit","type":"uint256","internalType":"uint256"},{"name":"_tenantCount","type":"uint256","internalType":"uint256"},{"name":"_paymentDayStart","type":"uint256","internalType":"uint256"},{"name":"_paymentDayEnd","type":"uint256","internalType":"uint256"}],"outputs":[],"stateMutability":"nonpayable"},{"type":"function","name":"depositToVault","inputs":[{"name":"_propertyId","type":"uint256","internalType":"uint256"}],"outputs":[],"stateMutability":"nonpayable"},{"type":"function","name":"expressInterest","inputs":[{"name":"_propertyId","type":"uint256","internalType":"uint256"}],"outputs":[],"stateMutability":"nonpayable"},{"type":"function","name":"fundRent","inputs":[{"name":"_propertyId","type":"uint256","internalType":"uint256"}],"outputs":[],"stateMutability":"nonpayable"},{"type":"function","name":"getPropertyInfo","inputs":[{"name":"_propertyId","type":"uint256","internalType":"uint256"}],"outputs":[{"name":"name","type":"string","internalType":"string"},{"name":"description","type":"string","internalType":"string"},{"name":"landlord","type":"address","internalType":"address"},{"name":"totalRentAmount","type":"uint256","internalType":"uint256"},{"name":"seriousnessDeposit","type":"uint256","internalType":"uint256"},{"name":"requiredTenantCount","type":"uint256","internalType":"uint256"},{"name":"amountPooledForRent","type":"uint256","internalType":"uint256"},{"name":"amountInVault","type":"uint256","internalType":"uint256"},{"name":"interestedTenants","type":"address[]","internalType":"address[]"},{"name":"state","type":"uint8","internalType":"enum PropertyInterestPool.State"},{"name":"paymentDayStart","type":"uint256","internalType":"uint256"},{"name":"paymentDayEnd","type":"uint256","internalType":"uint256"}],"stateMutability":"view"},{"type":"function","name":"interestGenerator","inputs":[],"outputs":[{"name":"","type":"address","internalType":"contract IMXNBInterestGenerator"}],"stateMutability":"view"},{"type":"function","name":"mxnbToken","inputs":[],"outputs":[{"name":"","type":"address","internalType":"contract IERC20"}],"stateMutability":"view"},{"type":"function","name":"properties","inputs":[{"name":"","type":"uint256","internalType":"uint256"}],"outputs":[{"name":"name","type":"string","internalType":"string"},{"name":"description","type":"string","internalType":"string"},{"name":"landlord","type":"address","internalType":"address"},{"name":"totalRentAmount","type":"uint256","internalType":"uint256"},{"name":"seriousnessDeposit","type":"uint256","internalType":"uint256"},{"name":"requiredTenantCount","type":"uint256","internalType":"uint256"},{"name":"amountPooledForRent","type":"uint256","internalType":"uint256"},{"name":"amountInVault","type":"uint256","internalType":"uint256"},{"name":"state","type":"uint8","internalType":"enum PropertyInterestPool.State"},{"name":"paymentDayStart","type":"uint256","internalType":"uint256"},{"name":"paymentDayEnd","type":"uint256","internalType":"uint256"}],"stateMutability":"view"},{"type":"function","name":"propertyCounter","inputs":[],"outputs":[{"name":"","type":"uint256","internalType":"uint256"}],"stateMutability":"view"},{"type":"function","name":"tenantPassport","inputs":[],"outputs":[{"name":"","type":"address","internalType":"contract ITenantPassport"}],"stateMutability":"view"},{"type":"function","name":"withdrawFromVault","inputs":[{"name":"_propertyId","type":"uint256","internalType":"uint256"},{"name":"_amount","type":"uint256","internalType":"uint256"}],"outputs":[],"stateMutability":"nonpayable"},{"type":"function","name":"withdrawInterest","inputs":[{"name":"_propertyId","type":"uint256","internalType":"uint256"}],"outputs":[],"stateMutability":"nonpayable"},{"type":"event","name":"FundsDepositedToVault","inputs":[{"name":"propertyId","type":"uint256","indexed":true,"internalType":"uint256"},{"name":"amount","type":"uint256","indexed":false,"internalType":"uint256"}],"anonymous":false},{"type":"event","name":"FundsWithdrawnFromVault","inputs":[{"name":"propertyId","type":"uint256","indexed":true,"internalType":"uint256"},{"name":"amount","type":"uint256","indexed":false,"internalType":"uint256"}],"anonymous":false},{"type":"event","name":"GroupFinalized","inputs":[{"name":"propertyId","type":"uint256","indexed":true,"internalType":"uint256"}],"anonymous":false},{"type":"event","name":"InterestExpressed","inputs":[{"name":"propertyId","type":"uint256","indexed":true,"internalType":"uint256"},{"name":"tenant","type":"address","indexed":true,"internalType":"address"},{"name":"depositAmount","type":"uint256","indexed":false,"internalType":"uint256"}],"anonymous":false},{"type":"event","name":"InterestWithdrawn","inputs":[{"name":"propertyId","type":"uint256","indexed":true,"internalType":"uint256"},{"name":"tenant","type":"address","indexed":true,"internalType":"address"},{"name":"depositAmount","type":"uint256","indexed":false,"internalType":"uint256"}],"anonymous":false},{"type":"event","name":"LandlordFundsAdded","inputs":[{"name":"propertyId","type":"uint256","indexed":true,"internalType":"uint256"},{"name":"amount","type":"uint256","indexed":false,"internalType":"uint256"}],"anonymous":false},{"type":"event","name":"LeaseClaimed","inputs":[{"name":"propertyId","type":"uint256","indexed":true,"internalType":"uint256"},{"name":"landlord","type":"address","indexed":false,"internalType":"address"},{"name":"rentAmount","type":"uint256","indexed":false,"internalType":"uint256"}],"anonymous":false},{"type":"event","name":"PoolCanceled","inputs":[{"name":"propertyId","type":"uint256","indexed":true,"internalType":"uint256"}],"anonymous":false},{"type":"event","name":"PropertyCreated","inputs":[{"name":"propertyId","type":"uint256","indexed":true,"internalType":"uint256"},{"name":"landlord","type":"address","indexed":true,"internalType":"address"},{"name":"totalRent","type":"uint256","indexed":false,"internalType":"uint256"}],"anonymous":false},{"type":"event","name":"RentFunded","inputs":[{"name":"propertyId","type":"uint256","indexed":true,"internalType":"uint256"},{"name":"tenant","type":"address","indexed":true,"internalType":"address"},{"name":"amount","type":"uint256","indexed":false,"internalType":"uint256"}],"anonymous":false},{"type":"error","name":"SafeERC20FailedOperation","inputs":[{"name":"token","type":"address","internalType":"address"}]}],"bytecode":{"object":"0x6080604052348015600e575f5ffd5b50604051611dd7380380611dd7833981016040819052602b916085565b5f80546001600160a01b039485166001600160a01b03199182161790915560018054938516938216939093179092556002805491909316911617905560be565b80516001600160a01b03811681146080575f5ffd5b919050565b5f5f5f606084860312156096575f5ffd5b609d84606b565b925060a960208501606b565b915060b560408501606b565b90509250925092565b611d0c806100cb5f395ff3fe608060405234801561000f575f5ffd5b50600436106100f0575f3560e01c80637097481811610093578063d090e47e11610063578063d090e47e146101fb578063de16f20814610212578063f796c72414610225578063f7b1080814610238575f5ffd5b806370974818146101af578063827c7889146101c2578063b0462296146101d5578063cc7106fc146101e8575f5ffd5b806317805407116100ce578063178054071461012f5780634043cd951461015f57806340f0a055146101715780634c6557fd1461019c575f5ffd5b806307bd93af146100f457806308669aab146101095780630a1838d71461011c575b5f5ffd5b61010761010236600461173b565b610262565b005b61010761011736600461173b565b61038d565b61010761012a366004611752565b6104a1565b600154610142906001600160a01b031681565b6040516001600160a01b0390911681526020015b60405180910390f35b5f54610142906001600160a01b031681565b61018461017f36600461173b565b610592565b6040516101569c9b9a999897969594939291906117d4565b6101076101aa366004611941565b6107a0565b6101076101bd366004611752565b610c1a565b6101076101d036600461173b565b610dd5565b6101076101e336600461173b565b610efe565b600254610142906001600160a01b031681565b61020460045481565b604051908152602001610156565b61010761022036600461173b565b6110b9565b61010761023336600461173b565b61120a565b61024b61024636600461173b565b611401565b6040516101569b9a999897969594939291906119cf565b5f8181526003602052604090206002015481906001600160a01b031633146102a55760405162461bcd60e51b815260040161029c90611a4d565b60405180910390fd5b5f828152600360208190526040909120908101546006820154146103035760405162461bcd60e51b815260206004820152601560248201527414995b9d081b9bdd08199d5b1b1e48199d5b991959605a1b604482015260640161029c565b600a8101805460ff1916600290811790915581015460038201545f54610337926001600160a01b0391821692911690611570565b60028101546003820154604080516001600160a01b039093168352602083019190915284917fba157d6d2377f7f188e56a4fcc022f0c422e03c9f7fcb9045f455b1071433abf91015b60405180910390a2505050565b806003805f838152600360208190526040909120600a015460ff16908111156103b8576103b86117a0565b146103d55760405162461bcd60e51b815260040161029c90611a84565b5f8381526003602090815260408083203384526009810190925290912054806104395760405162461bcd60e51b81526020600482015260166024820152754e6f206465706f73697420746f20776974686472617760501b604482015260640161029c565b335f818152600984016020526040812081905554610463916001600160a01b039091169083611570565b604051818152339086907f387d0e87494328c955a921844efb7a34dabb1d7d47d66ef1fe153dd1be9dc05e9060200160405180910390a35050505050565b5f8281526003602052604090206002015482906001600160a01b031633146104db5760405162461bcd60e51b815260040161029c90611a4d565b5f82116105245760405162461bcd60e51b8152602060048201526017602482015276416d6f756e74206d75737420626520706f73697469766560481b604482015260640161029c565b5f8381526003602052604081206006018054849290610544908490611acf565b90915550505f54610560906001600160a01b03163330856115d4565b827f6d9ca65a12af48aa8adb8bfcae732be3b8758b6f8323afa561b26a48c0bfb5478360405161038091815260200190565b6060805f5f5f5f5f5f60605f5f5f5f60035f8f81526020019081526020015f209050805f0181600101826002015f9054906101000a90046001600160a01b0316836003015484600401548560050154866006015487600701548860080189600a015f9054906101000a900460ff168a600b01548b600c01548b805461061690611ae2565b80601f016020809104026020016040519081016040528092919081815260200182805461064290611ae2565b801561068d5780601f106106645761010080835404028352916020019161068d565b820191905f5260205f20905b81548152906001019060200180831161067057829003601f168201915b50505050509b508a80546106a090611ae2565b80601f01602080910402602001604051908101604052809291908181526020018280546106cc90611ae2565b80156107175780601f106106ee57610100808354040283529160200191610717565b820191905f5260205f20905b8154815290600101906020018083116106fa57829003601f168201915b50505050509a508380548060200260200160405190810160405280929190818152602001828054801561077157602002820191905f5260205f20905b81546001600160a01b03168152600190910190602001808311610753575b505050505093509c509c509c509c509c509c509c509c509c509c509c509c505091939597999b5091939597999b565b5f83116107fb5760405162461bcd60e51b815260206004820152602360248201527f54656e616e7420636f756e74206d75737420626520677265617465722074686160448201526206e20360ec1b606482015260840161029c565b6108058386611b2e565b156108615760405162461bcd60e51b815260206004820152602660248201527f52656e74206d75737420626520646976697369626c652062792074656e616e746044820152650818dbdd5b9d60d21b606482015260840161029c565b600182101580156108735750601f8211155b6108d25760405162461bcd60e51b815260206004820152602a60248201527f5061796d656e7420737461727420646179206d757374206265206265747765656044820152696e203120616e6420333160b01b606482015260840161029c565b600181101580156108e45750601f8111155b6109415760405162461bcd60e51b815260206004820152602860248201527f5061796d656e7420656e6420646179206d757374206265206265747765656e206044820152673120616e6420333160c01b606482015260840161029c565b818110156109b75760405162461bcd60e51b815260206004820152603a60248201527f5061796d656e7420656e6420646179206d75737420626520677265617465722060448201527f7468616e206f7220657175616c20746f20737461727420646179000000000000606482015260840161029c565b60048054905f6109c683611b41565b90915550506004545f818152600360205260409020806109e68a82611ba4565b50600181016109f58982611ba4565b50600281018054336001600160a01b0319909116811790915560038201889055600480830188905560058301879055600a8301805460ff19169055600b8301869055600c83018590556001546040516370a0823160e01b8152918201929092525f916001600160a01b0316906370a0823190602401602060405180830381865afa158015610a85573d5f5f3e3d5ffd5b505050506040513d601f19601f82011682018060405250810190610aa99190611c5f565b90505f8111610b0b5760405162461bcd60e51b815260206004820152602860248201527f4c616e646c6f7264206d757374206861766520612054656e616e7420506173736044820152671c1bdc9d0813919560c21b606482015260840161029c565b600154604051632f745c5960e01b81523360048201525f60248201819052916001600160a01b031690632f745c5990604401602060405180830381865afa158015610b58573d5f5f3e3d5ffd5b505050506040513d601f19601f82011682018060405250810190610b7c9190611c5f565b60015460405163d9ec55ab60e01b8152600481018390529192506001600160a01b03169063d9ec55ab906024015f604051808303815f87803b158015610bc0575f5ffd5b505af1158015610bd2573d5f5f3e3d5ffd5b50506040518b81523392508691507f9815995bdb741d1e283b7e7fd822a34b01efd21fd2c59dc0d5ab07a587a617269060200160405180910390a35050505050505050505050565b5f8281526003602052604090206002015482906001600160a01b03163314610c545760405162461bcd60e51b815260040161029c90611a4d565b5f83815260036020526040902082610ca85760405162461bcd60e51b8152602060048201526017602482015276416d6f756e74206d75737420626520706f73697469766560481b604482015260640161029c565b8281600701541015610d0a5760405162461bcd60e51b815260206004820152602560248201527f576974686472617720616d6f756e742065786365656473207661756c742062616044820152646c616e636560d81b606482015260840161029c565b82816007015f828254610d1d9190611c76565b9250508190555082816006015f828254610d379190611acf565b9091555050600254604051632e1a7d4d60e01b8152600481018590526001600160a01b0390911690632e1a7d4d906024015f604051808303815f87803b158015610d7f575f5ffd5b505af1158015610d91573d5f5f3e3d5ffd5b50505050837fe0c132f8430b3f3d012bf0d5658848354885c454f9ec80179d94023f90bd4ab884604051610dc791815260200190565b60405180910390a250505050565b5f8181526003602052604090206002015481906001600160a01b03163314610e0f5760405162461bcd60e51b815260040161029c90611a4d565b5f828152600360205260408120600a015460ff1690816003811115610e3657610e366117a0565b1480610e5357506001816003811115610e5157610e516117a0565b145b610eb45760405162461bcd60e51b815260206004820152602c60248201527f506f6f6c2063616e206f6e6c792062652063616e63656c6564206966204f504560448201526b4e206f722046554e44494e4760a01b606482015260840161029c565b5f838152600360208190526040808320600a01805460ff19169092179091555184917f03febafce5358e5ccb78f3e18dcc83d21c96a64775251b7d3537cecd8464333091a2505050565b5f8181526003602052604090206002015481906001600160a01b03163314610f385760405162461bcd60e51b815260040161029c90611a4d565b5f828152600360205260409020600681015480610f975760405162461bcd60e51b815260206004820152601b60248201527f4e6f2066756e647320696e20706f6f6c20746f206465706f7369740000000000604482015260640161029c565b5f826006018190555080826007015f828254610fb39190611acf565b90915550505f5460025460405163095ea7b360e01b81526001600160a01b0391821660048201526024810184905291169063095ea7b3906044016020604051808303815f875af1158015611009573d5f5f3e3d5ffd5b505050506040513d601f19601f8201168201806040525081019061102d9190611c89565b5060025460405163b6b55f2560e01b8152600481018390526001600160a01b039091169063b6b55f25906024015f604051808303815f87803b158015611071575f5ffd5b505af1158015611083573d5f5f3e3d5ffd5b50505050837f5a758876c7872723d93c750973c15e087dd6a587b86ede0bddd3327459a4a8e182604051610dc791815260200190565b806001805f838152600360208190526040909120600a015460ff16908111156110e4576110e46117a0565b146111015760405162461bcd60e51b815260040161029c90611a84565b61110b833361160d565b6111575760405162461bcd60e51b815260206004820152601860248201527f4e6f7420616e20696e74657265737465642074656e616e740000000000000000604482015260640161029c565b5f838152600360208190526040822060058101549181015490929161117b91611caf565b335f9081526009840160205260408120549192509061119a9083611c76565b905081836006015f8282546111af9190611acf565b90915550505f546111cb906001600160a01b03163330846115d4565b604051828152339087907fc29a1e4f4ab27c9953c3664751fc3ed78728bcfe7fcae8e3f2aa030f140494849060200160405180910390a3505050505050565b805f805f838152600360208190526040909120600a015460ff1690811115611234576112346117a0565b146112515760405162461bcd60e51b815260040161029c90611a84565b826004541015801561126257505f83115b6112ae5760405162461bcd60e51b815260206004820152601760248201527f50726f706572747920646f6573206e6f74206578697374000000000000000000604482015260640161029c565b6112b8833361160d565b156113055760405162461bcd60e51b815260206004820152601a60248201527f416c72656164792065787072657373656420696e746572657374000000000000604482015260640161029c565b5f838152600360209081526040808320600481018054338087526009840186529386205560088201805460018101825590865293852090930180546001600160a01b0319168317905591549254919261136a926001600160a01b0316919030906115d4565b336001600160a01b0316847f9bfc3b997c93fbb803bddbbc2732b0209c94d8b02d5367c6442dbc671c22d99483600401546040516113aa91815260200190565b60405180910390a360058101546008820154036113fb57600a8101805460ff1916600117905560405184907f8440b1be3f2c3b3ddb5efbb25ddf9c0aab1b6ab432efc2ded34aff5aef837c43905f90a25b50505050565b60036020525f908152604090208054819061141b90611ae2565b80601f016020809104026020016040519081016040528092919081815260200182805461144790611ae2565b80156114925780601f1061146957610100808354040283529160200191611492565b820191905f5260205f20905b81548152906001019060200180831161147557829003601f168201915b5050505050908060010180546114a790611ae2565b80601f01602080910402602001604051908101604052809291908181526020018280546114d390611ae2565b801561151e5780601f106114f55761010080835404028352916020019161151e565b820191905f5260205f20905b81548152906001019060200180831161150157829003601f168201915b505050600284015460038501546004860154600587015460068801546007890154600a8a0154600b8b0154600c909b0154999a6001600160a01b039097169995985093965091949093919260ff16918b565b6040516001600160a01b038381166024830152604482018390526115cf91859182169063a9059cbb906064015b604051602081830303815290604052915060e01b6020820180516001600160e01b0383818316178352505050506116cf565b505050565b6040516001600160a01b0384811660248301528381166044830152606482018390526113fb9186918216906323b872dd9060840161159d565b5f8281526003602090815260408083206008018054825181850281018501909352808352849383018282801561166a57602002820191905f5260205f20905b81546001600160a01b0316815260019091019060200180831161164c575b509394505f93505050505b81518110156116c357836001600160a01b031682828151811061169a5761169a611cc2565b60200260200101516001600160a01b0316036116bb576001925050506116c9565b600101611675565b505f9150505b92915050565b5f5f60205f8451602086015f885af1806116ee576040513d5f823e3d81fd5b50505f513d91508115611705578060011415611712565b6001600160a01b0384163b155b156113fb57604051635274afe760e01b81526001600160a01b038516600482015260240161029c565b5f6020828403121561174b575f5ffd5b5035919050565b5f5f60408385031215611763575f5ffd5b50508035926020909101359150565b5f81518084528060208401602086015e5f602082860101526020601f19601f83011685010191505092915050565b634e487b7160e01b5f52602160045260245ffd5b600481106117d057634e487b7160e01b5f52602160045260245ffd5b9052565b61018081525f6117e861018083018f611772565b82810360208401526117fa818f611772565b6001600160a01b038e166040850152606084018d9052608084018c905260a084018b905260c084018a905260e0840189905283810361010085015287518082526020808a019350909101905f90815b818110156118705784516001600160a01b0316845260209485019490930192600101611849565b50919350611886925050506101208301866117b4565b61014082019390935261016001529a9950505050505050505050565b634e487b7160e01b5f52604160045260245ffd5b5f82601f8301126118c5575f5ffd5b813567ffffffffffffffff8111156118df576118df6118a2565b604051601f8201601f19908116603f0116810167ffffffffffffffff8111828210171561190e5761190e6118a2565b604052818152838201602001851015611925575f5ffd5b816020850160208301375f918101602001919091529392505050565b5f5f5f5f5f5f5f60e0888a031215611957575f5ffd5b873567ffffffffffffffff81111561196d575f5ffd5b6119798a828b016118b6565b975050602088013567ffffffffffffffff811115611995575f5ffd5b6119a18a828b016118b6565b979a9799505050506040860135956060810135956080820135955060a0820135945060c09091013592509050565b61016081525f6119e361016083018e611772565b82810360208401526119f5818e611772565b91505060018060a01b038b1660408301528960608301528860808301528760a08301528660c08301528560e0830152611a326101008301866117b4565b61012082019390935261014001529998505050505050505050565b6020808252601b908201527f4f6e6c79206c616e646c6f72642063616e2063616c6c20746869730000000000604082015260600190565b6020808252601d908201527f50726f7065727479206e6f7420696e20636f7272656374207374617465000000604082015260600190565b634e487b7160e01b5f52601160045260245ffd5b808201808211156116c9576116c9611abb565b600181811c90821680611af657607f821691505b602082108103611b1457634e487b7160e01b5f52602260045260245ffd5b50919050565b634e487b7160e01b5f52601260045260245ffd5b5f82611b3c57611b3c611b1a565b500690565b5f60018201611b5257611b52611abb565b5060010190565b601f8211156115cf57805f5260205f20601f840160051c81016020851015611b7e5750805b601f840160051c820191505b81811015611b9d575f8155600101611b8a565b5050505050565b815167ffffffffffffffff811115611bbe57611bbe6118a2565b611bd281611bcc8454611ae2565b84611b59565b6020601f821160018114611c04575f8315611bed5750848201515b5f19600385901b1c1916600184901b178455611b9d565b5f84815260208120601f198516915b82811015611c335787850151825560209485019460019092019101611c13565b5084821015611c5057868401515f19600387901b60f8161c191681555b50505050600190811b01905550565b5f60208284031215611c6f575f5ffd5b5051919050565b818103818111156116c9576116c9611abb565b5f60208284031215611c99575f5ffd5b81518015158114611ca8575f5ffd5b9392505050565b5f82611cbd57611cbd611b1a565b500490565b634e487b7160e01b5f52603260045260245ffdfea2646970667358221220b7ccac8b6f50e2874183edbd36a153b3361a00ef85a37dd91681772f8785e53164736f6c634300081e0033","linkReferences":{}},"methodIdentifiers":{"addLandlordFunds(uint256,uint256)":"0a1838d7","cancelPool(uint256)":"827c7889","claimLease(uint256)":"07bd93af","createPropertyPool(string,string,uint256,uint256,uint256,uint256,uint256)":"4c6557fd","depositToVault(uint256)":"b0462296","expressInterest(uint256)":"f796c724","fundRent(uint256)":"de16f208","getPropertyInfo(uint256)":"40f0a055","interestGenerator()":"cc7106fc","mxnbToken()":"4043cd95","properties(uint256)":"f7b10808","propertyCounter()":"d090e47e","tenantPassport()":"17805407","withdrawFromVault(uint256,uint256)":"70974818","withdrawInterest(uint256)":"08669aab"},"id":39}