{"abi":[{"type":"constructor","inputs":[{"name":"_mxnbTokenAddress","type":"address","internalType":"address"},{"name":"_tenantPassportAddress","type":"address","internalType":"address"}],"stateMutability":"nonpayable"},{"type":"function","name":"cancelPool","inputs":[{"name":"_propertyId","type":"uint256","internalType":"uint256"}],"outputs":[],"stateMutability":"nonpayable"},{"type":"function","name":"claimLease","inputs":[{"name":"_propertyId","type":"uint256","internalType":"uint256"}],"outputs":[],"stateMutability":"nonpayable"},{"type":"function","name":"createPropertyPool","inputs":[{"name":"_totalRent","type":"uint256","internalType":"uint256"},{"name":"_seriousnessDeposit","type":"uint256","internalType":"uint256"},{"name":"_tenantCount","type":"uint256","internalType":"uint256"},{"name":"_paymentDayStart","type":"uint256","internalType":"uint256"},{"name":"_paymentDayEnd","type":"uint256","internalType":"uint256"}],"outputs":[],"stateMutability":"nonpayable"},{"type":"function","name":"expressInterest","inputs":[{"name":"_propertyId","type":"uint256","internalType":"uint256"}],"outputs":[],"stateMutability":"nonpayable"},{"type":"function","name":"fundRent","inputs":[{"name":"_propertyId","type":"uint256","internalType":"uint256"}],"outputs":[],"stateMutability":"nonpayable"},{"type":"function","name":"getPropertyInfo","inputs":[{"name":"_propertyId","type":"uint256","internalType":"uint256"}],"outputs":[{"name":"","type":"address","internalType":"address"},{"name":"","type":"uint256","internalType":"uint256"},{"name":"","type":"uint256","internalType":"uint256"},{"name":"","type":"uint256","internalType":"uint256"},{"name":"","type":"uint256","internalType":"uint256"},{"name":"","type":"address[]","internalType":"address[]"},{"name":"","type":"uint8","internalType":"enum PropertyInterestPool.State"},{"name":"","type":"uint256","internalType":"uint256"},{"name":"","type":"uint256","internalType":"uint256"}],"stateMutability":"view"},{"type":"function","name":"mxnbToken","inputs":[],"outputs":[{"name":"","type":"address","internalType":"contract IERC20"}],"stateMutability":"view"},{"type":"function","name":"properties","inputs":[{"name":"","type":"uint256","internalType":"uint256"}],"outputs":[{"name":"landlord","type":"address","internalType":"address"},{"name":"totalRentAmount","type":"uint256","internalType":"uint256"},{"name":"seriousnessDeposit","type":"uint256","internalType":"uint256"},{"name":"requiredTenantCount","type":"uint256","internalType":"uint256"},{"name":"amountPooledForRent","type":"uint256","internalType":"uint256"},{"name":"state","type":"uint8","internalType":"enum PropertyInterestPool.State"},{"name":"paymentDayStart","type":"uint256","internalType":"uint256"},{"name":"paymentDayEnd","type":"uint256","internalType":"uint256"}],"stateMutability":"view"},{"type":"function","name":"propertyCounter","inputs":[],"outputs":[{"name":"","type":"uint256","internalType":"uint256"}],"stateMutability":"view"},{"type":"function","name":"tenantPassport","inputs":[],"outputs":[{"name":"","type":"address","internalType":"contract ITenantPassport"}],"stateMutability":"view"},{"type":"function","name":"withdrawInterest","inputs":[{"name":"_propertyId","type":"uint256","internalType":"uint256"}],"outputs":[],"stateMutability":"nonpayable"},{"type":"event","name":"GroupFinalized","inputs":[{"name":"propertyId","type":"uint256","indexed":true,"internalType":"uint256"}],"anonymous":false},{"type":"event","name":"InterestExpressed","inputs":[{"name":"propertyId","type":"uint256","indexed":true,"internalType":"uint256"},{"name":"tenant","type":"address","indexed":true,"internalType":"address"},{"name":"depositAmount","type":"uint256","indexed":false,"internalType":"uint256"}],"anonymous":false},{"type":"event","name":"InterestWithdrawn","inputs":[{"name":"propertyId","type":"uint256","indexed":true,"internalType":"uint256"},{"name":"tenant","type":"address","indexed":true,"internalType":"address"},{"name":"depositAmount","type":"uint256","indexed":false,"internalType":"uint256"}],"anonymous":false},{"type":"event","name":"LeaseClaimed","inputs":[{"name":"propertyId","type":"uint256","indexed":true,"internalType":"uint256"},{"name":"landlord","type":"address","indexed":false,"internalType":"address"},{"name":"rentAmount","type":"uint256","indexed":false,"internalType":"uint256"}],"anonymous":false},{"type":"event","name":"PoolCanceled","inputs":[{"name":"propertyId","type":"uint256","indexed":true,"internalType":"uint256"}],"anonymous":false},{"type":"event","name":"PropertyCreated","inputs":[{"name":"propertyId","type":"uint256","indexed":true,"internalType":"uint256"},{"name":"landlord","type":"address","indexed":true,"internalType":"address"},{"name":"totalRent","type":"uint256","indexed":false,"internalType":"uint256"}],"anonymous":false},{"type":"event","name":"RentFunded","inputs":[{"name":"propertyId","type":"uint256","indexed":true,"internalType":"uint256"},{"name":"tenant","type":"address","indexed":true,"internalType":"address"},{"name":"amount","type":"uint256","indexed":false,"internalType":"uint256"}],"anonymous":false},{"type":"error","name":"SafeERC20FailedOperation","inputs":[{"name":"token","type":"address","internalType":"address"}]}],"bytecode":{"object":"0x608034608557601f61109338819003918201601f19168301916001600160401b038311848410176089578084926040948552833981010312608557604b6020604583609d565b9201609d565b5f80546001600160a01b039384166001600160a01b03199182161790915560018054929093169116179055604051610fe290816100b18239f35b5f80fd5b634e487b7160e01b5f52604160045260245ffd5b51906001600160a01b038216820360855756fe60806040526004361015610011575f80fd5b5f5f3560e01c806307bd93af14610c4c57806308669aab14610b425780631780540714610b1a5780634043cd9514610af357806340f0a05514610a11578063565accc3146105cb578063827c7889146104c5578063d090e47e146104a7578063de16f20814610343578063f796c724146101205763f7b1080814610093575f80fd5b3461011d57602036600319011261011d57604061010091600435815260026020522060018060a01b03815416906001810154906101116002820154600383015460048401549060ff600786015416926009600887015496015496604051988952602089015260408801526060870152608086015260a0850190610d47565b60c083015260e0820152f35b80fd5b503461011d57602036600319011261011d57600435808252600260205260ff600760408420015416600481101561032f5761015b9015610da0565b80600354101580610326575b156102e1576101763382610eb6565b61029c5780825260026020526040822060028101805460018060a01b0333165f526006830160205260405f20556005820190815468010000000000000000811015610288576001810180845581101561027457828652602086200180546001600160a01b03191633908117909155855482546101ff9290913091906001600160a01b0316610f10565b54604051908152837f9bfc3b997c93fbb803bddbbc2732b0209c94d8b02d5367c6442dbc671c22d99460203393a35460038201541461023c578280f35b600701805460ff191660011790557f8440b1be3f2c3b3ddb5efbb25ddf9c0aab1b6ab432efc2ded34aff5aef837c438280a25f808280f35b634e487b7160e01b86526032600452602486fd5b634e487b7160e01b86526041600452602486fd5b60405162461bcd60e51b815260206004820152601a60248201527f416c72656164792065787072657373656420696e7465726573740000000000006044820152606490fd5b60405162461bcd60e51b815260206004820152601760248201527f50726f706572747920646f6573206e6f742065786973740000000000000000006044820152606490fd5b50801515610167565b634e487b7160e01b83526021600452602483fd5b503461011d57602036600319011261011d57600435808252600260205260ff600760408420015416600481101561032f5760016103809114610da0565b61038a3382610eb6565b1561046257808252600260205260408220906001820154600383015490811561044e57335f908152600685016020526040902054919004929083039083821161043a57600401805490848201809211610426575583546103f79190309033906001600160a01b0316610f10565b6040519182527fc29a1e4f4ab27c9953c3664751fc3ed78728bcfe7fcae8e3f2aa030f1404948460203393a380f35b634e487b7160e01b86526011600452602486fd5b634e487b7160e01b85526011600452602485fd5b634e487b7160e01b85526012600452602485fd5b60405162461bcd60e51b815260206004820152601860248201527f4e6f7420616e20696e74657265737465642074656e616e7400000000000000006044820152606490fd5b503461011d578060031936011261011d576020600354604051908152f35b503461011d57602036600319011261011d5760043580825260026020526104f960018060a01b036040842054163314610d54565b808252600260205260ff600760408420015416600481101561032f5780159081156105c0575b501561056657808252600260205260408220600701805460ff191660031790557f03febafce5358e5ccb78f3e18dcc83d21c96a64775251b7d3537cecd846433308280a280f35b60405162461bcd60e51b815260206004820152602c60248201527f506f6f6c2063616e206f6e6c792062652063616e63656c6564206966204f504560448201526b4e206f722046554e44494e4760a01b6064820152608490fd5b60019150145f61051f565b503461076b5760a036600319011261076b5760043560643560843560443580156109c05780840661096c57600183101580610961575b15610909576001821015806108fe575b156108a85782821061083d57600354905f198214610829576001600992019384600355845f52600260205260405f2091336bffffffffffffffffffffffff60a01b845416178355866001840155602435600284015560038301556007820160ff1981541690556008820155015560018060a01b03600154166040516370a0823160e01b8152336004820152602081602481855afa908115610760575f916107f7575b50156107a157604051632f745c5960e01b81523360048201525f6024820152602081604481855afa908115610760575f9161076f575b50813b1561076b575f9160248392604051948593849263d9ec55ab60e01b845260048401525af180156107605761074b575b506040519182527f9815995bdb741d1e283b7e7fd822a34b01efd21fd2c59dc0d5ab07a587a6172660203393a380f35b6107589193505f90610dec565b5f915f61071b565b6040513d5f823e3d90fd5b5f80fd5b90506020813d602011610799575b8161078a60209383610dec565b8101031261076b57515f6106e9565b3d915061077d565b60405162461bcd60e51b815260206004820152602860248201527f4c616e646c6f7264206d757374206861766520612054656e616e7420506173736044820152671c1bdc9d0813919560c21b6064820152608490fd5b90506020813d602011610821575b8161081260209383610dec565b8101031261076b57515f6106b3565b3d9150610805565b634e487b7160e01b5f52601160045260245ffd5b60405162461bcd60e51b815260206004820152603a60248201527f5061796d656e7420656e6420646179206d75737420626520677265617465722060448201527f7468616e206f7220657175616c20746f207374617274206461790000000000006064820152608490fd5b60405162461bcd60e51b815260206004820152602860248201527f5061796d656e7420656e6420646179206d757374206265206265747765656e206044820152673120616e6420333160c01b6064820152608490fd5b50601f821115610611565b60405162461bcd60e51b815260206004820152602a60248201527f5061796d656e7420737461727420646179206d757374206265206265747765656044820152696e203120616e6420333160b01b6064820152608490fd5b50601f831115610601565b60405162461bcd60e51b815260206004820152602660248201527f52656e74206d75737420626520646976697369626c652062792074656e616e746044820152650818dbdd5b9d60d21b6064820152608490fd5b60405162461bcd60e51b815260206004820152602360248201527f54656e616e7420636f756e74206d75737420626520677265617465722074686160448201526206e20360ec1b6064820152608490fd5b3461076b57602036600319011261076b576004355f52600260205260405f2060018060a01b0381541690600181015490600281015490600381015460048201549460ff60078401541695600884015492610a72600560098701549601610e22565b95604051976101208901948952602089015260408801526060870152608086015261012060a08601528351809152602061014086019401905f5b818110610ad457505050610ac5849560c0860190610d47565b60e08401526101008301520390f35b82516001600160a01b0316865260209586019590920191600101610aac565b3461076b575f36600319011261076b575f546040516001600160a01b039091168152602090f35b3461076b575f36600319011261076b576001546040516001600160a01b039091168152602090f35b3461076b57602036600319011261076b57600435805f52600260205260ff600760405f200154166004811015610c38576003610b7e9114610da0565b5f818152600260209081526040808320338452600601918290529091205491908215610bfa57335f818152602092909252604082208290559054610bcc9184916001600160a01b0316610e75565b6040519182527f387d0e87494328c955a921844efb7a34dabb1d7d47d66ef1fe153dd1be9dc05e60203393a3005b60405162461bcd60e51b81526020600482015260166024820152754e6f206465706f73697420746f20776974686472617760501b6044820152606490fd5b634e487b7160e01b5f52602160045260245ffd5b3461076b57602036600319011261076b57600435805f526002602052610c7f60018060a01b0360405f2054163314610d54565b805f52600260205260405f2060048101546001820190815403610d0a5760078201805460ff191660021790555f54825482547fba157d6d2377f7f188e56a4fcc022f0c422e03c9f7fcb9045f455b1071433abf9492610cea926001600160a01b039081169116610e75565b549054604080516001600160a01b039093168352602083019190915290a2005b60405162461bcd60e51b815260206004820152601560248201527414995b9d081b9bdd08199d5b1b1e48199d5b991959605a1b6044820152606490fd5b906004821015610c385752565b15610d5b57565b60405162461bcd60e51b815260206004820152601b60248201527f4f6e6c79206c616e646c6f72642063616e2063616c6c207468697300000000006044820152606490fd5b15610da757565b60405162461bcd60e51b815260206004820152601d60248201527f50726f7065727479206e6f7420696e20636f72726563742073746174650000006044820152606490fd5b90601f8019910116810190811067ffffffffffffffff821117610e0e57604052565b634e487b7160e01b5f52604160045260245ffd5b90604051918281549182825260208201905f5260205f20925f5b818110610e53575050610e5192500383610dec565b565b84546001600160a01b0316835260019485019487945060209093019201610e3c565b60405163a9059cbb60e01b60208201526001600160a01b03929092166024830152604480830193909352918152610e5191610eb1606483610dec565b610f54565b5f526002602052610ecc600560405f2001610e22565b805191905f5b83811015610f0857600581901b8201602001516001600160a01b03848116911614610eff57600101610ed2565b50505050600190565b505050505f90565b6040516323b872dd60e01b60208201526001600160a01b039283166024820152929091166044830152606480830193909352918152610e5191610eb1608483610dec565b905f602091828151910182855af115610760575f513d610fa357506001600160a01b0381163b155b610f835750565b635274afe760e01b5f9081526001600160a01b0391909116600452602490fd5b60011415610f7c56fea2646970667358221220d9c83ab3b634bbc27ca37efa46bda063f1437584def419a6544c560c707e93df64736f6c634300081e0033","linkReferences":{}},"methodIdentifiers":{"cancelPool(uint256)":"827c7889","claimLease(uint256)":"07bd93af","createPropertyPool(uint256,uint256,uint256,uint256,uint256)":"565accc3","expressInterest(uint256)":"f796c724","fundRent(uint256)":"de16f208","getPropertyInfo(uint256)":"40f0a055","mxnbToken()":"4043cd95","properties(uint256)":"f7b10808","propertyCounter()":"d090e47e","tenantPassport()":"17805407","withdrawInterest(uint256)":"08669aab"},"id":39}