{"abi":[{"type":"constructor","inputs":[{"name":"_mxnbTokenAddress","type":"address","internalType":"address"},{"name":"_tenantPassportAddress","type":"address","internalType":"address"},{"name":"_interestGeneratorAddress","type":"address","internalType":"address"},{"name":"initialOwner","type":"address","internalType":"address"}],"stateMutability":"nonpayable"},{"type":"function","name":"addLandlordFunds","inputs":[{"name":"_propertyId","type":"uint256","internalType":"uint256"},{"name":"_amount","type":"uint256","internalType":"uint256"}],"outputs":[],"stateMutability":"nonpayable"},{"type":"function","name":"cancelPool","inputs":[{"name":"_propertyId","type":"uint256","internalType":"uint256"}],"outputs":[],"stateMutability":"nonpayable"},{"type":"function","name":"claimLease","inputs":[{"name":"_propertyId","type":"uint256","internalType":"uint256"}],"outputs":[],"stateMutability":"nonpayable"},{"type":"function","name":"createPropertyPool","inputs":[{"name":"_name","type":"string","internalType":"string"},{"name":"_description","type":"string","internalType":"string"},{"name":"_totalRent","type":"uint256","internalType":"uint256"},{"name":"_seriousnessDeposit","type":"uint256","internalType":"uint256"},{"name":"_tenantCount","type":"uint256","internalType":"uint256"},{"name":"_paymentDayStart","type":"uint8","internalType":"uint8"},{"name":"_paymentDayEnd","type":"uint8","internalType":"uint8"}],"outputs":[],"stateMutability":"nonpayable"},{"type":"function","name":"depositToVault","inputs":[{"name":"_propertyId","type":"uint256","internalType":"uint256"}],"outputs":[],"stateMutability":"nonpayable"},{"type":"function","name":"expressInterest","inputs":[{"name":"_propertyId","type":"uint256","internalType":"uint256"}],"outputs":[],"stateMutability":"nonpayable"},{"type":"function","name":"fundRent","inputs":[{"name":"_propertyId","type":"uint256","internalType":"uint256"}],"outputs":[],"stateMutability":"nonpayable"},{"type":"function","name":"getInterestedTenants","inputs":[{"name":"_propertyId","type":"uint256","internalType":"uint256"}],"outputs":[{"name":"","type":"address[]","internalType":"address[]"}],"stateMutability":"view"},{"type":"function","name":"getPropertiesByLandlord","inputs":[{"name":"_landlord","type":"address","internalType":"address"}],"outputs":[{"name":"","type":"uint256[]","internalType":"uint256[]"}],"stateMutability":"view"},{"type":"function","name":"getPropertyInfo","inputs":[{"name":"_propertyId","type":"uint256","internalType":"uint256"}],"outputs":[{"name":"name","type":"string","internalType":"string"},{"name":"description","type":"string","internalType":"string"},{"name":"landlord","type":"address","internalType":"address"},{"name":"totalRentAmount","type":"uint256","internalType":"uint256"},{"name":"seriousnessDeposit","type":"uint256","internalType":"uint256"},{"name":"requiredTenantCount","type":"uint256","internalType":"uint256"},{"name":"amountPooledForRent","type":"uint256","internalType":"uint256"},{"name":"amountInVault","type":"uint256","internalType":"uint256"},{"name":"state","type":"uint8","internalType":"enum PropertyInterestPool.State"},{"name":"paymentDayStart","type":"uint8","internalType":"uint8"},{"name":"paymentDayEnd","type":"uint8","internalType":"uint8"}],"stateMutability":"view"},{"type":"function","name":"interestGenerator","inputs":[],"outputs":[{"name":"","type":"address","internalType":"contract IMXNBInterestGenerator"}],"stateMutability":"view"},{"type":"function","name":"landlordProperties","inputs":[{"name":"","type":"address","internalType":"address"},{"name":"","type":"uint256","internalType":"uint256"}],"outputs":[{"name":"","type":"uint256","internalType":"uint256"}],"stateMutability":"view"},{"type":"function","name":"mxnbToken","inputs":[],"outputs":[{"name":"","type":"address","internalType":"contract IERC20"}],"stateMutability":"view"},{"type":"function","name":"owner","inputs":[],"outputs":[{"name":"","type":"address","internalType":"address"}],"stateMutability":"view"},{"type":"function","name":"pause","inputs":[],"outputs":[],"stateMutability":"nonpayable"},{"type":"function","name":"paused","inputs":[],"outputs":[{"name":"","type":"bool","internalType":"bool"}],"stateMutability":"view"},{"type":"function","name":"properties","inputs":[{"name":"","type":"uint256","internalType":"uint256"}],"outputs":[{"name":"name","type":"string","internalType":"string"},{"name":"description","type":"string","internalType":"string"},{"name":"landlord","type":"address","internalType":"address"},{"name":"state","type":"uint8","internalType":"enum PropertyInterestPool.State"},{"name":"paymentDayStart","type":"uint8","internalType":"uint8"},{"name":"paymentDayEnd","type":"uint8","internalType":"uint8"},{"name":"totalRentAmount","type":"uint256","internalType":"uint256"},{"name":"seriousnessDeposit","type":"uint256","internalType":"uint256"},{"name":"requiredTenantCount","type":"uint256","internalType":"uint256"},{"name":"amountPooledForRent","type":"uint256","internalType":"uint256"},{"name":"amountInVault","type":"uint256","internalType":"uint256"}],"stateMutability":"view"},{"type":"function","name":"propertyCounter","inputs":[],"outputs":[{"name":"","type":"uint256","internalType":"uint256"}],"stateMutability":"view"},{"type":"function","name":"renounceOwnership","inputs":[],"outputs":[],"stateMutability":"nonpayable"},{"type":"function","name":"tenantPassport","inputs":[],"outputs":[{"name":"","type":"address","internalType":"contract ITenantPassport"}],"stateMutability":"view"},{"type":"function","name":"transferOwnership","inputs":[{"name":"newOwner","type":"address","internalType":"address"}],"outputs":[],"stateMutability":"nonpayable"},{"type":"function","name":"unpause","inputs":[],"outputs":[],"stateMutability":"nonpayable"},{"type":"function","name":"withdrawFromVault","inputs":[{"name":"_propertyId","type":"uint256","internalType":"uint256"},{"name":"_amount","type":"uint256","internalType":"uint256"}],"outputs":[],"stateMutability":"nonpayable"},{"type":"function","name":"withdrawInterest","inputs":[{"name":"_propertyId","type":"uint256","internalType":"uint256"}],"outputs":[],"stateMutability":"nonpayable"},{"type":"event","name":"FundsDepositedToVault","inputs":[{"name":"propertyId","type":"uint256","indexed":true,"internalType":"uint256"},{"name":"amount","type":"uint256","indexed":false,"internalType":"uint256"}],"anonymous":false},{"type":"event","name":"FundsWithdrawnFromVault","inputs":[{"name":"propertyId","type":"uint256","indexed":true,"internalType":"uint256"},{"name":"amount","type":"uint256","indexed":false,"internalType":"uint256"}],"anonymous":false},{"type":"event","name":"GroupFinalized","inputs":[{"name":"propertyId","type":"uint256","indexed":true,"internalType":"uint256"}],"anonymous":false},{"type":"event","name":"InterestExpressed","inputs":[{"name":"propertyId","type":"uint256","indexed":true,"internalType":"uint256"},{"name":"tenant","type":"address","indexed":true,"internalType":"address"},{"name":"depositAmount","type":"uint256","indexed":false,"internalType":"uint256"}],"anonymous":false},{"type":"event","name":"InterestWithdrawn","inputs":[{"name":"propertyId","type":"uint256","indexed":true,"internalType":"uint256"},{"name":"tenant","type":"address","indexed":true,"internalType":"address"},{"name":"depositAmount","type":"uint256","indexed":false,"internalType":"uint256"}],"anonymous":false},{"type":"event","name":"LandlordFundsAdded","inputs":[{"name":"propertyId","type":"uint256","indexed":true,"internalType":"uint256"},{"name":"amount","type":"uint256","indexed":false,"internalType":"uint256"}],"anonymous":false},{"type":"event","name":"LeaseClaimed","inputs":[{"name":"propertyId","type":"uint256","indexed":true,"internalType":"uint256"},{"name":"landlord","type":"address","indexed":false,"internalType":"address"},{"name":"rentAmount","type":"uint256","indexed":false,"internalType":"uint256"}],"anonymous":false},{"type":"event","name":"OwnershipTransferred","inputs":[{"name":"previousOwner","type":"address","indexed":true,"internalType":"address"},{"name":"newOwner","type":"address","indexed":true,"internalType":"address"}],"anonymous":false},{"type":"event","name":"Paused","inputs":[{"name":"account","type":"address","indexed":false,"internalType":"address"}],"anonymous":false},{"type":"event","name":"PoolCanceled","inputs":[{"name":"propertyId","type":"uint256","indexed":true,"internalType":"uint256"}],"anonymous":false},{"type":"event","name":"PropertyCreated","inputs":[{"name":"propertyId","type":"uint256","indexed":true,"internalType":"uint256"},{"name":"landlord","type":"address","indexed":true,"internalType":"address"},{"name":"totalRent","type":"uint256","indexed":false,"internalType":"uint256"}],"anonymous":false},{"type":"event","name":"RentFunded","inputs":[{"name":"propertyId","type":"uint256","indexed":true,"internalType":"uint256"},{"name":"tenant","type":"address","indexed":true,"internalType":"address"},{"name":"amount","type":"uint256","indexed":false,"internalType":"uint256"}],"anonymous":false},{"type":"event","name":"Unpaused","inputs":[{"name":"account","type":"address","indexed":false,"internalType":"address"}],"anonymous":false},{"type":"error","name":"EnforcedPause","inputs":[]},{"type":"error","name":"ExpectedPause","inputs":[]},{"type":"error","name":"OwnableInvalidOwner","inputs":[{"name":"owner","type":"address","internalType":"address"}]},{"type":"error","name":"OwnableUnauthorizedAccount","inputs":[{"name":"account","type":"address","internalType":"address"}]},{"type":"error","name":"SafeERC20FailedOperation","inputs":[{"name":"token","type":"address","internalType":"address"}]}],"bytecode":{"object":"0x60e060405234801561000f575f5ffd5b506040516123ab3803806123ab83398101604081905261002e916100ee565b806001600160a01b03811661005c57604051631e4fbdf760e01b81525f600482015260240160405180910390fd5b61006581610084565b50506001600160a01b0392831660805290821660a0521660c05261013f565b5f80546001600160a01b038381166001600160a01b0319831681178455604051919092169283917f8be0079c531659141344cd1fd0a4f28419497f9722a3daafe3b4186f6b6457e09190a35050565b80516001600160a01b03811681146100e9575f5ffd5b919050565b5f5f5f5f60808587031215610101575f5ffd5b61010a856100d3565b9350610118602086016100d3565b9250610126604086016100d3565b9150610134606086016100d3565b905092959194509250565b60805160a05160c0516121ee6101bd5f395f81816102dd01528181610f59015281816111c6015261127601525f818161019701528181610bd801528181610cbe0152610d4801525f81816101e301528181610485015281816105d401528181610705015281816111f501528181611491015261170e01526121ee5ff3fe608060405234801561000f575f5ffd5b5060043610610153575f3560e01c8063827c7889116100bf578063d38319dc11610079578063d38319dc14610308578063de16f20814610328578063f015c2551461033b578063f2fde38b1461035b578063f796c7241461036e578063f7b1080814610381575f5ffd5b8063827c78891461029a5780638456cb59146102ad5780638da5cb5b146102b5578063b0462296146102c5578063cc7106fc146102d8578063d090e47e146102ff575f5ffd5b806340f0a0551161011057806340f0a05514610205578063455e1fdb1461022f5780635c975abb146102425780636007bd6e1461025e578063709748181461027f578063715018a614610292575f5ffd5b806307bd93af1461015757806308669aab1461016c5780630a1838d71461017f57806317805407146101925780633f4ba83a146101d65780634043cd95146101de575b5f5ffd5b61016a610165366004611bbb565b6103ab565b005b61016a61017a366004611bbb565b610505565b61016a61018d366004611bd2565b610641565b6101b97f000000000000000000000000000000000000000000000000000000000000000081565b6040516001600160a01b0390911681526020015b60405180910390f35b61016a61075f565b6101b97f000000000000000000000000000000000000000000000000000000000000000081565b610218610213366004611bbb565b610771565b6040516101cd9b9a99989796959493929190611c54565b61016a61023d366004611d35565b61092c565b5f54600160a01b900460ff1660405190151581526020016101cd565b61027161026c366004611df4565b610dec565b6040519081526020016101cd565b61016a61028d366004611bd2565b610e17565b61016a610ff8565b61016a6102a8366004611bbb565b611009565b61016a6110dd565b5f546001600160a01b03166101b9565b61016a6102d3366004611bbb565b6110ed565b6101b97f000000000000000000000000000000000000000000000000000000000000000081565b61027160025481565b61031b610316366004611bbb565b611307565b6040516101cd9190611e1c565b61016a610336366004611bbb565b611373565b61034e610349366004611e67565b6114f8565b6040516101cd9190611e87565b61016a610369366004611e67565b611560565b61016a61037c366004611bbb565b61159d565b61039461038f366004611bbb565b6117db565b6040516101cd9b9a99989796959493929190611ebe565b6103b361194e565b5f8181526001602052604090206002015481906001600160a01b031633146103f65760405162461bcd60e51b81526004016103ed90611f45565b60405180910390fd5b5f82815260016020526040902060038101546006820154101561045b5760405162461bcd60e51b815260206004820152601d60248201527f4c612072656e74612061756e206e6f206573746120636f6d706c65746100000060448201526064016103ed565b60028101805460ff60a01b198116600160a11b1790915560038201546104af916001600160a01b037f0000000000000000000000000000000000000000000000000000000000000000811692911690611978565b60028101546003820154604080516001600160a01b039093168352602083019190915284917fba157d6d2377f7f188e56a4fcc022f0c422e03c9f7fcb9045f455b1071433abf91015b60405180910390a2505050565b806003805f83815260016020526040902060020154600160a01b900460ff16600381111561053557610535611c20565b146105525760405162461bcd60e51b81526004016103ed90611f74565b5f838152600160209081526040808320338452600a810190925290912054806105bd5760405162461bcd60e51b815260206004820152601f60248201527f4e6f207469656e6573206465706f7369746f207061726120726574697261720060448201526064016103ed565b335f818152600a84016020526040812055610603907f00000000000000000000000000000000000000000000000000000000000000006001600160a01b03169083611978565b604051818152339086907f387d0e87494328c955a921844efb7a34dabb1d7d47d66ef1fe153dd1be9dc05e9060200160405180910390a35050505050565b61064961194e565b5f8281526001602052604090206002015482906001600160a01b031633146106835760405162461bcd60e51b81526004016103ed90611f45565b5f82116106d25760405162461bcd60e51b815260206004820152601a60248201527f456c206d6f6e746f20646562652073657220706f73697469766f00000000000060448201526064016103ed565b5f83815260016020526040812060060180548492906106f2908490611fb3565b9091555061072d90506001600160a01b037f0000000000000000000000000000000000000000000000000000000000000000163330856119dc565b827f6d9ca65a12af48aa8adb8bfcae732be3b8758b6f8323afa561b26a48c0bfb547836040516104f891815260200190565b610767611a15565b61076f611a41565b565b5f818152600160208190526040822060028101546003820154600483015460058401546006850154600786015486546060998a999098899889988998899889988998899889988897908801966001600160a01b038216969095909490939092909160ff600160a01b8204811692600160a81b8304821692600160b01b9004909116908b906107fe90611fcc565b80601f016020809104026020016040519081016040528092919081815260200182805461082a90611fcc565b80156108755780601f1061084c57610100808354040283529160200191610875565b820191905f5260205f20905b81548152906001019060200180831161085857829003601f168201915b50505050509a5089805461088890611fcc565b80601f01602080910402602001604051908101604052809291908181526020018280546108b490611fcc565b80156108ff5780601f106108d6576101008083540402835291602001916108ff565b820191905f5260205f20905b8154815290600101906020018083116108e257829003601f168201915b505050505099509b509b509b509b509b509b509b509b509b509b509b505091939597999b90929496989a50565b61093461194e565b5f83116109835760405162461bcd60e51b815260206004820152601f60248201527f4465626520686162657220616c206d656e6f73203120696e7175696c696e6f0060448201526064016103ed565b61098d8386612018565b156109f35760405162461bcd60e51b815260206004820152603060248201527f4c612072656e746120646562652073657220646976697369626c6520656e747260448201526f65206c6f7320696e7175696c696e6f7360801b60648201526084016103ed565b60018260ff1610158015610a0b5750601f8260ff1611155b610a505760405162461bcd60e51b815260206004820152601660248201527544696120646520696e6963696f20696e76616c69646f60501b60448201526064016103ed565b60018160ff1610158015610a685750601f8160ff1611155b610aaa5760405162461bcd60e51b81526020600482015260136024820152724469612064652066696e20696e76616c69646f60681b60448201526064016103ed565b8160ff168160ff161015610b005760405162461bcd60e51b815260206004820152601c60248201527f456c2072616e676f206465206469617320657320696e76616c69646f0000000060448201526064016103ed565b60028054905f610b0f8361202b565b9091555050600254335f90815260036020908152604080832080546001818101835591855283852001859055848452909152902080610b4f8b8d836120a2565b5060018101610b5f898b836120a2565b506002810180546003830189905560048084018990556005840188905560ff868116600160b01b0260ff60b01b19918916600160a81b029190911662ffffff60a01b19339081166001600160b81b03199095169490941717179092556040516370a0823160e01b8152918201525f906001600160a01b037f000000000000000000000000000000000000000000000000000000000000000016906370a0823190602401602060405180830381865afa158015610c1d573d5f5f3e3d5ffd5b505050506040513d601f19601f82011682018060405250810190610c41919061215c565b11610ca05760405162461bcd60e51b815260206004820152602960248201527f456c20617272656e6461646f72206e6563657369746120756e2054656e616e746044820152680814185cdcdc1bdc9d60ba1b60648201526084016103ed565b604051632f745c5960e01b81523360048201525f60248201819052907f00000000000000000000000000000000000000000000000000000000000000006001600160a01b031690632f745c5990604401602060405180830381865afa158015610d0b573d5f5f3e3d5ffd5b505050506040513d601f19601f82011682018060405250810190610d2f919061215c565b60405163d9ec55ab60e01b8152600481018290529091507f00000000000000000000000000000000000000000000000000000000000000006001600160a01b03169063d9ec55ab906024015f604051808303815f87803b158015610d91575f5ffd5b505af1158015610da3573d5f5f3e3d5ffd5b50506040518a81523392508591507f9815995bdb741d1e283b7e7fd822a34b01efd21fd2c59dc0d5ab07a587a617269060200160405180910390a3505050505050505050505050565b6003602052815f5260405f208181548110610e05575f80fd5b905f5260205f20015f91509150505481565b610e1f61194e565b5f8281526001602052604090206002015482906001600160a01b03163314610e595760405162461bcd60e51b81526004016103ed90611f45565b5f83815260016020526040902082610eb35760405162461bcd60e51b815260206004820152601a60248201527f456c206d6f6e746f20646562652073657220706f73697469766f00000000000060448201526064016103ed565b8281600701541015610f115760405162461bcd60e51b815260206004820152602160248201527f466f6e646f7320696e737566696369656e74657320656e206c6120626f7665646044820152606160f81b60648201526084016103ed565b82816007015f828254610f249190612173565b9250508190555082816006015f828254610f3e9190611fb3565b9091555050604051632e1a7d4d60e01b8152600481018490527f00000000000000000000000000000000000000000000000000000000000000006001600160a01b031690632e1a7d4d906024015f604051808303815f87803b158015610fa2575f5ffd5b505af1158015610fb4573d5f5f3e3d5ffd5b50505050837fe0c132f8430b3f3d012bf0d5658848354885c454f9ec80179d94023f90bd4ab884604051610fea91815260200190565b60405180910390a250505050565b611000611a15565b61076f5f611a95565b5f8181526001602052604090206002015481906001600160a01b031633146110435760405162461bcd60e51b81526004016103ed90611f45565b815f805f83815260016020526040902060020154600160a01b900460ff16600381111561107257611072611c20565b1461108f5760405162461bcd60e51b81526004016103ed90611f74565b5f84815260016020526040808220600201805460ff60a01b1916600360a01b1790555185917f03febafce5358e5ccb78f3e18dcc83d21c96a64775251b7d3537cecd8464333091a250505050565b6110e5611a15565b61076f611ae4565b6110f561194e565b5f8181526001602052604090206002015481906001600160a01b0316331461112f5760405162461bcd60e51b81526004016103ed90611f45565b5f82815260016020526040902060068101548061118e5760405162461bcd60e51b815260206004820152601c60248201527f4e6f2068617920666f6e646f732070617261206465706f73697461720000000060448201526064016103ed565b5f826006018190555080826007015f8282546111aa9190611fb3565b909155505060405163095ea7b360e01b81526001600160a01b037f000000000000000000000000000000000000000000000000000000000000000081166004830152602482018390527f0000000000000000000000000000000000000000000000000000000000000000169063095ea7b3906044016020604051808303815f875af115801561123b573d5f5f3e3d5ffd5b505050506040513d601f19601f8201168201806040525081019061125f9190612186565b5060405163b6b55f2560e01b8152600481018290527f00000000000000000000000000000000000000000000000000000000000000006001600160a01b03169063b6b55f25906024015f604051808303815f87803b1580156112bf575f5ffd5b505af11580156112d1573d5f5f3e3d5ffd5b50505050837f5a758876c7872723d93c750973c15e087dd6a587b86ede0bddd3327459a4a8e182604051610fea91815260200190565b5f8181526001602090815260409182902060080180548351818402810184019094528084526060939283018282801561136757602002820191905f5260205f20905b81546001600160a01b03168152600190910190602001808311611349575b50505050509050919050565b61137b61194e565b806001805f83815260016020526040902060020154600160a01b900460ff1660038111156113ab576113ab611c20565b146113c85760405162461bcd60e51b81526004016103ed90611f74565b5f838152600160209081526040808320338452600981019092529091205460ff166114355760405162461bcd60e51b815260206004820152601e60248201527f4e6f206572657320756e20696e7175696c696e6f2064656c20677275706f000060448201526064016103ed565b5f8160050154826003015461144a91906121a5565b335f908152600a84016020526040812054919250906114699083612173565b905081836006015f82825461147e9190611fb3565b909155506114b990506001600160a01b037f0000000000000000000000000000000000000000000000000000000000000000163330846119dc565b604051828152339087907fc29a1e4f4ab27c9953c3664751fc3ed78728bcfe7fcae8e3f2aa030f140494849060200160405180910390a3505050505050565b6001600160a01b0381165f9081526003602090815260409182902080548351818402810184019094528084526060939283018282801561136757602002820191905f5260205f20905b8154815260200190600101908083116115415750505050509050919050565b611568611a15565b6001600160a01b03811661159157604051631e4fbdf760e01b81525f60048201526024016103ed565b61159a81611a95565b50565b6115a561194e565b805f805f83815260016020526040902060020154600160a01b900460ff1660038111156115d4576115d4611c20565b146115f15760405162461bcd60e51b81526004016103ed90611f74565b5f8311801561160257506002548311155b6116475760405162461bcd60e51b81526020600482015260166024820152754c612070726f706965646164206e6f2065786973746560501b60448201526064016103ed565b5f838152600160209081526040808320338452600981019092529091205460ff16156116ac5760405162461bcd60e51b81526020600482015260146024820152735961206d6f7374726173746520696e746572657360601b60448201526064016103ed565b600481018054335f818152600a85016020908152604080832094909455600886018054600181810183559184528284200180546001600160a01b0319168517905583835260098701909152929020805460ff1916909217909155905461173e917f00000000000000000000000000000000000000000000000000000000000000006001600160a01b03169130906119dc565b336001600160a01b0316847f9bfc3b997c93fbb803bddbbc2732b0209c94d8b02d5367c6442dbc671c22d994836004015460405161177e91815260200190565b60405180910390a360058101546008820154036117d55760028101805460ff60a01b1916600160a01b17905560405184907f8440b1be3f2c3b3ddb5efbb25ddf9c0aab1b6ab432efc2ded34aff5aef837c43905f90a25b50505050565b60016020525f90815260409020805481906117f590611fcc565b80601f016020809104026020016040519081016040528092919081815260200182805461182190611fcc565b801561186c5780601f106118435761010080835404028352916020019161186c565b820191905f5260205f20905b81548152906001019060200180831161184f57829003601f168201915b50505050509080600101805461188190611fcc565b80601f01602080910402602001604051908101604052809291908181526020018280546118ad90611fcc565b80156118f85780601f106118cf576101008083540402835291602001916118f8565b820191905f5260205f20905b8154815290600101906020018083116118db57829003601f168201915b5050506002840154600385015460048601546005870154600688015460079098015496976001600160a01b0385169760ff600160a01b870481169850600160a81b870481169750600160b01b909604909516948b565b5f54600160a01b900460ff161561076f5760405163d93c066560e01b815260040160405180910390fd5b6040516001600160a01b038381166024830152604482018390526119d791859182169063a9059cbb906064015b604051602081830303815290604052915060e01b6020820180516001600160e01b038381831617835250505050611b26565b505050565b6040516001600160a01b0384811660248301528381166044830152606482018390526117d59186918216906323b872dd906084016119a5565b5f546001600160a01b0316331461076f5760405163118cdaa760e01b81523360048201526024016103ed565b611a49611b92565b5f805460ff60a01b191690557f5db9ee0a495bf2e6ff9c91a7834c1ba4fdd244a5e8aa4e537bd38aeae4b073aa335b6040516001600160a01b03909116815260200160405180910390a1565b5f80546001600160a01b038381166001600160a01b0319831681178455604051919092169283917f8be0079c531659141344cd1fd0a4f28419497f9722a3daafe3b4186f6b6457e09190a35050565b611aec61194e565b5f805460ff60a01b1916600160a01b1790557f62e78cea01bee320cd4e420270b5ea74000d11b0c9f74754ebdbfc544b05a258611a783390565b5f5f60205f8451602086015f885af180611b45576040513d5f823e3d81fd5b50505f513d91508115611b5c578060011415611b69565b6001600160a01b0384163b155b156117d557604051635274afe760e01b81526001600160a01b03851660048201526024016103ed565b5f54600160a01b900460ff1661076f57604051638dfc202b60e01b815260040160405180910390fd5b5f60208284031215611bcb575f5ffd5b5035919050565b5f5f60408385031215611be3575f5ffd5b50508035926020909101359150565b5f81518084528060208401602086015e5f602082860101526020601f19601f83011685010191505092915050565b634e487b7160e01b5f52602160045260245ffd5b60048110611c5057634e487b7160e01b5f52602160045260245ffd5b9052565b61016081525f611c6861016083018e611bf2565b8281036020840152611c7a818e611bf2565b91505060018060a01b038b1660408301528960608301528860808301528760a08301528660c08301528560e0830152611cb7610100830186611c34565b60ff841661012083015260ff83166101408301529c9b505050505050505050505050565b5f5f83601f840112611ceb575f5ffd5b50813567ffffffffffffffff811115611d02575f5ffd5b602083019150836020828501011115611d19575f5ffd5b9250929050565b803560ff81168114611d30575f5ffd5b919050565b5f5f5f5f5f5f5f5f5f60e08a8c031215611d4d575f5ffd5b893567ffffffffffffffff811115611d63575f5ffd5b611d6f8c828d01611cdb565b909a5098505060208a013567ffffffffffffffff811115611d8e575f5ffd5b611d9a8c828d01611cdb565b90985096505060408a0135945060608a0135935060808a01359250611dc160a08b01611d20565b9150611dcf60c08b01611d20565b90509295985092959850929598565b80356001600160a01b0381168114611d30575f5ffd5b5f5f60408385031215611e05575f5ffd5b611e0e83611dde565b946020939093013593505050565b602080825282518282018190525f918401906040840190835b81811015611e5c5783516001600160a01b0316835260209384019390920191600101611e35565b509095945050505050565b5f60208284031215611e77575f5ffd5b611e8082611dde565b9392505050565b602080825282518282018190525f918401906040840190835b81811015611e5c578351835260209384019390920191600101611ea0565b61016081525f611ed261016083018e611bf2565b8281036020840152611ee4818e611bf2565b6001600160a01b038d1660408501529150611f049050606083018b611c34565b60ff98891660808301529690971660a088015260c087019490945260e086019290925261010085015261012084015261014090920191909152949350505050565b60208082526015908201527427379032b932b99032b61030b93932b73230b237b960591b604082015260600190565b60208082526011908201527045737461646f20696e636f72726563746f60781b604082015260600190565b634e487b7160e01b5f52601160045260245ffd5b80820180821115611fc657611fc6611f9f565b92915050565b600181811c90821680611fe057607f821691505b602082108103611ffe57634e487b7160e01b5f52602260045260245ffd5b50919050565b634e487b7160e01b5f52601260045260245ffd5b5f8261202657612026612004565b500690565b5f6001820161203c5761203c611f9f565b5060010190565b634e487b7160e01b5f52604160045260245ffd5b601f8211156119d757805f5260205f20601f840160051c8101602085101561207c5750805b601f840160051c820191505b8181101561209b575f8155600101612088565b5050505050565b67ffffffffffffffff8311156120ba576120ba612043565b6120ce836120c88354611fcc565b83612057565b5f601f8411600181146120ff575f85156120e85750838201355b5f19600387901b1c1916600186901b17835561209b565b5f83815260208120601f198716915b8281101561212e578685013582556020948501946001909201910161210e565b508682101561214a575f1960f88860031b161c19848701351681555b505060018560011b0183555050505050565b5f6020828403121561216c575f5ffd5b5051919050565b81810381811115611fc657611fc6611f9f565b5f60208284031215612196575f5ffd5b81518015158114611e80575f5ffd5b5f826121b3576121b3612004565b50049056fea264697066735822122088570c6d2b61c5d16d973ff9e89995c0b2bbc5b97bb15ac56f320d506b6408fc64736f6c634300081e0033","linkReferences":{}},"methodIdentifiers":{"addLandlordFunds(uint256,uint256)":"0a1838d7","cancelPool(uint256)":"827c7889","claimLease(uint256)":"07bd93af","createPropertyPool(string,string,uint256,uint256,uint256,uint8,uint8)":"455e1fdb","depositToVault(uint256)":"b0462296","expressInterest(uint256)":"f796c724","fundRent(uint256)":"de16f208","getInterestedTenants(uint256)":"d38319dc","getPropertiesByLandlord(address)":"f015c255","getPropertyInfo(uint256)":"40f0a055","interestGenerator()":"cc7106fc","landlordProperties(address,uint256)":"6007bd6e","mxnbToken()":"4043cd95","owner()":"8da5cb5b","pause()":"8456cb59","paused()":"5c975abb","properties(uint256)":"f7b10808","propertyCounter()":"d090e47e","renounceOwnership()":"715018a6","tenantPassport()":"17805407","transferOwnership(address)":"f2fde38b","unpause()":"3f4ba83a","withdrawFromVault(uint256,uint256)":"70974818","withdrawInterest(uint256)":"08669aab"},"id":41}