{"abi":[{"type":"constructor","inputs":[{"name":"_mxnbtTokenAddress","type":"address","internalType":"address"}],"stateMutability":"nonpayable"},{"type":"function","name":"cancelPool","inputs":[{"name":"_propertyId","type":"uint256","internalType":"uint256"}],"outputs":[],"stateMutability":"nonpayable"},{"type":"function","name":"claimLease","inputs":[{"name":"_propertyId","type":"uint256","internalType":"uint256"}],"outputs":[],"stateMutability":"nonpayable"},{"type":"function","name":"createPropertyPool","inputs":[{"name":"_totalRent","type":"uint256","internalType":"uint256"},{"name":"_seriousnessDeposit","type":"uint256","internalType":"uint256"},{"name":"_tenantCount","type":"uint256","internalType":"uint256"}],"outputs":[],"stateMutability":"nonpayable"},{"type":"function","name":"expressInterest","inputs":[{"name":"_propertyId","type":"uint256","internalType":"uint256"}],"outputs":[],"stateMutability":"nonpayable"},{"type":"function","name":"fundRent","inputs":[{"name":"_propertyId","type":"uint256","internalType":"uint256"}],"outputs":[],"stateMutability":"nonpayable"},{"type":"function","name":"mxnbtToken","inputs":[],"outputs":[{"name":"","type":"address","internalType":"contract IERC20"}],"stateMutability":"view"},{"type":"function","name":"properties","inputs":[{"name":"","type":"uint256","internalType":"uint256"}],"outputs":[{"name":"landlord","type":"address","internalType":"address"},{"name":"totalRentAmount","type":"uint256","internalType":"uint256"},{"name":"seriousnessDeposit","type":"uint256","internalType":"uint256"},{"name":"requiredTenantCount","type":"uint256","internalType":"uint256"},{"name":"amountPooledForRent","type":"uint256","internalType":"uint256"},{"name":"state","type":"uint8","internalType":"enum PropertyInterestPool.State"}],"stateMutability":"view"},{"type":"function","name":"propertyCounter","inputs":[],"outputs":[{"name":"","type":"uint256","internalType":"uint256"}],"stateMutability":"view"},{"type":"function","name":"withdrawInterest","inputs":[{"name":"_propertyId","type":"uint256","internalType":"uint256"}],"outputs":[],"stateMutability":"nonpayable"},{"type":"event","name":"GroupFinalized","inputs":[{"name":"propertyId","type":"uint256","indexed":true,"internalType":"uint256"}],"anonymous":false},{"type":"event","name":"InterestExpressed","inputs":[{"name":"propertyId","type":"uint256","indexed":true,"internalType":"uint256"},{"name":"tenant","type":"address","indexed":true,"internalType":"address"},{"name":"depositAmount","type":"uint256","indexed":false,"internalType":"uint256"}],"anonymous":false},{"type":"event","name":"InterestWithdrawn","inputs":[{"name":"propertyId","type":"uint256","indexed":true,"internalType":"uint256"},{"name":"tenant","type":"address","indexed":true,"internalType":"address"},{"name":"depositAmount","type":"uint256","indexed":false,"internalType":"uint256"}],"anonymous":false},{"type":"event","name":"LeaseClaimed","inputs":[{"name":"propertyId","type":"uint256","indexed":true,"internalType":"uint256"},{"name":"landlord","type":"address","indexed":false,"internalType":"address"},{"name":"rentAmount","type":"uint256","indexed":false,"internalType":"uint256"}],"anonymous":false},{"type":"event","name":"PoolCanceled","inputs":[{"name":"propertyId","type":"uint256","indexed":true,"internalType":"uint256"}],"anonymous":false},{"type":"event","name":"PropertyCreated","inputs":[{"name":"propertyId","type":"uint256","indexed":true,"internalType":"uint256"},{"name":"landlord","type":"address","indexed":true,"internalType":"address"},{"name":"totalRent","type":"uint256","indexed":false,"internalType":"uint256"}],"anonymous":false},{"type":"event","name":"RentFunded","inputs":[{"name":"propertyId","type":"uint256","indexed":true,"internalType":"uint256"},{"name":"tenant","type":"address","indexed":true,"internalType":"address"},{"name":"amount","type":"uint256","indexed":false,"internalType":"uint256"}],"anonymous":false},{"type":"error","name":"SafeERC20FailedOperation","inputs":[{"name":"token","type":"address","internalType":"address"}]}],"bytecode":{"object":"0x6080604052348015600e575f5ffd5b50604051610e00380380610e00833981016040819052602b91604e565b5f80546001600160a01b0319166001600160a01b03929092169190911790556079565b5f60208284031215605d575f5ffd5b81516001600160a01b03811681146072575f5ffd5b9392505050565b610d7a806100865f395ff3fe608060405234801561000f575f5ffd5b5060043610610090575f3560e01c8063c6810d7711610063578063c6810d77146100fe578063d090e47e14610111578063de16f20814610128578063f796c7241461013b578063f7b108081461014e575f5ffd5b806307bd93af1461009457806308669aab146100a9578063777becd2146100bc578063827c7889146100eb575b5f5ffd5b6100a76100a2366004610bc0565b6101b2565b005b6100a76100b7366004610bc0565b6102fe565b5f546100ce906001600160a01b031681565b6040516001600160a01b0390911681526020015b60405180910390f35b6100a76100f9366004610bc0565b610411565b6100a761010c366004610bd7565b610564565b61011a60025481565b6040519081526020016100e2565b6100a7610136366004610bc0565b6106b3565b6100a7610149366004610bc0565b610802565b6101a061015c366004610bc0565b600160208190525f91825260409091208054918101546002820154600383015460048401546007909401546001600160a01b03909516949293919290919060ff1686565b6040516100e296959493929190610c14565b5f8181526001602052604090205481906001600160a01b0316331461021e5760405162461bcd60e51b815260206004820152601b60248201527f4f6e6c79206c616e646c6f72642063616e2063616c6c2074686973000000000060448201526064015b60405180910390fd5b5f8281526001602081905260409091209081015460048201541461027c5760405162461bcd60e51b815260206004820152601560248201527414995b9d081b9bdd08199d5b1b1e48199d5b991959605a1b6044820152606401610215565b60078101805460ff19166002179055805460018201545f546102ac926001600160a01b03918216929116906109f5565b80546001820154604080516001600160a01b039093168352602083019190915284917fba157d6d2377f7f188e56a4fcc022f0c422e03c9f7fcb9045f455b1071433abf910160405180910390a2505050565b806003805f8381526001602052604090206007015460ff16600381111561032757610327610c00565b146103445760405162461bcd60e51b815260040161021590610c6d565b5f8381526001602090815260408083203384526006810190925290912054806103a85760405162461bcd60e51b81526020600482015260166024820152754e6f206465706f73697420746f20776974686472617760501b6044820152606401610215565b335f8181526006840160205260408120819055546103d2916001600160a01b0390911690836109f5565b604051818152339086907f387d0e87494328c955a921844efb7a34dabb1d7d47d66ef1fe153dd1be9dc05e906020015b60405180910390a35050505050565b5f8181526001602052604090205481906001600160a01b031633146104785760405162461bcd60e51b815260206004820152601b60248201527f4f6e6c79206c616e646c6f72642063616e2063616c6c207468697300000000006044820152606401610215565b5f8281526001602052604081206007015460ff169081600381111561049f5761049f610c00565b14806104bc575060018160038111156104ba576104ba610c00565b145b61051d5760405162461bcd60e51b815260206004820152602c60248201527f506f6f6c2063616e206f6e6c792062652063616e63656c6564206966204f504560448201526b4e206f722046554e44494e4760a01b6064820152608401610215565b5f83815260016020526040808220600701805460ff191660031790555184917f03febafce5358e5ccb78f3e18dcc83d21c96a64775251b7d3537cecd8464333091a2505050565b5f81116105bf5760405162461bcd60e51b815260206004820152602360248201527f54656e616e7420636f756e74206d75737420626520677265617465722074686160448201526206e20360ec1b6064820152608401610215565b6105c98184610cb8565b156106255760405162461bcd60e51b815260206004820152602660248201527f52656e74206d75737420626520646976697369626c652062792074656e616e746044820152650818dbdd5b9d60d21b6064820152608401610215565b60028054905f61063483610cdf565b9091555050600280545f8181526001602081815260409283902080546001600160a01b0319163390811782559281018990559485018790556003850186905560078501805460ff191690559151878152929392909184917f9815995bdb741d1e283b7e7fd822a34b01efd21fd2c59dc0d5ab07a587a617269101610402565b806001805f8381526001602052604090206007015460ff1660038111156106dc576106dc610c00565b146106f95760405162461bcd60e51b815260040161021590610c6d565b6107038333610a59565b61074f5760405162461bcd60e51b815260206004820152601860248201527f4e6f7420616e20696e74657265737465642074656e616e7400000000000000006044820152606401610215565b5f838152600160208190526040822060038101549181015490929161077391610cf7565b335f908152600684016020526040812054919250906107929083610d0a565b905081836004015f8282546107a79190610d1d565b90915550505f546107c3906001600160a01b0316333084610b1b565b604051828152339087907fc29a1e4f4ab27c9953c3664751fc3ed78728bcfe7fcae8e3f2aa030f140494849060200160405180910390a3505050505050565b805f805f8381526001602052604090206007015460ff16600381111561082a5761082a610c00565b146108475760405162461bcd60e51b815260040161021590610c6d565b826002541015801561085857505f83115b6108a45760405162461bcd60e51b815260206004820152601760248201527f50726f706572747920646f6573206e6f742065786973740000000000000000006044820152606401610215565b6108ae8333610a59565b156108fb5760405162461bcd60e51b815260206004820152601a60248201527f416c72656164792065787072657373656420696e7465726573740000000000006044820152606401610215565b5f83815260016020818152604080842060028101805433808852600684018652938720556005820180549586018155865292852090930180546001600160a01b0319168217905590549254919261095e926001600160a01b031691903090610b1b565b336001600160a01b0316847f9bfc3b997c93fbb803bddbbc2732b0209c94d8b02d5367c6442dbc671c22d994836002015460405161099e91815260200190565b60405180910390a360038101546005820154036109ef5760078101805460ff1916600117905560405184907f8440b1be3f2c3b3ddb5efbb25ddf9c0aab1b6ab432efc2ded34aff5aef837c43905f90a25b50505050565b6040516001600160a01b03838116602483015260448201839052610a5491859182169063a9059cbb906064015b604051602081830303815290604052915060e01b6020820180516001600160e01b038381831617835250505050610b54565b505050565b5f82815260016020908152604080832060050180548251818502810185019093528083528493830182828015610ab657602002820191905f5260205f20905b81546001600160a01b03168152600190910190602001808311610a98575b509394505f93505050505b8151811015610b0f57836001600160a01b0316828281518110610ae657610ae6610d30565b60200260200101516001600160a01b031603610b0757600192505050610b15565b600101610ac1565b505f9150505b92915050565b6040516001600160a01b0384811660248301528381166044830152606482018390526109ef9186918216906323b872dd90608401610a22565b5f5f60205f8451602086015f885af180610b73576040513d5f823e3d81fd5b50505f513d91508115610b8a578060011415610b97565b6001600160a01b0384163b155b156109ef57604051635274afe760e01b81526001600160a01b0385166004820152602401610215565b5f60208284031215610bd0575f5ffd5b5035919050565b5f5f5f60608486031215610be9575f5ffd5b505081359360208301359350604090920135919050565b634e487b7160e01b5f52602160045260245ffd5b6001600160a01b03871681526020810186905260408101859052606081018490526080810183905260c0810160048310610c5c57634e487b7160e01b5f52602160045260245ffd5b8260a0830152979650505050505050565b6020808252601d908201527f50726f7065727479206e6f7420696e20636f7272656374207374617465000000604082015260600190565b634e487b7160e01b5f52601260045260245ffd5b5f82610cc657610cc6610ca4565b500690565b634e487b7160e01b5f52601160045260245ffd5b5f60018201610cf057610cf0610ccb565b5060010190565b5f82610d0557610d05610ca4565b500490565b81810381811115610b1557610b15610ccb565b80820180821115610b1557610b15610ccb565b634e487b7160e01b5f52603260045260245ffdfea26469706673582212203af6ca73f525f97c23d361a4e112ff0a5d57e8fa692208ce5272fa4de2e1764564736f6c634300081e0033","linkReferences":{}},"methodIdentifiers":{"cancelPool(uint256)":"827c7889","claimLease(uint256)":"07bd93af","createPropertyPool(uint256,uint256,uint256)":"c6810d77","expressInterest(uint256)":"f796c724","fundRent(uint256)":"de16f208","mxnbtToken()":"777becd2","properties(uint256)":"f7b10808","propertyCounter()":"d090e47e","withdrawInterest(uint256)":"08669aab"},"id":38}