{"abi":[{"type":"constructor","inputs":[{"name":"_mxnbTokenAddress","type":"address","internalType":"address"},{"name":"_tenantPassportAddress","type":"address","internalType":"address"},{"name":"_interestGeneratorAddress","type":"address","internalType":"address"}],"stateMutability":"nonpayable"},{"type":"function","name":"addLandlordFunds","inputs":[{"name":"_propertyId","type":"uint256","internalType":"uint256"},{"name":"_amount","type":"uint256","internalType":"uint256"}],"outputs":[],"stateMutability":"nonpayable"},{"type":"function","name":"cancelPool","inputs":[{"name":"_propertyId","type":"uint256","internalType":"uint256"}],"outputs":[],"stateMutability":"nonpayable"},{"type":"function","name":"claimLease","inputs":[{"name":"_propertyId","type":"uint256","internalType":"uint256"}],"outputs":[],"stateMutability":"nonpayable"},{"type":"function","name":"createPropertyPool","inputs":[{"name":"_name","type":"string","internalType":"string"},{"name":"_description","type":"string","internalType":"string"},{"name":"_totalRent","type":"uint256","internalType":"uint256"},{"name":"_seriousnessDeposit","type":"uint256","internalType":"uint256"},{"name":"_tenantCount","type":"uint256","internalType":"uint256"},{"name":"_paymentDayStart","type":"uint256","internalType":"uint256"},{"name":"_paymentDayEnd","type":"uint256","internalType":"uint256"}],"outputs":[],"stateMutability":"nonpayable"},{"type":"function","name":"depositToVault","inputs":[{"name":"_propertyId","type":"uint256","internalType":"uint256"}],"outputs":[],"stateMutability":"nonpayable"},{"type":"function","name":"expressInterest","inputs":[{"name":"_propertyId","type":"uint256","internalType":"uint256"}],"outputs":[],"stateMutability":"nonpayable"},{"type":"function","name":"fundRent","inputs":[{"name":"_propertyId","type":"uint256","internalType":"uint256"}],"outputs":[],"stateMutability":"nonpayable"},{"type":"function","name":"getPropertiesByLandlord","inputs":[{"name":"landlord","type":"address","internalType":"address"}],"outputs":[{"name":"","type":"uint256[]","internalType":"uint256[]"}],"stateMutability":"view"},{"type":"function","name":"getPropertyInfo","inputs":[{"name":"propertyId","type":"uint256","internalType":"uint256"}],"outputs":[{"name":"","type":"string","internalType":"string"},{"name":"","type":"string","internalType":"string"},{"name":"","type":"address","internalType":"address"},{"name":"","type":"uint256","internalType":"uint256"},{"name":"","type":"uint256","internalType":"uint256"},{"name":"","type":"uint256","internalType":"uint256"},{"name":"","type":"uint256","internalType":"uint256"},{"name":"","type":"uint256","internalType":"uint256"},{"name":"","type":"address[]","internalType":"address[]"},{"name":"","type":"uint8","internalType":"enum PropertyInterestPool.State"},{"name":"","type":"uint256","internalType":"uint256"},{"name":"","type":"uint256","internalType":"uint256"}],"stateMutability":"view"},{"type":"function","name":"interestGenerator","inputs":[],"outputs":[{"name":"","type":"address","internalType":"contract IMXNBInterestGenerator"}],"stateMutability":"view"},{"type":"function","name":"landlordProperties","inputs":[{"name":"","type":"address","internalType":"address"},{"name":"","type":"uint256","internalType":"uint256"}],"outputs":[{"name":"","type":"uint256","internalType":"uint256"}],"stateMutability":"view"},{"type":"function","name":"landlordToPropertyCount","inputs":[{"name":"","type":"address","internalType":"address"}],"outputs":[{"name":"","type":"uint256","internalType":"uint256"}],"stateMutability":"view"},{"type":"function","name":"mxnbToken","inputs":[],"outputs":[{"name":"","type":"address","internalType":"contract IERC20"}],"stateMutability":"view"},{"type":"function","name":"properties","inputs":[{"name":"","type":"uint256","internalType":"uint256"}],"outputs":[{"name":"name","type":"string","internalType":"string"},{"name":"description","type":"string","internalType":"string"},{"name":"landlord","type":"address","internalType":"address"},{"name":"totalRentAmount","type":"uint256","internalType":"uint256"},{"name":"seriousnessDeposit","type":"uint256","internalType":"uint256"},{"name":"requiredTenantCount","type":"uint256","internalType":"uint256"},{"name":"amountPooledForRent","type":"uint256","internalType":"uint256"},{"name":"amountInVault","type":"uint256","internalType":"uint256"},{"name":"state","type":"uint8","internalType":"enum PropertyInterestPool.State"},{"name":"paymentDayStart","type":"uint256","internalType":"uint256"},{"name":"paymentDayEnd","type":"uint256","internalType":"uint256"}],"stateMutability":"view"},{"type":"function","name":"propertyCounter","inputs":[],"outputs":[{"name":"","type":"uint256","internalType":"uint256"}],"stateMutability":"view"},{"type":"function","name":"tenantPassport","inputs":[],"outputs":[{"name":"","type":"address","internalType":"contract ITenantPassport"}],"stateMutability":"view"},{"type":"function","name":"withdrawFromVault","inputs":[{"name":"_propertyId","type":"uint256","internalType":"uint256"},{"name":"_amount","type":"uint256","internalType":"uint256"}],"outputs":[],"stateMutability":"nonpayable"},{"type":"function","name":"withdrawInterest","inputs":[{"name":"_propertyId","type":"uint256","internalType":"uint256"}],"outputs":[],"stateMutability":"nonpayable"},{"type":"event","name":"FundsDepositedToVault","inputs":[{"name":"propertyId","type":"uint256","indexed":true,"internalType":"uint256"},{"name":"amount","type":"uint256","indexed":false,"internalType":"uint256"}],"anonymous":false},{"type":"event","name":"FundsWithdrawnFromVault","inputs":[{"name":"propertyId","type":"uint256","indexed":true,"internalType":"uint256"},{"name":"amount","type":"uint256","indexed":false,"internalType":"uint256"}],"anonymous":false},{"type":"event","name":"GroupFinalized","inputs":[{"name":"propertyId","type":"uint256","indexed":true,"internalType":"uint256"}],"anonymous":false},{"type":"event","name":"InterestExpressed","inputs":[{"name":"propertyId","type":"uint256","indexed":true,"internalType":"uint256"},{"name":"tenant","type":"address","indexed":true,"internalType":"address"},{"name":"depositAmount","type":"uint256","indexed":false,"internalType":"uint256"}],"anonymous":false},{"type":"event","name":"InterestWithdrawn","inputs":[{"name":"propertyId","type":"uint256","indexed":true,"internalType":"uint256"},{"name":"tenant","type":"address","indexed":true,"internalType":"address"},{"name":"depositAmount","type":"uint256","indexed":false,"internalType":"uint256"}],"anonymous":false},{"type":"event","name":"LandlordFundsAdded","inputs":[{"name":"propertyId","type":"uint256","indexed":true,"internalType":"uint256"},{"name":"amount","type":"uint256","indexed":false,"internalType":"uint256"}],"anonymous":false},{"type":"event","name":"LeaseClaimed","inputs":[{"name":"propertyId","type":"uint256","indexed":true,"internalType":"uint256"},{"name":"landlord","type":"address","indexed":false,"internalType":"address"},{"name":"rentAmount","type":"uint256","indexed":false,"internalType":"uint256"}],"anonymous":false},{"type":"event","name":"PoolCanceled","inputs":[{"name":"propertyId","type":"uint256","indexed":true,"internalType":"uint256"}],"anonymous":false},{"type":"event","name":"PropertyCreated","inputs":[{"name":"propertyId","type":"uint256","indexed":true,"internalType":"uint256"},{"name":"landlord","type":"address","indexed":true,"internalType":"address"},{"name":"totalRent","type":"uint256","indexed":false,"internalType":"uint256"}],"anonymous":false},{"type":"event","name":"RentFunded","inputs":[{"name":"propertyId","type":"uint256","indexed":true,"internalType":"uint256"},{"name":"tenant","type":"address","indexed":true,"internalType":"address"},{"name":"amount","type":"uint256","indexed":false,"internalType":"uint256"}],"anonymous":false},{"type":"error","name":"SafeERC20FailedOperation","inputs":[{"name":"token","type":"address","internalType":"address"}]}],"bytecode":{"object":"0x6080604052348015600e575f5ffd5b50604051611fbb380380611fbb833981016040819052602b916085565b5f80546001600160a01b039485166001600160a01b03199182161790915560018054938516938216939093179092556002805491909316911617905560be565b80516001600160a01b03811681146080575f5ffd5b919050565b5f5f5f606084860312156096575f5ffd5b609d84606b565b925060a960208501606b565b915060b560408501606b565b90509250925092565b611ef0806100cb5f395ff3fe608060405234801561000f575f5ffd5b5060043610610111575f3560e01c8063827c78891161009e578063daf520e51161006e578063daf520e514610246578063de16f20814610265578063f015c25514610278578063f796c72414610298578063f7b10808146102ab575f5ffd5b8063827c788914610204578063b046229614610217578063cc7106fc1461022a578063d090e47e1461023d575f5ffd5b80634043cd95116100e45780634043cd951461018057806340f0a055146101925780634c6557fd146101bd5780636007bd6e146101d057806370974818146101f1575f5ffd5b806307bd93af1461011557806308669aab1461012a5780630a1838d71461013d5780631780540714610150575b5f5ffd5b610128610123366004611881565b6102d5565b005b610128610138366004611881565b610400565b61012861014b366004611898565b610514565b600154610163906001600160a01b031681565b6040516001600160a01b0390911681526020015b60405180910390f35b5f54610163906001600160a01b031681565b6101a56101a0366004611881565b610605565b6040516101779c9b9a9998979695949392919061191a565b6101286101cb366004611a87565b610813565b6101e36101de366004611b30565b610ccc565b604051908152602001610177565b6101286101ff366004611898565b610cf7565b610128610212366004611881565b610eb2565b610128610225366004611881565b610fdb565b600254610163906001600160a01b031681565b6101e360045481565b6101e3610254366004611b58565b60056020525f908152604090205481565b610128610273366004611881565b611196565b61028b610286366004611b58565b6112e7565b6040516101779190611b78565b6101286102a6366004611881565b611350565b6102be6102b9366004611881565b611547565b6040516101779b9a99989796959493929190611bba565b5f8181526003602052604090206002015481906001600160a01b031633146103185760405162461bcd60e51b815260040161030f90611c38565b60405180910390fd5b5f828152600360208190526040909120908101546006820154146103765760405162461bcd60e51b815260206004820152601560248201527414995b9d081b9bdd08199d5b1b1e48199d5b991959605a1b604482015260640161030f565b600a8101805460ff1916600290811790915581015460038201545f546103aa926001600160a01b03918216929116906116b6565b60028101546003820154604080516001600160a01b039093168352602083019190915284917fba157d6d2377f7f188e56a4fcc022f0c422e03c9f7fcb9045f455b1071433abf91015b60405180910390a2505050565b806003805f838152600360208190526040909120600a015460ff169081111561042b5761042b6118e6565b146104485760405162461bcd60e51b815260040161030f90611c6f565b5f8381526003602090815260408083203384526009810190925290912054806104ac5760405162461bcd60e51b81526020600482015260166024820152754e6f206465706f73697420746f20776974686472617760501b604482015260640161030f565b335f8181526009840160205260408120819055546104d6916001600160a01b0390911690836116b6565b604051818152339086907f387d0e87494328c955a921844efb7a34dabb1d7d47d66ef1fe153dd1be9dc05e9060200160405180910390a35050505050565b5f8281526003602052604090206002015482906001600160a01b0316331461054e5760405162461bcd60e51b815260040161030f90611c38565b5f82116105975760405162461bcd60e51b8152602060048201526017602482015276416d6f756e74206d75737420626520706f73697469766560481b604482015260640161030f565b5f83815260036020526040812060060180548492906105b7908490611cba565b90915550505f546105d3906001600160a01b031633308561171a565b827f6d9ca65a12af48aa8adb8bfcae732be3b8758b6f8323afa561b26a48c0bfb547836040516103f391815260200190565b6060805f5f5f5f5f5f60605f5f5f5f60035f8f81526020019081526020015f209050805f0181600101826002015f9054906101000a90046001600160a01b0316836003015484600401548560050154866006015487600701548860080189600a015f9054906101000a900460ff168a600b01548b600c01548b805461068990611ccd565b80601f01602080910402602001604051908101604052809291908181526020018280546106b590611ccd565b80156107005780601f106106d757610100808354040283529160200191610700565b820191905f5260205f20905b8154815290600101906020018083116106e357829003601f168201915b50505050509b508a805461071390611ccd565b80601f016020809104026020016040519081016040528092919081815260200182805461073f90611ccd565b801561078a5780601f106107615761010080835404028352916020019161078a565b820191905f5260205f20905b81548152906001019060200180831161076d57829003601f168201915b50505050509a50838054806020026020016040519081016040528092919081815260200182805480156107e457602002820191905f5260205f20905b81546001600160a01b031681526001909101906020018083116107c6575b505050505093509c509c509c509c509c509c509c509c509c509c509c509c505091939597999b5091939597999b565b5f831161086e5760405162461bcd60e51b815260206004820152602360248201527f54656e616e7420636f756e74206d75737420626520677265617465722074686160448201526206e20360ec1b606482015260840161030f565b6108788386611d19565b156108d45760405162461bcd60e51b815260206004820152602660248201527f52656e74206d75737420626520646976697369626c652062792074656e616e746044820152650818dbdd5b9d60d21b606482015260840161030f565b600182101580156108e65750601f8211155b6109455760405162461bcd60e51b815260206004820152602a60248201527f5061796d656e7420737461727420646179206d757374206265206265747765656044820152696e203120616e6420333160b01b606482015260840161030f565b600181101580156109575750601f8111155b6109b45760405162461bcd60e51b815260206004820152602860248201527f5061796d656e7420656e6420646179206d757374206265206265747765656e206044820152673120616e6420333160c01b606482015260840161030f565b81811015610a2a5760405162461bcd60e51b815260206004820152603a60248201527f5061796d656e7420656e6420646179206d75737420626520677265617465722060448201527f7468616e206f7220657175616c20746f20737461727420646179000000000000606482015260840161030f565b60048054905f610a3983611d2c565b9091555050600454335f908152600560205260408120805491610a5b83611d2c565b9091555050335f9081526006602090815260408083208054600181018255908452828420018490558383526003909152902080610a988a82611d8f565b5060018101610aa78982611d8f565b50600281018054336001600160a01b0319909116811790915560038201889055600480830188905560058301879055600a8301805460ff19169055600b8301869055600c83018590556001546040516370a0823160e01b8152918201929092525f916001600160a01b0316906370a0823190602401602060405180830381865afa158015610b37573d5f5f3e3d5ffd5b505050506040513d601f19601f82011682018060405250810190610b5b9190611e4a565b90505f8111610bbd5760405162461bcd60e51b815260206004820152602860248201527f4c616e646c6f7264206d757374206861766520612054656e616e7420506173736044820152671c1bdc9d0813919560c21b606482015260840161030f565b600154604051632f745c5960e01b81523360048201525f60248201819052916001600160a01b031690632f745c5990604401602060405180830381865afa158015610c0a573d5f5f3e3d5ffd5b505050506040513d601f19601f82011682018060405250810190610c2e9190611e4a565b60015460405163d9ec55ab60e01b8152600481018390529192506001600160a01b03169063d9ec55ab906024015f604051808303815f87803b158015610c72575f5ffd5b505af1158015610c84573d5f5f3e3d5ffd5b50506040518b81523392508691507f9815995bdb741d1e283b7e7fd822a34b01efd21fd2c59dc0d5ab07a587a617269060200160405180910390a35050505050505050505050565b6006602052815f5260405f208181548110610ce5575f80fd5b905f5260205f20015f91509150505481565b5f8281526003602052604090206002015482906001600160a01b03163314610d315760405162461bcd60e51b815260040161030f90611c38565b5f83815260036020526040902082610d855760405162461bcd60e51b8152602060048201526017602482015276416d6f756e74206d75737420626520706f73697469766560481b604482015260640161030f565b8281600701541015610de75760405162461bcd60e51b815260206004820152602560248201527f576974686472617720616d6f756e742065786365656473207661756c742062616044820152646c616e636560d81b606482015260840161030f565b82816007015f828254610dfa9190611e61565b9250508190555082816006015f828254610e149190611cba565b9091555050600254604051632e1a7d4d60e01b8152600481018590526001600160a01b0390911690632e1a7d4d906024015f604051808303815f87803b158015610e5c575f5ffd5b505af1158015610e6e573d5f5f3e3d5ffd5b50505050837fe0c132f8430b3f3d012bf0d5658848354885c454f9ec80179d94023f90bd4ab884604051610ea491815260200190565b60405180910390a250505050565b5f8181526003602052604090206002015481906001600160a01b03163314610eec5760405162461bcd60e51b815260040161030f90611c38565b5f828152600360205260408120600a015460ff1690816003811115610f1357610f136118e6565b1480610f3057506001816003811115610f2e57610f2e6118e6565b145b610f915760405162461bcd60e51b815260206004820152602c60248201527f506f6f6c2063616e206f6e6c792062652063616e63656c6564206966204f504560448201526b4e206f722046554e44494e4760a01b606482015260840161030f565b5f838152600360208190526040808320600a01805460ff19169092179091555184917f03febafce5358e5ccb78f3e18dcc83d21c96a64775251b7d3537cecd8464333091a2505050565b5f8181526003602052604090206002015481906001600160a01b031633146110155760405162461bcd60e51b815260040161030f90611c38565b5f8281526003602052604090206006810154806110745760405162461bcd60e51b815260206004820152601b60248201527f4e6f2066756e647320696e20706f6f6c20746f206465706f7369740000000000604482015260640161030f565b5f826006018190555080826007015f8282546110909190611cba565b90915550505f5460025460405163095ea7b360e01b81526001600160a01b0391821660048201526024810184905291169063095ea7b3906044016020604051808303815f875af11580156110e6573d5f5f3e3d5ffd5b505050506040513d601f19601f8201168201806040525081019061110a9190611e74565b5060025460405163b6b55f2560e01b8152600481018390526001600160a01b039091169063b6b55f25906024015f604051808303815f87803b15801561114e575f5ffd5b505af1158015611160573d5f5f3e3d5ffd5b50505050837f5a758876c7872723d93c750973c15e087dd6a587b86ede0bddd3327459a4a8e182604051610ea491815260200190565b806001805f838152600360208190526040909120600a015460ff16908111156111c1576111c16118e6565b146111de5760405162461bcd60e51b815260040161030f90611c6f565b6111e88333611753565b6112345760405162461bcd60e51b815260206004820152601860248201527f4e6f7420616e20696e74657265737465642074656e616e740000000000000000604482015260640161030f565b5f838152600360208190526040822060058101549181015490929161125891611e93565b335f908152600984016020526040812054919250906112779083611e61565b905081836006015f82825461128c9190611cba565b90915550505f546112a8906001600160a01b031633308461171a565b604051828152339087907fc29a1e4f4ab27c9953c3664751fc3ed78728bcfe7fcae8e3f2aa030f140494849060200160405180910390a3505050505050565b6001600160a01b0381165f9081526006602090815260409182902080548351818402810184019094528084526060939283018282801561134457602002820191905f5260205f20905b815481526020019060010190808311611330575b50505050509050919050565b805f805f838152600360208190526040909120600a015460ff169081111561137a5761137a6118e6565b146113975760405162461bcd60e51b815260040161030f90611c6f565b82600454101580156113a857505f83115b6113f45760405162461bcd60e51b815260206004820152601760248201527f50726f706572747920646f6573206e6f74206578697374000000000000000000604482015260640161030f565b6113fe8333611753565b1561144b5760405162461bcd60e51b815260206004820152601a60248201527f416c72656164792065787072657373656420696e746572657374000000000000604482015260640161030f565b5f838152600360209081526040808320600481018054338087526009840186529386205560088201805460018101825590865293852090930180546001600160a01b031916831790559154925491926114b0926001600160a01b03169190309061171a565b336001600160a01b0316847f9bfc3b997c93fbb803bddbbc2732b0209c94d8b02d5367c6442dbc671c22d99483600401546040516114f091815260200190565b60405180910390a3600581015460088201540361154157600a8101805460ff1916600117905560405184907f8440b1be3f2c3b3ddb5efbb25ddf9c0aab1b6ab432efc2ded34aff5aef837c43905f90a25b50505050565b60036020525f908152604090208054819061156190611ccd565b80601f016020809104026020016040519081016040528092919081815260200182805461158d90611ccd565b80156115d85780601f106115af576101008083540402835291602001916115d8565b820191905f5260205f20905b8154815290600101906020018083116115bb57829003601f168201915b5050505050908060010180546115ed90611ccd565b80601f016020809104026020016040519081016040528092919081815260200182805461161990611ccd565b80156116645780601f1061163b57610100808354040283529160200191611664565b820191905f5260205f20905b81548152906001019060200180831161164757829003601f168201915b505050600284015460038501546004860154600587015460068801546007890154600a8a0154600b8b0154600c909b0154999a6001600160a01b039097169995985093965091949093919260ff16918b565b6040516001600160a01b0383811660248301526044820183905261171591859182169063a9059cbb906064015b604051602081830303815290604052915060e01b6020820180516001600160e01b038381831617835250505050611815565b505050565b6040516001600160a01b0384811660248301528381166044830152606482018390526115419186918216906323b872dd906084016116e3565b5f828152600360209081526040808320600801805482518185028101850190935280835284938301828280156117b057602002820191905f5260205f20905b81546001600160a01b03168152600190910190602001808311611792575b509394505f93505050505b815181101561180957836001600160a01b03168282815181106117e0576117e0611ea6565b60200260200101516001600160a01b0316036118015760019250505061180f565b6001016117bb565b505f9150505b92915050565b5f5f60205f8451602086015f885af180611834576040513d5f823e3d81fd5b50505f513d9150811561184b578060011415611858565b6001600160a01b0384163b155b1561154157604051635274afe760e01b81526001600160a01b038516600482015260240161030f565b5f60208284031215611891575f5ffd5b5035919050565b5f5f604083850312156118a9575f5ffd5b50508035926020909101359150565b5f81518084528060208401602086015e5f602082860101526020601f19601f83011685010191505092915050565b634e487b7160e01b5f52602160045260245ffd5b6004811061191657634e487b7160e01b5f52602160045260245ffd5b9052565b61018081525f61192e61018083018f6118b8565b8281036020840152611940818f6118b8565b6001600160a01b038e166040850152606084018d9052608084018c905260a084018b905260c084018a905260e0840189905283810361010085015287518082526020808a019350909101905f90815b818110156119b65784516001600160a01b031684526020948501949093019260010161198f565b509193506119cc925050506101208301866118fa565b61014082019390935261016001529a9950505050505050505050565b634e487b7160e01b5f52604160045260245ffd5b5f82601f830112611a0b575f5ffd5b813567ffffffffffffffff811115611a2557611a256119e8565b604051601f8201601f19908116603f0116810167ffffffffffffffff81118282101715611a5457611a546119e8565b604052818152838201602001851015611a6b575f5ffd5b816020850160208301375f918101602001919091529392505050565b5f5f5f5f5f5f5f60e0888a031215611a9d575f5ffd5b873567ffffffffffffffff811115611ab3575f5ffd5b611abf8a828b016119fc565b975050602088013567ffffffffffffffff811115611adb575f5ffd5b611ae78a828b016119fc565b979a9799505050506040860135956060810135956080820135955060a0820135945060c09091013592509050565b80356001600160a01b0381168114611b2b575f5ffd5b919050565b5f5f60408385031215611b41575f5ffd5b611b4a83611b15565b946020939093013593505050565b5f60208284031215611b68575f5ffd5b611b7182611b15565b9392505050565b602080825282518282018190525f918401906040840190835b81811015611baf578351835260209384019390920191600101611b91565b509095945050505050565b61016081525f611bce61016083018e6118b8565b8281036020840152611be0818e6118b8565b91505060018060a01b038b1660408301528960608301528860808301528760a08301528660c08301528560e0830152611c1d6101008301866118fa565b61012082019390935261014001529998505050505050505050565b6020808252601b908201527f4f6e6c79206c616e646c6f72642063616e2063616c6c20746869730000000000604082015260600190565b6020808252601d908201527f50726f7065727479206e6f7420696e20636f7272656374207374617465000000604082015260600190565b634e487b7160e01b5f52601160045260245ffd5b8082018082111561180f5761180f611ca6565b600181811c90821680611ce157607f821691505b602082108103611cff57634e487b7160e01b5f52602260045260245ffd5b50919050565b634e487b7160e01b5f52601260045260245ffd5b5f82611d2757611d27611d05565b500690565b5f60018201611d3d57611d3d611ca6565b5060010190565b601f82111561171557805f5260205f20601f840160051c81016020851015611d695750805b601f840160051c820191505b81811015611d88575f8155600101611d75565b5050505050565b815167ffffffffffffffff811115611da957611da96119e8565b611dbd81611db78454611ccd565b84611d44565b6020601f821160018114611def575f8315611dd85750848201515b5f19600385901b1c1916600184901b178455611d88565b5f84815260208120601f198516915b82811015611e1e5787850151825560209485019460019092019101611dfe565b5084821015611e3b57868401515f19600387901b60f8161c191681555b50505050600190811b01905550565b5f60208284031215611e5a575f5ffd5b5051919050565b8181038181111561180f5761180f611ca6565b5f60208284031215611e84575f5ffd5b81518015158114611b71575f5ffd5b5f82611ea157611ea1611d05565b500490565b634e487b7160e01b5f52603260045260245ffdfea2646970667358221220c597f0556d2e6af0933f7d733db5d101196b2316069334bcad491b79328e8e4664736f6c634300081e0033","linkReferences":{}},"methodIdentifiers":{"addLandlordFunds(uint256,uint256)":"0a1838d7","cancelPool(uint256)":"827c7889","claimLease(uint256)":"07bd93af","createPropertyPool(string,string,uint256,uint256,uint256,uint256,uint256)":"4c6557fd","depositToVault(uint256)":"b0462296","expressInterest(uint256)":"f796c724","fundRent(uint256)":"de16f208","getPropertiesByLandlord(address)":"f015c255","getPropertyInfo(uint256)":"40f0a055","interestGenerator()":"cc7106fc","landlordProperties(address,uint256)":"6007bd6e","landlordToPropertyCount(address)":"daf520e5","mxnbToken()":"4043cd95","properties(uint256)":"f7b10808","propertyCounter()":"d090e47e","tenantPassport()":"17805407","withdrawFromVault(uint256,uint256)":"70974818","withdrawInterest(uint256)":"08669aab"},"id":39}