{"abi":[{"type":"constructor","inputs":[{"name":"_mxnbtTokenAddress","type":"address","internalType":"address"},{"name":"_tenantPassportAddress","type":"address","internalType":"address"}],"stateMutability":"nonpayable"},{"type":"function","name":"cancelPool","inputs":[{"name":"_propertyId","type":"uint256","internalType":"uint256"}],"outputs":[],"stateMutability":"nonpayable"},{"type":"function","name":"claimLease","inputs":[{"name":"_propertyId","type":"uint256","internalType":"uint256"}],"outputs":[],"stateMutability":"nonpayable"},{"type":"function","name":"createPropertyPool","inputs":[{"name":"_totalRent","type":"uint256","internalType":"uint256"},{"name":"_seriousnessDeposit","type":"uint256","internalType":"uint256"},{"name":"_tenantCount","type":"uint256","internalType":"uint256"}],"outputs":[],"stateMutability":"nonpayable"},{"type":"function","name":"expressInterest","inputs":[{"name":"_propertyId","type":"uint256","internalType":"uint256"}],"outputs":[],"stateMutability":"nonpayable"},{"type":"function","name":"fundRent","inputs":[{"name":"_propertyId","type":"uint256","internalType":"uint256"}],"outputs":[],"stateMutability":"nonpayable"},{"type":"function","name":"getPropertyInfo","inputs":[{"name":"_propertyId","type":"uint256","internalType":"uint256"}],"outputs":[{"name":"","type":"address","internalType":"address"},{"name":"","type":"uint256","internalType":"uint256"},{"name":"","type":"uint256","internalType":"uint256"},{"name":"","type":"uint256","internalType":"uint256"},{"name":"","type":"uint256","internalType":"uint256"},{"name":"","type":"address[]","internalType":"address[]"},{"name":"","type":"uint8","internalType":"enum PropertyInterestPool.State"}],"stateMutability":"view"},{"type":"function","name":"mxnbtToken","inputs":[],"outputs":[{"name":"","type":"address","internalType":"contract IERC20"}],"stateMutability":"view"},{"type":"function","name":"properties","inputs":[{"name":"","type":"uint256","internalType":"uint256"}],"outputs":[{"name":"landlord","type":"address","internalType":"address"},{"name":"totalRentAmount","type":"uint256","internalType":"uint256"},{"name":"seriousnessDeposit","type":"uint256","internalType":"uint256"},{"name":"requiredTenantCount","type":"uint256","internalType":"uint256"},{"name":"amountPooledForRent","type":"uint256","internalType":"uint256"},{"name":"state","type":"uint8","internalType":"enum PropertyInterestPool.State"}],"stateMutability":"view"},{"type":"function","name":"propertyCounter","inputs":[],"outputs":[{"name":"","type":"uint256","internalType":"uint256"}],"stateMutability":"view"},{"type":"function","name":"tenantPassport","inputs":[],"outputs":[{"name":"","type":"address","internalType":"contract ITenantPassport"}],"stateMutability":"view"},{"type":"function","name":"withdrawInterest","inputs":[{"name":"_propertyId","type":"uint256","internalType":"uint256"}],"outputs":[],"stateMutability":"nonpayable"},{"type":"event","name":"GroupFinalized","inputs":[{"name":"propertyId","type":"uint256","indexed":true,"internalType":"uint256"}],"anonymous":false},{"type":"event","name":"InterestExpressed","inputs":[{"name":"propertyId","type":"uint256","indexed":true,"internalType":"uint256"},{"name":"tenant","type":"address","indexed":true,"internalType":"address"},{"name":"depositAmount","type":"uint256","indexed":false,"internalType":"uint256"}],"anonymous":false},{"type":"event","name":"InterestWithdrawn","inputs":[{"name":"propertyId","type":"uint256","indexed":true,"internalType":"uint256"},{"name":"tenant","type":"address","indexed":true,"internalType":"address"},{"name":"depositAmount","type":"uint256","indexed":false,"internalType":"uint256"}],"anonymous":false},{"type":"event","name":"LeaseClaimed","inputs":[{"name":"propertyId","type":"uint256","indexed":true,"internalType":"uint256"},{"name":"landlord","type":"address","indexed":false,"internalType":"address"},{"name":"rentAmount","type":"uint256","indexed":false,"internalType":"uint256"}],"anonymous":false},{"type":"event","name":"PoolCanceled","inputs":[{"name":"propertyId","type":"uint256","indexed":true,"internalType":"uint256"}],"anonymous":false},{"type":"event","name":"PropertyCreated","inputs":[{"name":"propertyId","type":"uint256","indexed":true,"internalType":"uint256"},{"name":"landlord","type":"address","indexed":true,"internalType":"address"},{"name":"totalRent","type":"uint256","indexed":false,"internalType":"uint256"}],"anonymous":false},{"type":"event","name":"RentFunded","inputs":[{"name":"propertyId","type":"uint256","indexed":true,"internalType":"uint256"},{"name":"tenant","type":"address","indexed":true,"internalType":"address"},{"name":"amount","type":"uint256","indexed":false,"internalType":"uint256"}],"anonymous":false},{"type":"error","name":"SafeERC20FailedOperation","inputs":[{"name":"token","type":"address","internalType":"address"}]}],"bytecode":{"object":"0x6080604052348015600e575f5ffd5b5060405161102b38038061102b833981016040819052602b916074565b5f80546001600160a01b039384166001600160a01b0319918216179091556001805492909316911617905560a0565b80516001600160a01b0381168114606f575f5ffd5b919050565b5f5f604083850312156084575f5ffd5b608b83605a565b9150609760208401605a565b90509250929050565b610f7e806100ad5f395ff3fe608060405234801561000f575f5ffd5b50600436106100a6575f3560e01c8063827c78891161006e578063827c78891461013a578063c6810d771461014d578063d090e47e14610160578063de16f20814610177578063f796c7241461018a578063f7b108081461019d575f5ffd5b806307bd93af146100aa57806308669aab146100bf57806317805407146100d257806340f0a05514610102578063777becd214610128575b5f5ffd5b6100bd6100b8366004610d2e565b610200565b005b6100bd6100cd366004610d2e565b61034a565b6001546100e5906001600160a01b031681565b6040516001600160a01b0390911681526020015b60405180910390f35b610115610110366004610d2e565b61045c565b6040516100f99796959493929190610d79565b5f546100e5906001600160a01b031681565b6100bd610148366004610d2e565b610520565b6100bd61015b366004610e04565b610673565b61016960035481565b6040519081526020016100f9565b6100bd610185366004610d2e565b61082b565b6100bd610198366004610d2e565b61096f565b6101ee6101ab366004610d2e565b600260208190525f91825260409091208054600182015492820154600383015460048401546007909401546001600160a01b039093169493919290919060ff1686565b6040516100f996959493929190610e2d565b5f8181526002602052604090205481906001600160a01b0316331461026c5760405162461bcd60e51b815260206004820152601b60248201527f4f6e6c79206c616e646c6f72642063616e2063616c6c2074686973000000000060448201526064015b60405180910390fd5b5f82815260026020526040902060018101546004820154146102c85760405162461bcd60e51b815260206004820152601560248201527414995b9d081b9bdd08199d5b1b1e48199d5b991959605a1b6044820152606401610263565b60078101805460ff19166002179055805460018201545f546102f8926001600160a01b0391821692911690610b63565b80546001820154604080516001600160a01b039093168352602083019190915284917fba157d6d2377f7f188e56a4fcc022f0c422e03c9f7fcb9045f455b1071433abf910160405180910390a2505050565b806003805f8381526002602052604090206007015460ff16600381111561037357610373610d45565b146103905760405162461bcd60e51b815260040161026390610e71565b5f8381526002602090815260408083203384526006810190925290912054806103f45760405162461bcd60e51b81526020600482015260166024820152754e6f206465706f73697420746f20776974686472617760501b6044820152606401610263565b335f81815260068401602052604081208190555461041e916001600160a01b039091169083610b63565b604051818152339086907f387d0e87494328c955a921844efb7a34dabb1d7d47d66ef1fe153dd1be9dc05e9060200160405180910390a35050505050565b5f81815260026020818152604080842080546001820154948201546003830154600484015460078501546005860180548851818b0281018b019099528089528b9a8b9a8b9a8b9a60609a8c9a91996001600160a01b0390911698949791969095909360ff90921692918491908301828280156104ff57602002820191905f5260205f20905b81546001600160a01b031681526001909101906020018083116104e1575b50505050509150975097509750975097509750975050919395979092949650565b5f8181526002602052604090205481906001600160a01b031633146105875760405162461bcd60e51b815260206004820152601b60248201527f4f6e6c79206c616e646c6f72642063616e2063616c6c207468697300000000006044820152606401610263565b5f8281526002602052604081206007015460ff16908160038111156105ae576105ae610d45565b14806105cb575060018160038111156105c9576105c9610d45565b145b61062c5760405162461bcd60e51b815260206004820152602c60248201527f506f6f6c2063616e206f6e6c792062652063616e63656c6564206966204f504560448201526b4e206f722046554e44494e4760a01b6064820152608401610263565b5f83815260026020526040808220600701805460ff191660031790555184917f03febafce5358e5ccb78f3e18dcc83d21c96a64775251b7d3537cecd8464333091a2505050565b5f81116106ce5760405162461bcd60e51b815260206004820152602360248201527f54656e616e7420636f756e74206d75737420626520677265617465722074686160448201526206e20360ec1b6064820152608401610263565b6106d88184610ebc565b156107345760405162461bcd60e51b815260206004820152602660248201527f52656e74206d75737420626520646976697369626c652062792074656e616e746044820152650818dbdd5b9d60d21b6064820152608401610263565b60038054905f61074383610ee3565b9091555050600380545f818152600260208190526040918290208054336001600160a01b03199091168117825560018083018a905592820188905594810186905560078101805460ff191690559054915163d9ec55ab60e01b8152600481018590529293909290916001600160a01b03169063d9ec55ab906024015f604051808303815f87803b1580156107d5575f5ffd5b505af11580156107e7573d5f5f3e3d5ffd5b50506040518881523392508591507f9815995bdb741d1e283b7e7fd822a34b01efd21fd2c59dc0d5ab07a587a61726906020015b60405180910390a3505050505050565b806001805f8381526002602052604090206007015460ff16600381111561085457610854610d45565b146108715760405162461bcd60e51b815260040161026390610e71565b61087b8333610bc7565b6108c75760405162461bcd60e51b815260206004820152601860248201527f4e6f7420616e20696e74657265737465642074656e616e7400000000000000006044820152606401610263565b5f838152600260205260408120600381015460018201549192916108eb9190610efb565b335f9081526006840160205260408120549192509061090a9083610f0e565b905081836004015f82825461091f9190610f21565b90915550505f5461093b906001600160a01b0316333084610c89565b604051828152339087907fc29a1e4f4ab27c9953c3664751fc3ed78728bcfe7fcae8e3f2aa030f140494849060200161081b565b805f805f8381526002602052604090206007015460ff16600381111561099757610997610d45565b146109b45760405162461bcd60e51b815260040161026390610e71565b82600354101580156109c557505f83115b610a115760405162461bcd60e51b815260206004820152601760248201527f50726f706572747920646f6573206e6f742065786973740000000000000000006044820152606401610263565b610a1b8333610bc7565b15610a685760405162461bcd60e51b815260206004820152601a60248201527f416c72656164792065787072657373656420696e7465726573740000000000006044820152606401610263565b5f8381526002602081815260408084209283018054338087526006860185529286205560058401805460018101825590865292852090920180546001600160a01b03191682179055905492549192610acc926001600160a01b031691903090610c89565b336001600160a01b0316847f9bfc3b997c93fbb803bddbbc2732b0209c94d8b02d5367c6442dbc671c22d9948360020154604051610b0c91815260200190565b60405180910390a36003810154600582015403610b5d5760078101805460ff1916600117905560405184907f8440b1be3f2c3b3ddb5efbb25ddf9c0aab1b6ab432efc2ded34aff5aef837c43905f90a25b50505050565b6040516001600160a01b03838116602483015260448201839052610bc291859182169063a9059cbb906064015b604051602081830303815290604052915060e01b6020820180516001600160e01b038381831617835250505050610cc2565b505050565b5f82815260026020908152604080832060050180548251818502810185019093528083528493830182828015610c2457602002820191905f5260205f20905b81546001600160a01b03168152600190910190602001808311610c06575b509394505f93505050505b8151811015610c7d57836001600160a01b0316828281518110610c5457610c54610f34565b60200260200101516001600160a01b031603610c7557600192505050610c83565b600101610c2f565b505f9150505b92915050565b6040516001600160a01b038481166024830152838116604483015260648201839052610b5d9186918216906323b872dd90608401610b90565b5f5f60205f8451602086015f885af180610ce1576040513d5f823e3d81fd5b50505f513d91508115610cf8578060011415610d05565b6001600160a01b0384163b155b15610b5d57604051635274afe760e01b81526001600160a01b0385166004820152602401610263565b5f60208284031215610d3e575f5ffd5b5035919050565b634e487b7160e01b5f52602160045260245ffd5b60048110610d7557634e487b7160e01b5f52602160045260245ffd5b9052565b5f60e0820160018060a01b038a16835288602084015287604084015286606084015285608084015260e060a0840152808551808352610100850191506020870192505f5b81811015610de45783516001600160a01b0316835260209384019390920191600101610dbd565b50508092505050610df860c0830184610d59565b98975050505050505050565b5f5f5f60608486031215610e16575f5ffd5b505081359360208301359350604090920135919050565b6001600160a01b03871681526020810186905260408101859052606081018490526080810183905260c08101610e6660a0830184610d59565b979650505050505050565b6020808252601d908201527f50726f7065727479206e6f7420696e20636f7272656374207374617465000000604082015260600190565b634e487b7160e01b5f52601260045260245ffd5b5f82610eca57610eca610ea8565b500690565b634e487b7160e01b5f52601160045260245ffd5b5f60018201610ef457610ef4610ecf565b5060010190565b5f82610f0957610f09610ea8565b500490565b81810381811115610c8357610c83610ecf565b80820180821115610c8357610c83610ecf565b634e487b7160e01b5f52603260045260245ffdfea26469706673582212201436c6b91d783099179add15adceb1b442ee3b27f4ff076e09d856e4ecdb0d5b64736f6c634300081e0033","linkReferences":{}},"methodIdentifiers":{"cancelPool(uint256)":"827c7889","claimLease(uint256)":"07bd93af","createPropertyPool(uint256,uint256,uint256)":"c6810d77","expressInterest(uint256)":"f796c724","fundRent(uint256)":"de16f208","getPropertyInfo(uint256)":"40f0a055","mxnbtToken()":"777becd2","properties(uint256)":"f7b10808","propertyCounter()":"d090e47e","tenantPassport()":"17805407","withdrawInterest(uint256)":"08669aab"},"id":40}