{"abi":[{"type":"constructor","inputs":[{"name":"_mxnbTokenAddress","type":"address","internalType":"address"}],"stateMutability":"nonpayable"},{"type":"function","name":"APR","inputs":[],"outputs":[{"name":"","type":"uint256","internalType":"uint256"}],"stateMutability":"view"},{"type":"function","name":"balanceOf","inputs":[{"name":"_user","type":"address","internalType":"address"}],"outputs":[{"name":"","type":"uint256","internalType":"uint256"}],"stateMutability":"view"},{"type":"function","name":"calculateInterest","inputs":[{"name":"_user","type":"address","internalType":"address"}],"outputs":[{"name":"","type":"uint256","internalType":"uint256"}],"stateMutability":"view"},{"type":"function","name":"deposit","inputs":[{"name":"_amount","type":"uint256","internalType":"uint256"}],"outputs":[],"stateMutability":"nonpayable"},{"type":"function","name":"depositTimestamps","inputs":[{"name":"","type":"address","internalType":"address"}],"outputs":[{"name":"","type":"uint256","internalType":"uint256"}],"stateMutability":"view"},{"type":"function","name":"mxnbToken","inputs":[],"outputs":[{"name":"","type":"address","internalType":"contract IERC20"}],"stateMutability":"view"},{"type":"function","name":"userDeposits","inputs":[{"name":"","type":"address","internalType":"address"}],"outputs":[{"name":"","type":"uint256","internalType":"uint256"}],"stateMutability":"view"},{"type":"function","name":"withdraw","inputs":[{"name":"_amount","type":"uint256","internalType":"uint256"}],"outputs":[],"stateMutability":"nonpayable"},{"type":"event","name":"Deposited","inputs":[{"name":"user","type":"address","indexed":true,"internalType":"address"},{"name":"amount","type":"uint256","indexed":false,"internalType":"uint256"}],"anonymous":false},{"type":"event","name":"Withdrawn","inputs":[{"name":"user","type":"address","indexed":true,"internalType":"address"},{"name":"amount","type":"uint256","indexed":false,"internalType":"uint256"}],"anonymous":false},{"type":"error","name":"SafeERC20FailedOperation","inputs":[{"name":"token","type":"address","internalType":"address"}]}],"bytecode":{"object":"0x60a060405234801561000f575f5ffd5b506040516107ff3803806107ff83398101604081905261002e91610099565b6001600160a01b0381166100885760405162461bcd60e51b815260206004820152601560248201527f496e76616c696420746f6b656e20616464726573730000000000000000000000604482015260640160405180910390fd5b6001600160a01b03166080526100c6565b5f602082840312156100a9575f5ffd5b81516001600160a01b03811681146100bf575f5ffd5b9392505050565b6080516107146100eb5f395f818160f4015281816102a5015261041f01526107145ff3fe608060405234801561000f575f5ffd5b5060043610610085575f3560e01c806370a082311161005857806370a082311461012e578063b6b55f2514610141578063bd30558e14610154578063e11932cf1461015d575f5ffd5b80630ba36dcd14610089578063240be944146100bb5780632e1a7d4d146100da5780634043cd95146100ef575b5f5ffd5b6100a8610097366004610631565b5f6020819052908152604090205481565b6040519081526020015b60405180910390f35b6100a86100c9366004610631565b60016020525f908152604090205481565b6100ed6100e8366004610657565b610170565b005b6101167f000000000000000000000000000000000000000000000000000000000000000081565b6040516001600160a01b0390911681526020016100b2565b6100a861013c366004610631565b61030e565b6100ed61014f366004610657565b610340565b6100a86101f481565b6100a861016b366004610631565b610487565b5f61017a3361030e565b90505f82116101df5760405162461bcd60e51b815260206004820152602660248201527f576974686472617720616d6f756e74206d75737420626520677265617465722060448201526507468616e20360d41b60648201526084015b60405180910390fd5b808211156102395760405162461bcd60e51b815260206004820152602160248201527f43616e6e6f74207769746864726177206d6f7265207468616e2062616c616e636044820152606560f81b60648201526084016101d6565b5f61024333610487565b335f90815260208190526040812080549293508392909190610266908490610682565b9091555050335f9081526020819052604081208054859290610289908490610695565b9091555050335f8181526001602052604090204290556102d4907f00000000000000000000000000000000000000000000000000000000000000006001600160a01b03169085610522565b60405183815233907f7084f5476618d8e60b11ef0d7d3f06914655adb8793e28ff7f018d4c76d505d59060200160405180910390a2505050565b5f61031882610487565b6001600160a01b0383165f9081526020819052604090205461033a9190610682565b92915050565b5f811161039d5760405162461bcd60e51b815260206004820152602560248201527f4465706f73697420616d6f756e74206d75737420626520677265617465722074604482015264068616e20360dc1b60648201526084016101d6565b335f90815260208190526040902054156103e5575f6103bb33610487565b335f908152602081905260408120805492935083929091906103de908490610682565b9091555050505b335f9081526020819052604081208054839290610403908490610682565b9091555050335f81815260016020526040902042905561044f907f00000000000000000000000000000000000000000000000000000000000000006001600160a01b0316903084610586565b60405181815233907f2da466a7b24304f47e87fa2e1e5a81b9831ce54fec19055ce277ca2f39ba42c49060200160405180910390a250565b6001600160a01b0381165f9081526001602052604081205481036104ac57505f919050565b6001600160a01b0382165f908152600160205260408120546104ce9042610695565b90506104e06301e133806127106106a8565b6001600160a01b0384165f908152602081905260409020548290610507906101f4906106a8565b61051191906106a8565b61051b91906106bf565b9392505050565b6040516001600160a01b0383811660248301526044820183905261058191859182169063a9059cbb906064015b604051602081830303815290604052915060e01b6020820180516001600160e01b0383818316178352505050506105c5565b505050565b6040516001600160a01b0384811660248301528381166044830152606482018390526105bf9186918216906323b872dd9060840161054f565b50505050565b5f5f60205f8451602086015f885af1806105e4576040513d5f823e3d81fd5b50505f513d915081156105fb578060011415610608565b6001600160a01b0384163b155b156105bf57604051635274afe760e01b81526001600160a01b03851660048201526024016101d6565b5f60208284031215610641575f5ffd5b81356001600160a01b038116811461051b575f5ffd5b5f60208284031215610667575f5ffd5b5035919050565b634e487b7160e01b5f52601160045260245ffd5b8082018082111561033a5761033a61066e565b8181038181111561033a5761033a61066e565b808202811582820484141761033a5761033a61066e565b5f826106d957634e487b7160e01b5f52601260045260245ffd5b50049056fea264697066735822122027a4c3995ecf56102d25c56941ab85d4eeba514b2ce0aa939d7d527055fbd06064736f6c634300081e0033","linkReferences":{}},"methodIdentifiers":{"APR()":"bd30558e","balanceOf(address)":"70a08231","calculateInterest(address)":"e11932cf","deposit(uint256)":"b6b55f25","depositTimestamps(address)":"240be944","mxnbToken()":"4043cd95","userDeposits(address)":"0ba36dcd","withdraw(uint256)":"2e1a7d4d"},"id":38}