{"abi":[{"type":"constructor","inputs":[{"name":"_mxnbTokenAddress","type":"address","internalType":"address"},{"name":"_initialOwner","type":"address","internalType":"address"}],"stateMutability":"nonpayable"},{"type":"function","name":"APR","inputs":[],"outputs":[{"name":"","type":"uint256","internalType":"uint256"}],"stateMutability":"view"},{"type":"function","name":"balanceOf","inputs":[{"name":"_user","type":"address","internalType":"address"}],"outputs":[{"name":"","type":"uint256","internalType":"uint256"}],"stateMutability":"view"},{"type":"function","name":"calculateInterest","inputs":[{"name":"_user","type":"address","internalType":"address"}],"outputs":[{"name":"","type":"uint256","internalType":"uint256"}],"stateMutability":"view"},{"type":"function","name":"deposit","inputs":[{"name":"_amount","type":"uint256","internalType":"uint256"}],"outputs":[],"stateMutability":"nonpayable"},{"type":"function","name":"depositTimestamps","inputs":[{"name":"","type":"address","internalType":"address"}],"outputs":[{"name":"","type":"uint256","internalType":"uint256"}],"stateMutability":"view"},{"type":"function","name":"mxnbToken","inputs":[],"outputs":[{"name":"","type":"address","internalType":"contract IERC20"}],"stateMutability":"view"},{"type":"function","name":"owner","inputs":[],"outputs":[{"name":"","type":"address","internalType":"address"}],"stateMutability":"view"},{"type":"function","name":"pause","inputs":[],"outputs":[],"stateMutability":"nonpayable"},{"type":"function","name":"paused","inputs":[],"outputs":[{"name":"","type":"bool","internalType":"bool"}],"stateMutability":"view"},{"type":"function","name":"renounceOwnership","inputs":[],"outputs":[],"stateMutability":"nonpayable"},{"type":"function","name":"transferOwnership","inputs":[{"name":"newOwner","type":"address","internalType":"address"}],"outputs":[],"stateMutability":"nonpayable"},{"type":"function","name":"unpause","inputs":[],"outputs":[],"stateMutability":"nonpayable"},{"type":"function","name":"userDeposits","inputs":[{"name":"","type":"address","internalType":"address"}],"outputs":[{"name":"","type":"uint256","internalType":"uint256"}],"stateMutability":"view"},{"type":"function","name":"withdraw","inputs":[{"name":"_amount","type":"uint256","internalType":"uint256"}],"outputs":[],"stateMutability":"nonpayable"},{"type":"event","name":"Deposited","inputs":[{"name":"user","type":"address","indexed":true,"internalType":"address"},{"name":"amount","type":"uint256","indexed":false,"internalType":"uint256"}],"anonymous":false},{"type":"event","name":"OwnershipTransferred","inputs":[{"name":"previousOwner","type":"address","indexed":true,"internalType":"address"},{"name":"newOwner","type":"address","indexed":true,"internalType":"address"}],"anonymous":false},{"type":"event","name":"Paused","inputs":[{"name":"account","type":"address","indexed":false,"internalType":"address"}],"anonymous":false},{"type":"event","name":"Unpaused","inputs":[{"name":"account","type":"address","indexed":false,"internalType":"address"}],"anonymous":false},{"type":"event","name":"Withdrawn","inputs":[{"name":"user","type":"address","indexed":true,"internalType":"address"},{"name":"amount","type":"uint256","indexed":false,"internalType":"uint256"},{"name":"interestEarned","type":"uint256","indexed":false,"internalType":"uint256"}],"anonymous":false},{"type":"error","name":"EnforcedPause","inputs":[]},{"type":"error","name":"ExpectedPause","inputs":[]},{"type":"error","name":"OwnableInvalidOwner","inputs":[{"name":"owner","type":"address","internalType":"address"}]},{"type":"error","name":"OwnableUnauthorizedAccount","inputs":[{"name":"account","type":"address","internalType":"address"}]},{"type":"error","name":"ReentrancyGuardReentrantCall","inputs":[]},{"type":"error","name":"SafeERC20FailedOperation","inputs":[{"name":"token","type":"address","internalType":"address"}]}],"bytecode":{"object":"0x60a060405234801561000f575f5ffd5b50604051610b46380380610b4683398101604081905261002e9161013d565b806001600160a01b03811661005d57604051631e4fbdf760e01b81525f60048201526024015b60405180910390fd5b610066816100d3565b50600180556001600160a01b0382166100c15760405162461bcd60e51b815260206004820152601b60248201527f446972656363696f6e20646520746f6b656e20696e76616c69646100000000006044820152606401610054565b506001600160a01b031660805261016e565b5f80546001600160a01b038381166001600160a01b0319831681178455604051919092169283917f8be0079c531659141344cd1fd0a4f28419497f9722a3daafe3b4186f6b6457e09190a35050565b80516001600160a01b0381168114610138575f5ffd5b919050565b5f5f6040838503121561014e575f5ffd5b61015783610122565b915061016560208401610122565b90509250929050565b6080516109b26101945f395f818161015c0152818161034201526104ee01526109b25ff3fe608060405234801561000f575f5ffd5b50600436106100e5575f3560e01c8063715018a611610088578063b6b55f2511610063578063b6b55f25146101e5578063bd30558e146101f8578063e11932cf14610201578063f2fde38b14610214575f5ffd5b8063715018a6146101c55780638456cb59146101cd5780638da5cb5b146101d5575f5ffd5b80633f4ba83a116100c35780633f4ba83a1461014f5780634043cd95146101575780635c975abb1461019657806370a08231146101b2575f5ffd5b80630ba36dcd146100e9578063240be9441461011b5780632e1a7d4d1461013a575b5f5ffd5b6101086100f73660046108cf565b60026020525f908152604090205481565b6040519081526020015b60405180910390f35b6101086101293660046108cf565b60036020525f908152604090205481565b61014d6101483660046108f5565b610227565b005b61014d6103bb565b61017e7f000000000000000000000000000000000000000000000000000000000000000081565b6040516001600160a01b039091168152602001610112565b5f54600160a01b900460ff166040519015158152602001610112565b6101086101c03660046108cf565b6103cd565b61014d6103ff565b61014d610410565b5f546001600160a01b031661017e565b61014d6101f33660046108f5565b610420565b6101086101f481565b61010861020f3660046108cf565b61055d565b61014d6102223660046108cf565b6105f8565b61022f610632565b61023761065c565b335f81815260026020526040812054916102509061055d565b90505f61025d8284610920565b90505f84116102c15760405162461bcd60e51b815260206004820152602560248201527f456c206d6f6e746f20612072657469726172206465626520736572206d61796f604482015264072206120360dc1b60648201526084015b60405180910390fd5b808411156103115760405162461bcd60e51b815260206004820152601e60248201527f52657469726f2065786365646520656c2062616c616e636520746f74616c000060448201526064016102b8565b61031b8482610933565b335f81815260026020908152604080832085905560039091529020429055909350610371907f00000000000000000000000000000000000000000000000000000000000000006001600160a01b03169086610686565b604080518581526020810184905233917f92ccf450a286a957af52509bc1c9939d1a6a481783e142e41e2499f0bb66ebc6910160405180910390a25050506103b860018055565b50565b6103c36106ea565b6103cb610716565b565b5f6103d78261055d565b6001600160a01b0383165f908152600260205260409020546103f99190610920565b92915050565b6104076106ea565b6103cb5f61076a565b6104186106ea565b6103cb6107b9565b610428610632565b61043061065c565b5f811161048f5760405162461bcd60e51b815260206004820152602760248201527f456c206d6f6e746f2061206465706f7369746172206465626520736572206d616044820152660796f72206120360cc1b60648201526084016102b8565b335f9081526002602052604090205480156104be575f6104ae3361055d565b90506104ba8183610920565b9150505b6104c88282610920565b335f81815260026020908152604080832094909455600390529190912042905561051e907f00000000000000000000000000000000000000000000000000000000000000006001600160a01b03169030856107fb565b60405182815233907f2da466a7b24304f47e87fa2e1e5a81b9831ce54fec19055ce277ca2f39ba42c49060200160405180910390a2506103b860018055565b6001600160a01b0381165f90815260036020526040812054810361058257505f919050565b6001600160a01b0382165f908152600360205260408120546105a49042610933565b90506105b66301e13380612710610946565b6001600160a01b0384165f9081526002602052604090205482906105dd906101f490610946565b6105e79190610946565b6105f1919061095d565b9392505050565b6106006106ea565b6001600160a01b03811661062957604051631e4fbdf760e01b81525f60048201526024016102b8565b6103b88161076a565b60026001540361065557604051633ee5aeb560e01b815260040160405180910390fd5b6002600155565b5f54600160a01b900460ff16156103cb5760405163d93c066560e01b815260040160405180910390fd5b6040516001600160a01b038381166024830152604482018390526106e591859182169063a9059cbb906064015b604051602081830303815290604052915060e01b6020820180516001600160e01b03838183161783525050505061083a565b505050565b5f546001600160a01b031633146103cb5760405163118cdaa760e01b81523360048201526024016102b8565b61071e6108a6565b5f805460ff60a01b191690557f5db9ee0a495bf2e6ff9c91a7834c1ba4fdd244a5e8aa4e537bd38aeae4b073aa335b6040516001600160a01b03909116815260200160405180910390a1565b5f80546001600160a01b038381166001600160a01b0319831681178455604051919092169283917f8be0079c531659141344cd1fd0a4f28419497f9722a3daafe3b4186f6b6457e09190a35050565b6107c161065c565b5f805460ff60a01b1916600160a01b1790557f62e78cea01bee320cd4e420270b5ea74000d11b0c9f74754ebdbfc544b05a25861074d3390565b6040516001600160a01b0384811660248301528381166044830152606482018390526108349186918216906323b872dd906084016106b3565b50505050565b5f5f60205f8451602086015f885af180610859576040513d5f823e3d81fd5b50505f513d9150811561087057806001141561087d565b6001600160a01b0384163b155b1561083457604051635274afe760e01b81526001600160a01b03851660048201526024016102b8565b5f54600160a01b900460ff166103cb57604051638dfc202b60e01b815260040160405180910390fd5b5f602082840312156108df575f5ffd5b81356001600160a01b03811681146105f1575f5ffd5b5f60208284031215610905575f5ffd5b5035919050565b634e487b7160e01b5f52601160045260245ffd5b808201808211156103f9576103f961090c565b818103818111156103f9576103f961090c565b80820281158282048414176103f9576103f961090c565b5f8261097757634e487b7160e01b5f52601260045260245ffd5b50049056fea2646970667358221220305892dadfaea81729d05ad8421fa6e122caf637980578bf90d70d60e7cbb3e964736f6c634300081e0033","linkReferences":{}},"methodIdentifiers":{"APR()":"bd30558e","balanceOf(address)":"70a08231","calculateInterest(address)":"e11932cf","deposit(uint256)":"b6b55f25","depositTimestamps(address)":"240be944","mxnbToken()":"4043cd95","owner()":"8da5cb5b","pause()":"8456cb59","paused()":"5c975abb","renounceOwnership()":"715018a6","transferOwnership(address)":"f2fde38b","unpause()":"3f4ba83a","userDeposits(address)":"0ba36dcd","withdraw(uint256)":"2e1a7d4d"},"id":40}