{"abi":[{"type":"constructor","inputs":[{"name":"_mxnbTokenAddress","type":"address","internalType":"address"}],"stateMutability":"nonpayable"},{"type":"function","name":"APR","inputs":[],"outputs":[{"name":"","type":"uint256","internalType":"uint256"}],"stateMutability":"view"},{"type":"function","name":"balanceOf","inputs":[{"name":"_user","type":"address","internalType":"address"}],"outputs":[{"name":"","type":"uint256","internalType":"uint256"}],"stateMutability":"view"},{"type":"function","name":"calculateInterest","inputs":[{"name":"_user","type":"address","internalType":"address"}],"outputs":[{"name":"","type":"uint256","internalType":"uint256"}],"stateMutability":"view"},{"type":"function","name":"deposit","inputs":[{"name":"_amount","type":"uint256","internalType":"uint256"}],"outputs":[],"stateMutability":"nonpayable"},{"type":"function","name":"depositTimestamps","inputs":[{"name":"","type":"address","internalType":"address"}],"outputs":[{"name":"","type":"uint256","internalType":"uint256"}],"stateMutability":"view"},{"type":"function","name":"mxnbToken","inputs":[],"outputs":[{"name":"","type":"address","internalType":"contract IERC20"}],"stateMutability":"view"},{"type":"function","name":"userDeposits","inputs":[{"name":"","type":"address","internalType":"address"}],"outputs":[{"name":"","type":"uint256","internalType":"uint256"}],"stateMutability":"view"},{"type":"function","name":"withdraw","inputs":[{"name":"_amount","type":"uint256","internalType":"uint256"}],"outputs":[],"stateMutability":"nonpayable"},{"type":"event","name":"Deposited","inputs":[{"name":"user","type":"address","indexed":true,"internalType":"address"},{"name":"amount","type":"uint256","indexed":false,"internalType":"uint256"}],"anonymous":false},{"type":"event","name":"Withdrawn","inputs":[{"name":"user","type":"address","indexed":true,"internalType":"address"},{"name":"amount","type":"uint256","indexed":false,"internalType":"uint256"}],"anonymous":false},{"type":"error","name":"SafeERC20FailedOperation","inputs":[{"name":"token","type":"address","internalType":"address"}]}],"bytecode":{"object":"0x60a0346100be57601f6106eb38819003918201601f19168301916001600160401b038311848410176100c2578084926020946040528339810103126100be57516001600160a01b038116908190036100be5780156100795760805260405161061490816100d7823960805181818161015201526102610152f35b60405162461bcd60e51b815260206004820152601560248201527f496e76616c696420746f6b656e206164647265737300000000000000000000006044820152606490fd5b5f80fd5b634e487b7160e01b5f52604160045260245ffdfe6080806040526004361015610012575f80fd5b5f3560e01c9081630ba36dcd1461043b57508063240be944146103ff5780632e1a7d4d146102905780634043cd951461024c57806370a082311461021d578063b6b55f25146100cb578063bd30558e146100af5763e11932cf14610074575f80fd5b346100ab5760203660031901126100ab576004356001600160a01b03811681036100ab576100a36020916104cf565b604051908152f35b5f80fd5b346100ab575f3660031901126100ab5760206040516101f48152f35b346100ab5760203660031901126100ab5760043580156101ca57335f525f60205260405f20546101a4575b335f525f60205260405f2061010c828254610473565b9055335f5260016020524260405f20556101766040516323b872dd60e01b602082015233602482015230604482015282606482015260648152610150608482610545565b7f000000000000000000000000000000000000000000000000000000000000000061057b565b6040519081527f2da466a7b24304f47e87fa2e1e5a81b9831ce54fec19055ce277ca2f39ba42c460203392a2005b6101ad336104cf565b335f525f6020526101c360405f20918254610473565b90556100f6565b60405162461bcd60e51b815260206004820152602560248201527f4465706f73697420616d6f756e74206d75737420626520677265617465722074604482015264068616e20360dc1b6064820152608490fd5b346100ab5760203660031901126100ab576004356001600160a01b03811681036100ab576100a36020916104a1565b346100ab575f3660031901126100ab576040517f00000000000000000000000000000000000000000000000000000000000000006001600160a01b03168152602090f35b346100ab5760203660031901126100ab576004356102ad336104a1565b81156103ab57811161035c576102c2336104cf565b335f525f6020526102d860405f20918254610473565b9055335f525f60205260405f206102f0828254610494565b9055335f5260016020524260405f205561032e60405163a9059cbb60e01b602082015233602482015282604482015260448152610150606482610545565b6040519081527f7084f5476618d8e60b11ef0d7d3f06914655adb8793e28ff7f018d4c76d505d560203392a2005b60405162461bcd60e51b815260206004820152602160248201527f43616e6e6f74207769746864726177206d6f7265207468616e2062616c616e636044820152606560f81b6064820152608490fd5b60405162461bcd60e51b815260206004820152602660248201527f576974686472617720616d6f756e74206d75737420626520677265617465722060448201526507468616e20360d41b6064820152608490fd5b346100ab5760203660031901126100ab576004356001600160a01b038116908190036100ab575f526001602052602060405f2054604051908152f35b346100ab5760203660031901126100ab576004356001600160a01b03811691908290036100ab576020915f525f825260405f20548152f35b9190820180921161048057565b634e487b7160e01b5f52601160045260245ffd5b9190820391821161048057565b6001600160a01b0381165f908152602081905260409020546104cc916104c6906104cf565b90610473565b90565b6001600160a01b03165f818152600160205260409020541561054057805f52600160205261050160405f205442610494565b905f525f60205260405f20546101f48102908082046101f414811517156104805782026101f4029181159183041417156104805764496cebb800900490565b505f90565b90601f8019910116810190811067ffffffffffffffff82111761056757604052565b634e487b7160e01b5f52604160045260245ffd5b905f602091828151910182855af1156105d3575f513d6105ca57506001600160a01b0381163b155b6105aa5750565b635274afe760e01b5f9081526001600160a01b0391909116600452602490fd5b600114156105a3565b6040513d5f823e3d90fdfea264697066735822122007197321377edcae11e509b59255327728b034dd0e537951d58a8a98d424710c64736f6c634300081e0033","linkReferences":{}},"methodIdentifiers":{"APR()":"bd30558e","balanceOf(address)":"70a08231","calculateInterest(address)":"e11932cf","deposit(uint256)":"b6b55f25","depositTimestamps(address)":"240be944","mxnbToken()":"4043cd95","userDeposits(address)":"0ba36dcd","withdraw(uint256)":"2e1a7d4d"},"id":38}